:1000000000600020011000006D100000F9130000D6
:100010007110000073100000751000000000000057
:100020000000000000000000000000007D3800001B
:1000300079100000000000009D3800007D100000D5
:10004000E53700007F100000C91A00007F10000093
:100050007F100000000000007F1000007F100000F3
:100060007F1000007F1000007F1000007F10000054
:100070007F1000007F1000007F1000007F10000044
:100080007F100000CD1D00007F1000007F100000D9
:100090007F1000007F1000007F1000007F10000024
:1000A0007F1000007F100000000000000000000032
:1000B0007F1000007F100000000000000000000022
:1000C0000000000000000000000000000000000030
:1000D0000000000000000000000000000000000020
:1000E0000000000000000000000000000000000010
:1000F0000000000000000000000000000000000000
:1001000000000000000000000000000000000000EF
:1001100000000000000000000000000000000000DF
:1001200000000000000000000000000000000000CF
:1001300000000000000000000000000000000000BF
:1001400000000000000000000000000000000000AF
:10015000000000000000000000000000000000009F
:10016000000000000000000000000000000000008F
:10017000000000000000000000000000000000007F
:10018000000000000000000000000000000000006F
:10019000000000000000000000000000000000005F
:1001A000000000000000000000000000000000004F
:1001B000000000000000000000000000000000003F
:1001C000000000000000000000000000000000002F
:1001D000000000000000000000000000000000001F
:1001E000000000000000000000000000000000000F
:1001F00000000000000000000000000000000000FF
:1002000010B5054C237833B9044B13B10448AFF350
:1002100000800123237010BD80000020000000003A
:10022000545C000008B5034B1BB103490348AFF30E
:10023000008008BD0000000084000020545C000025
:10024000A3F5803A704700BF174B002B08BF134B34
:100250009D46FFF7F5FF00218B460F461348144AD1
:10026000121A05F07DF90E4B002B00D098470D4B6C
:10027000002B00D098470020002104000D000D48FD
:10028000002802D00C48AFF3008005F037F92000B9
:10029000290000F07FFE05F01DF900BF00000800F6
:1002A000000000000000000000600020800000202E
:1002B000A0130020000000000000000008B501218C
:1002C000132001F021FABDE808400121142001F0BB
:1002D0001BBA08B50121132001F03EFA00211420B9
:1002E00001F03AFA4FF4FA7000F01AF800211320E6
:1002F00001F032FA1420012101F02EFABDE8084085
:100300004FF4FA7000F00CB8044B4FF080525A6072
:1003100040BFBFF34F8FBFF36F8F704700ED00E01A
:1003200080024FF47A73B0FBF3F000F0A5BA00003E
:100330002DE9F041044601F02FFD2F4B2F4E1A6896
:100340002F4F01321A603568002D49D134601B6887
:10035000012B1FD1B8464046013501F0ABFC052DFD
:1003600008F11408F7D1DFF89C80274D404601F0D2
:10037000A1FC284601F09EFC244801F09BFC244887
:1003800001F098FC234801F095FC234BC3F8008052
:10039000224B1D60224A2349136808680133136009
:1003A000E26A01239340034314200B6000FB0270B8
:1003B000211D01F08DFC01F0F7FC1B4B1B686BB19C
:1003C0003368DA6AE36A9A4208D2184B4FF08052D7
:1003D0005A6040BFBFF34F8FBFF36F8FBDE8F0810E
:1003E000114B1B68002BD5D13368DA6AE36A9A4255
:1003F00098BF3460CEE700BF0C0100209C000020B5
:10040000A800002020010020340100205801002015
:100410008401002070010020A0000020A400002022
:10042000180100201C0100206C01002000ED00E0FC
:10043000F8B51A4B1A4D1C680646286804300F465A
:1004400001F069FC40B92A681649D06A0B6801229C
:10045000824023EA02030B60731C07D137B129687D
:100460001148BDE8F840043101F032BC2B68A419F2
:100470005C6007D30D4B18682968BDE8F84004316B
:1004800001F032BC0A4B18682968043101F02CFCD9
:10049000084B1A68A24288BF1C60F8BD9801002072
:1004A0009C0000201C01002070010020A4000020FE
:1004B000A00000204C010020094B0A4A1B6812686A
:1004C000D06A58B9084A1268012A08D8012B06D800
:1004D000064B1868064B1B68C01A7047002070470F
:1004E0001C0100209C000020A80000204C010020DE
:1004F00098010020064A13681968064B19B94FF095
:10050000FF321A6070471268D2681268F9E700BFBC
:10051000A00000204C01002010B590F84D3004469A
:100520003BB9006B01F09AFB2046BDE8104001F09A
:1005300095BB012BF9D010BD2DE9F047DDE9098409
:100540004FEA82094A4606460D46206BA5211F4602
:1005500005F006F8226BA9F10409914429F0070976
:10056000C4F83890B5B36B1E04F13402033513F8A8
:10057000010F02F8010B08B1AB42F8D1002384F857
:100580003730089D042D28BF04254FF0000AE5628E
:10059000E563201DC4F840A001F097FBC5F10505F7
:1005A00004F1180001F091FB2461A5616462C4F8B4
:1005B00044A0C4F848A084F84CA03A4631464846C6
:1005C00001F0BCFB2060B8F1000F01D0C8F800407A
:1005D000BDE8F08784F83450D3E730B587B0DDE963
:1005E0000B547CB18DB12563022584F84D5005ADC7
:1005F00001950A9D02940095FFF79EFF2046FFF7A4
:1006000097FE059C204607B030BD2C46FAE7000057
:1006100010B588B0002407AA06A905A8CDE90544AD
:1006200001F0AAFE059B0293069B079A0E490F480C
:10063000CDE900432346FFF7D0FF0D4B186070B1A2
:1006400000F030FB01280AD172B60A4B4FF0FF329E
:100650001A60094B1860094B1C6001F081FB084BC4
:100660001B6808B010BD00BFC4560000A9080000F8
:10067000480100204C0100206C010020980100205E
:1006800004000020024A136801331360704700BF62
:1006900014010020014B1868704700BF980100202A
:1006A000024A136803441360704700BF980100209A
:1006B0002DE9F84F2F4B1B68002B54D12E4B1E6891
:1006C00001361E605EB92D4A2D4B11681868106006
:1006D0002C4A1960136801331360FFF70BFF2A4F90
:1006E0003B689E424FF0000407D2284B1B68002B4A
:1006F00018BF01242046BDE8F88FDFF88090DFF8AE
:100700009080DFF890A0D9F800301B681BB94FF03B
:10071000FF333B60E9E7D9F80030DB68DD686B68E0
:100720009E42F6D305F1040B584601F0F4FAAB6A89
:100730001BB105F1180001F0EEFAEA6AD8F80010D2
:100740000123934014200B4300FB02A05946C8F834
:10075000003001F0BDFA104BEA6A1B68DB6A9A426E
:1007600028BF0124CFE70D4A13680133136000242A
:10077000C0E700BF1401002098010020A000002065
:10078000A4000020500100204C0100209C0100200A
:100790001C010020A80000209C0000205401002023
:1007A0002DE9F84301F0F8FA2A4B1A68013A1A6069
:1007B0001C682CB1002401F0F7FA2046BDE8F8834C
:1007C000254B1B68002BF5D0244D254EDFF8948077
:1007D0001FE0EB68DC6804F1040904F1180001F083
:1007E0009AFA484601F097FAE26A3168012707FA57
:1007F00002F314200B4300FB02804946336001F0F2
:1008000067FA194BE26A1B68DB6A9A4201D3174BFD
:100810001F602B68002BDCD10CB1FFF76BFE144D71
:100820002C6844B1114E0127FFF742FF00B1376039
:10083000013CF9D12C600D4B1B68002BBAD00D4B3D
:100840004FF080525A6040BFBFF34F8FBFF36F8F9E
:100850000124B0E7140100200C0100205801002001
:100860001C010020A80000209C0000209C0100200A
:100870005401002000ED00E008B548B9094B4FF0E5
:1008800080525A6040BFBFF34F8FBFF36F8F08BDD8
:100890000021FFF7F7FEFFF7CBFDFFF781FF0028F0
:1008A000ECD0F4E700ED00E0F8B51B4C1B4F1C4DFD
:1008B0002368EBB91B4B1B68012B08D91A4B4FF06F
:1008C00080525A6040BFBFF34F8FBFF36F8F00F06D
:1008D000B5FCFFF7F1FD0128E9D9FFF7D3FEFFF7DB
:1008E000EBFD012801D901F0C1FAFFF759FFDEE75E
:1008F00001F052FAFB68DE68301D01F00CFA2B683B
:10090000013B2B602368013B236001F04DFA304628
:10091000FFF702FECCE700BF100100208401002099
:100920000C010020A800002000ED00E01D4B1A681B
:100930001D4B70B512B101221A6070BD1B4C1A60BC
:1009400023681B6B1A68B2F1A53F0BD15A68B2F14C
:10095000A53F07D19A68B2F1A53F03D1DB68B3F197
:10096000A53F04D020682168343100F045FC104BCD
:1009700010491B68B3FA83F3C3F11F03142606FB67
:1009800003F28818083245686D6845600A4495424C
:1009900004BF6A68426006FB03135B68DB68236080
:1009A000CBE700BF140100209C0100209C00002028
:1009B0001C010020A800002010B5064B0C46196849
:1009C000183101F091F920460121BDE81040FFF7F0
:1009D0002FBD00BF9C00002038B5084B0D4619689C
:1009E0001446183101F074F9002C21460CBF28463A
:1009F0004FF0FF30BDE83840FFF71ABD9C000020E3
:100A000038B5C368DC6804F11805284601F083F99D
:100A1000134B1B68F3B9251D284601F07CF91149D9
:100A2000E26A08680123934003430B600E4B1420D5
:100A3000294600FB023001F04BF9FFF75BFD0B4B41
:100A4000E26A1B68DB6A9A4283BF094B0120186087
:100A5000002038BD0748294601F03AF9EFE700BF0A
:100A6000140100201C010020A80000209C00002090
:100A70009C01002058010020034B1B680360034BBE
:100A80001B684360704700BF5001002098010020A0
:100A900070B50D46044601F07FF90F4B19682B68BD
:100AA0005A1C17D00D48266800686268864208D034
:100AB0008A4206D800232B60012401F075F92046F4
:100AC00070BD881A8342F5D95B1A13442B60204607
:100AD000FFF7D2FF0024F0E798010020500100202A
:100AE000014B01221A6070479C0100200B4B1B68D0
:100AF0007BB90B4A106870B90A4B1B6863B90A4B83
:100B000018680A4B1B68013B984214BF0120022061
:100B10007047002070471846704700BF58010020FA
:100B20009C01002054010020700100200C010020D5
:100B3000002905DC08B9034B186800EB810042640A
:100B4000704700BF9C000020002906DC08B9044B58
:100B5000186800EB8100406C70470020704700BFB0
:100B60009C000020054B1B6833B1054B1B68002B14
:100B70000CBF022000207047012070476C0100204C
:100B80001401002038B5044608B9002038BD036CB4
:100B9000C16AC26B013B91420364F6D0002BF4D1D1
:100BA000051D284601F0B7F80E4A30B9E16A13680E
:100BB0000120884023EA00031360E36BE362C3F182
:100BC0000501A1611168012404FA03F008431060D3
:100BD000054A142000FB0320294601F079F820463D
:100BE000D4E700BF1C010020A8000020024B1868B9
:100BF00008B11B68186B70479C000020024B1868F6
:100C000008B11B68986B70479C000020F7B50F4C2B
:100C100001F0C2F825689DB90D4F0E4E384601F01F
:100C200049F8304601F046F80B4B0C4A1F600C4B5C
:100C300010211E6020200B4B009501F033FA20603C
:100C400003B0BDE8F04001F0AFB800BF1C040020C5
:100C5000A8030020BC030020A0010020A801002060
:100C6000A4010020D4030020914208B54160006136
:100C70000AD8D21A83699A420DD2084B011D18680E
:100C800001F032F8002008BD9A4201D2994202D206
:100C9000034B011DF3E70120F5E700BFA40100208D
:100CA000A001002010B588B0FFF7B0FF0E4B186808
:100CB0000024B8B107AA06A905A8CDE9054401F0AA
:100CC00067FB059B0293069B019302230093079AFF
:100CD000064907482346FFF780FC064B1860001BB7
:100CE00018BF012008B010BD1C040020C956000028
:100CF000D10D0000200400207FB50F4C0546206870
:100D000016461A4680B10529CDE9001602950DDC7C
:100D1000FFF728FF0023022808BF089A206818BFA1
:100D20001A46694601F0D0F904B070BD0023694647
:100D300001F04EFAF8E700BF1C0400202DE9F74F40
:100D4000DFF880800646FFF7A5FCD8F80030834224
:100D5000054635D91C4F4FF000093B681A685AB94F
:100D60001A4A116839601360012328463360C8F8B5
:100D7000005003B0BDE8F08FDB68DC68D3F800A05A
:100D800004F1040B584600F0C6FF236A204698473A
:100D900094F824305B07E0D5A36953449A4506D202
:100DA000386863602461594600F09EFFD5E7002350
:100DB000CDF80090524619462046FFF79DFFCCE73C
:100DC0000023D2E7D0030020A0010020A4010020CE
:100DD0002DE9F047624D88B000272B68D3F80080DA
:100DE000B8F1000F50D0DB68D3F800800024FFF783
:100DF00049FC04A8FFF7A2FF049B5A4E8246002B31
:100E000063D1002C47D140454BD3FFF7C9FC2B6879
:100E1000DB68D3F80C9009F1040000F07CFF99F82E
:100E20002430580732D5D9F8181043465246414469
:100E30004846FFF719FF30B1009423464246214649
:100E40004846FFF759FFD9F82030484698473068A0
:100E5000002204A901F0F2F90028BED0049B0698F4
:100E6000002B35DB069C6369002B38D103A8FFF704
:100E700065FF049B0246092BE9D8DFE803F0343410
:100E800034535A683434535A0124B0E723F0010331
:100E900089F82430D7E7344B1B681C68B4FA84F413
:100EA000640930682246A8EB0A0101F041FAFFF715
:100EB00077FC0028CBD12D4B4FF080525A6040BFB9
:100EC000BFF34F8FBFF36F8FC1E7FFF769FCBEE73A
:100ED000059B07999847049B002BB8DBC2E7201DB0
:100EE00000F019FFC2E794F82430A16943F0010330
:100EF00084F82430059B20461944FFF7B5FE0028EE
:100F0000A5D0236A2046984794F8243059079ED5E7
:100F1000A2690599009700230A4420461946FFF765
:100F2000EBFE94E794F8243023F0010384F8243096
:100F30008DE794F8243043F0010384F824300599B8
:100F4000A161034601442046FFF78EFE7FE794F837
:100F500024309A07E8D4204600F080FE77E700BFEF
:100F6000A00100201C040020A401002000ED00E0EE
:100F700008B5FFF7A3F9054CFFF7ABF9FFF7C4F984
:100F8000002CF9D000F056FDF6E700BF351A00003E
:100F9000704700001FB500F08DFBFFF7F9FF114B04
:100FA0000293114B01930123104900934FF40072F7
:100FB00000230F480F4CFFF710FB0F4B18602369FD
:100FC00043F004032361FFF723FBBFF34F8FE26875
:100FD0000A4B02F4E0621343E360BFF34F8F00BF9C
:100FE000FDE700BF280C002024040020D15600009B
:100FF000710F000000ED00E0240C00200400FA0551
:1010000012480068124909680A280AD1002908D143
:10101000104802686FF070031A404FF040031A4303
:1010200002600D490D4A0E4B9B1A03DD043BC85864
:10103000D050FBDC0B484FF420710B4A02600430A7
:101040000439FBD100F036F8FFF7FEF8300100104C
:1010500034010010E40E0040F05C000000000020AD
:1010600080000020805D0020E5B1E4B1FEE7FEE7EE
:10107000FEE7FEE7FEE7FEE7FEE7FEE7FEE7FEE748
:101080004FF08052D2F83031591C09BF4FF07042F6
:10109000D2F83401D2F8E80F92F8E03F08BFC0F36D
:1010A00003100A2B04D101288CBF002001207047B7
:1010B0000020704708B5FFF7E3FF48B14FF08053B9
:1010C0004FF08042D3F84432C3F34233C2F83C3588
:1010D000FFF7D6FF40B14FF080430022C3F80C2148
:1010E000C3F81021C3F83825FFF7CAFF002846D0FF
:1010F0004FF08052334BD2F80414C3F82015D2F8C5
:101100000814C3F82415D2F80C14C3F82815D2F823
:101110001014C3F82C15D2F81414C3F83015D2F8F3
:101120001814C3F83415D2F81C14C3F84015D2F8BB
:101130002014C3F84415D2F82414C3F84815D2F883
:101140002814C3F84C15D2F82C14C3F85015D2F853
:101150003014C3F85415D2F83414C3F86015D2F81B
:101160003814C3F86415D2F83C14C3F86815D2F8E3
:101170004014C3F86C15D2F84424C3F87025FFF767
:101180007FFF48B14FF08043D3F80024D20744BF1B
:101190006FF00102C3F800244FF08053D3F83021E0
:1011A0000A2A0BD1D3F83431012B01BF4FF0804212
:1011B000D2F8E43E43F00F03C2F8E43E024B034A88
:1011C0001A6008BD00C00040080000200090D00355
:1011D000BFF34F8F0549064BCA6802F4E062134320
:1011E000CB60BFF34F8F00BFFDE700BF00ED00E015
:1011F0000400FA05704700000A4608B5054906488C
:1012000000F0F8FA00F082F83220FFF789F8FFF7D3
:10121000DFFF00BFD5560000800C002008B505494F
:10122000054800F0E7FA00F071F83220FFF778F88F
:10123000FFF7CEFFEF560000800C0020024B034A60
:10124000C3F80026704700BF000001403546526ECB
:10125000024A0349034802F049BB00BF00000020D6
:10126000F5110000780C0020BFF34F8F0549064BA5
:10127000CA6802F4E0621343CB60BFF34F8F00BF34
:10128000FDE700BF00ED00E00400FA05421E032A5E
:1012900070B5034633D91B48824230D833F8035C1B
:1012A00033F8052C5C1FD81E25F07F03B3F58F4F54
:1012B00024D0154B02EA0300B0F5704F1FD12B402C
:1012C000B3F5784F1BD1C2F38020C2F309060306A1
:1012D00043EA0633C5F30A0543EA450343EAC0532C
:1012E00043EA805308B143F07E43C1F12401214415
:1012F0000B44402B94BF20464FF0FF3070BD4FF0A1
:10130000FF30FBE7F05C000000F8FFFF2DE9F04143
:1013100098B06C4670462F49FFF7B8FF451C06D1C0
:101320002D492E4818B0BDE8F04100F061BA089090
:10133000EFF31483990721D4294D2A4EA54238BFD3
:1013400025466FF040470024B54220D20E2C1ED80F
:101350002868C20710D5C4B1E31918AA02EB8303A9
:1013600053F83C1CFFF792FF431C1FBF18AB03EB65
:101370008403013443F83C0C0435E5E7FFF736FC01
:101380000546FFF73BFC0646D8E70899EAE7164909
:101390001248DFF85880114F00F02AFA14490F481C
:1013A00000F026FA0134E4B208AE002556F8043BFA
:1013B000009342462B46132103A802F0EBF80135B7
:1013C00003A9384600F014FAEBB29C42EED8094962
:1013D000A7E700BF0D13000012570000800C00208B
:1013E000805D00200060002030570000655700003D
:1013F0004F5700007457000071461EF0040F0CBFD9
:10140000EFF30880EFF3098000F000B813B504464D
:10141000814800F010FA002800F0FC807F497E48E7
:1014200000F0E6F9A2697E497B4800F0E3F96269C1
:101430007C49794800F0DEF9D4E900237A497648FE
:1014400000F0D8F9D4E902237849734800F0D2F9C2
:1014500022697749704800F0CDF9E26975496E4814
:1014600000F0C8F9EFF30882EFF309837249734C77
:10147000694800F0BFF97249674800F0B9F9E26ABB
:101480007049654800F0B6F9E36A580003D56E4923
:10149000614800F0ADF9E36A002B03DA6B495E485E
:1014A00000F0A6F9654CE36A990703D568495A48E4
:1014B00000F09EF9A26A6749574800F09BF9A26ABA
:1014C000A36AA16A5448C9B20091C3F30723120C5E
:1014D000614900F08FF9A36A1A0604D5626B5F496F
:1014E0004D4800F087F9554CA36ADB0703D55C49EA
:1014F000494800F07DF9A36A980703D55949464841
:1015000000F076F94D4CA36A190703D556494248B5
:1015100000F06EF9A36ADA0603D554493E4800F09C
:1015200067F9464CA36A9B0603D551493A4800F037
:101530005FF9A36A180404D5A26B4E49364800F03F
:1015400059F93E4CA36AD90503D54B49324800F0FE
:101550004FF9A36A9A0503D548492F4800F048F986
:10156000364CA36A5B0503D545492B4800F040F98A
:10157000A36A180503D54349274800F039F92F4CD1
:10158000A36AD90403D54049234800F031F9A36A7E
:101590009A0403D53D49204800F02AF9274CA36A54
:1015A000DB0303D53A491C4800F022F9A36A9C03E7
:1015B00003D53849184800F01BF9204CA36A58039A
:1015C00003D53549144800F013F9A36A190303D56C
:1015D0003249114800F00CF9184CA36ADA0203D51D
:1015E0002F490D4800F004F9A36A9B0203D52D4949
:1015F000094800F0FDF8114C2B49626A064800F0DA
:10160000F9F8E36B23B1E26B2849034800F0F2F8E4
:10161000FFF77CFEFFF728FE800C002092570000A9
:10162000B9570000C7570000D5570000F057000019
:101630000B580000195800002758000000ED00E08A
:1016400043580000525800006258000091580000B2
:10165000A1580000BD580000CD580000FA58000005
:1016600024590000455900005F59000081590000CD
:10167000A1590000C6590000E95900000C5A0000A9
:10168000275A0000445A0000605A00007A5A0000AD
:10169000995A0000B35A0000CC5A0000EF5A0000DB
:1016A000025B0000175B00002A5B00003A5B000051
:1016B0007047000010B54FF08044104BD4F8002460
:1016C0001A60D4F80024D4F800340D481343C4F849
:1016D000003401F0CBFF01F0D9FF002001F0EEFF54
:1016E000D4F81834DB03FBD5064800234021C21888
:1016F00001331E2B82F80013F9D110BD7C0C0020A1
:10170000B116000000E100E01F280FD8114B53F87C
:10171000203003290AD8DFE801F002160A1003F589
:10172000E0734FF0A042002142F82310704703F508
:10173000E0734FF0A0420C21F6E703F5E0734FF0A1
:10174000A0420421F0E703F5E0734FF0A04203212B
:10175000EAE700BF445600001F280CD8064B53F898
:101760002020012393404FF0A04211B9C2F80C355C
:101770007047C2F808357047445600000020704793
:101780002DE9F04105460C468F180E46BE42A6EBE9
:10179000040807D02B6816F8011B9B682846984759
:1017A0000028F3D14046BDE8F08170B505460C46EF
:1017B000084649B103F020FF2B680246214628461F
:1017C000DB68BDE87040184770BD000008B50249ED
:1017D000FFF7EBFF08BD00BF615B000038B50546B1
:1017E000FFF7E3FF04462846FFF7F0FF204438BD2B
:1017F000FFF7F4BF0EB403B503A951F8040B019130
:1018000001F0DCFE02B05DF804EB03B07047036842
:1018100013229B6A184770470369D3F8000548B143
:101820000022C3F81C21C3F81C15D3F81C21002A80
:10183000FBD0012070470369D3F80005031F58420D
:10184000584170477047000090F95C30002B0DDB69
:101850005A09012103F01F0301FA03F320320F4953
:1018600041F82230BFF34F8FBFF36F8F036904221B
:10187000C3F8082301225A60DA600022C3F8002569
:101880004FF0FF32C3F80C251430C3F81425C3F809
:101890000825C3F8102501F0C2BF00BF00E100E039
:1018A000143001F0CEBF143001F0D1BF143001F07C
:1018B000BABF10B56421044601F0D6FE204610BD23
:1018C000026990F85E3030B5C2F80C3590F85D30A2
:1018D000C2F8143590F86130012B01BF90F85F40D9
:1018E000C2F8104590F86040C2F8084518BF0023C0
:1018F000B1F5966FC2F86C355FD9B1F5166F5FD947
:10190000B1F5965F5FD9B1F5165F5ED9B1F5615F4C
:101910005DD9B1F5964F5CD9B1F5E14F5BD9B1F521
:10192000164F5AD9B1F5614F5AD9B1F5963F5AD9E8
:10193000B1F5E13F59D9B1F5613F59D9344B9942DD
:1019400059D9B1F5E12F59D9B1F5612F94BF4FF0B5
:1019500070634FF0805390F95C40C2F82435002149
:101960000423C2F80035002CC2F80811C2F81C117B
:101970004FF0010111609160C2F8043390F85C30BF
:101980003FDB650903F01F0301FA03F3214A05F168
:10199000600142F821302244602382F8003390F93C
:1019A0005C30002B08DB0122590903F01F0302FA07
:1019B00003F3184A42F8213030BD4FF49E23CAE7A2
:1019C0004FF41D23C7E7144BC5E7144BC3E7144B73
:1019D000C1E7144BBFE7144BBDE74FF41D03BAE753
:1019E0004FF46B03B7E7114BB5E74FF0EB73B2E77A
:1019F0004FF06C73AFE74FF08063ACE74FF0E863F4
:101A0000A9E70B4A03F00F031A4460231376C6E7D5
:101A100090D0030000E100E000B013000050270068
:101A200000F03A0000A04E0000C0750000903A019E
:101A3000FCEC00E008B5044B2BB1044801F001FFB9
:101A400008B1AFF3008008BD00000000940C002036
:101A50002DE9F04100251E464FF47A73C0E9015389
:101A60000E4B03600446056114301746884601F0AA
:101A7000C0FE0B4BC4F8108053F8262084F85D207C
:101A80009DF8182084F85C7053F8223084F85E309A
:101A900084F861502046BDE8F08100BF6C5B000017
:101AA000445600000369D3F8082110B504464AB132
:101AB000D3F818151430C9B201F0A6FE236900222C
:101AC000C3F8082110BD00000148FFF7EBBF00BFBD
:101AD000800C002013B5084C084901230093022212
:101AE00000232046FFF7B4FF054A0649204602B00E
:101AF000BDE8104001F0FABE800C0020002000403C
:101B0000000000204518000010B50F4B1A461B6856
:101B10008342FBD354681119884201BF41681046C3
:101B200009195160446801198B4207D107490968B6
:101B30008B421FBF59681B680919416090420360BE
:101B400018BF106010BD00BFFC0C0020E40C00208A
:101B50002DE9F041394E0446FEF794FD33683848CC
:101B600003BB3849384B0A465B1A510705D0D11DD3
:101B700021F0070113445B1A0A461344334D083B16
:101B800023F00703002169602A60C3E90011991A54
:101B9000C2E9003133602E4B19602E4B19604FF0B3
:101BA00000430360D0F8008018EA040F07D0FEF766
:101BB000F7FDFFF733FB00263046BDE8F081631EDA
:101BC0000A33F4D8620704F1080305D023F00702B2
:101BD00008329A42EBD913461E4F3D689D42E6D328
:101BE0001A4A14686068984201D2216819BB3168AA
:101BF000A142DCD0216816681160C21A102A06F1D1
:101C0000080604D9E01842606360FFF77DFF104AC0
:101C100063681168ED1A8D4238BF156048EA030306
:101C20000D4A63600023236013683D600133136035
:101C3000FEF7B6FDC0E722460C46D3E7E40C0020D1
:101C4000E80C0020A0130020805D0020FC0C002088
:101C5000F00C0020EC0C0020F40C002010B5044621
:101C600000B3114A50F8043C126813421AD050F8DD
:101C7000081CB9B923EA020340F8043CFEF702FD50
:101C80000A4A54F8043C1168A4F108000B4413609C
:101C9000FFF73AFF064A1368BDE8104001331360AE
:101CA000FEF77EBD10BD00BFE80C0020EC0C00204C
:101CB000F80C002000F108034FF0FF32C0E90223C6
:101CC0004360036100230360704700230361704792
:101CD00043684B609A688A609A68516099600368AB
:101CE000086101330360704730B50C68631C0AD18A
:101CF00003695A684A6091608B60596003680861A3
:101D00000133036030BD00F10802134652681568C4
:101D1000A542FAD9EDE7D0E9011203698A60516062
:101D20005968814208BF5A60002202611A68013A6C
:101D30001A601868704772B6FEE700004FF08073B3
:101D400040E90213054B40F80C3C6FF0020340F8E9
:101D5000202C40F8243C4438704700BF371D000059
:101D60000B4C08B5E02384F8223000F067F8094BEB
:101D700000221A60D4F8883043F47003C4F8883025
:101D8000236943F01003236101F06AFD72B6FEE798
:101D900000ED00E0040D002072B6024A1368013322
:101DA00013607047040D0020034A1368013B136061
:101DB00003B962B6704700BF040D0020EFF3108036
:101DC00072B6704780F3108870470000F7B5194D60
:101DD0000027C5F84071D5F840310193019BFFF70A
:101DE000EDFFD5F80445C5F80071D5F80031009332
:101DF000009B0646FEF74EFC231A23F07F4424F096
:101E0000010323B1FEF7AEFE022818BF012400250E
:101E1000013C0BD225B1084B4FF080525A6040BFB5
:101E2000304603B0BDE8F040FFF7CCBFFEF740FC02
:101E30000543EDE70010014000ED00E0094B1F22D3
:101E4000C3F808250122C3F804239A601A6002220D
:101E5000C3F84423044BE02283F811234FF40032EB
:101E60001A6070470010014000E100E07FB50546B0
:101E700072B6284CD4F80465FEF738FE002845D029
:101E8000254BAB4228BF2B46F21822F07F4201219E
:101E9000C4F80813C4F840250022C4F84021D4F83F
:101EA00040210192019A4FF48032C4F80423BFF319
:101EB0004F8F3DB1194A20BFD2F80001D2F804116A
:101EC0000143F8D04FF48032C4F808230022C4F84C
:101ED0004021D4F8401103910399C4F80021D4F8AB
:101EE00000210292029A0122C4F80423D4F80405C6
:101EF0000A4A801B20F07F4098424FF4003128BFEF
:101F00001846C2F8801108B1FEF7CAFB62B604B0E9
:101F100070BD00BF00100140FDFFFF0000E100E0C8
:101F200010B50446FFF738FFA46BFFF73DFFB4FA86
:101F300084F0400910BDF8B51546026C866B044666
:101F400052B9076847BB8068FEF71CFEA7600546CC
:101F50000136A6632846F8BD65B9406803F0F2FA79
:101F60006368226C1344A26863609342F0D32368D1
:101F70006360EDE7C06803F0E5FA226CE368514264
:101F80009B1A2268E36093423EBFA3685B18E3603C
:101F9000022D01D116B1013E0025D9E73546D7E71C
:101FA000034610B41A6C084662B1DC6899681444A0
:101FB0008C4228BF1968DC6028BFD960D96810BC82
:101FC00003F0C0BA10BC704770B50446FFF7E4FEDA
:101FD00094F8455004F124066DB2002D14DCFF2363
:101FE00084F84530FFF7E0FEFFF7D6FE94F8445042
:101FF00004F110066DB2002D12DCFF2384F844308A
:10200000BDE87040FFF7D0BE636A002BE7D03046D2
:10201000FEF7F6FC08B1FEF763FD013D6DB2DCE7AB
:102020002369002BE9D03046FEF7EAFC08B1FEF741
:1020300057FD013D6DB2DEE738B504460D46FFF7AA
:10204000ABFED4E90F31226862604B43D0185B1AB3
:102050001344A060E3600020FF23A06384F84430B1
:1020600084F845309DB923696BB104F11000FEF787
:10207000C7FC40B10A4B4FF080525A6040BFBFF3DB
:102080004F8FBFF36F8FFFF78FFE012038BD04F134
:102090001000FFF70FFE04F12400FFF70BFEF2E73C
:1020A00000ED00E038B50D461C465BB10121002D66
:1020B00008BF1A46C3E90F0583F846101A60184690
:1020C000FFF7BAFF204638BD2DE9FF474FF0000863
:1020D000DFF8F8A0019204460F461E46C146FFF7FE
:1020E0005BFEA26BE36B9A4201D3022E1AD13246F9
:1020F00039462046FFF71FFF636A1BB104F1240035
:10210000FEF77EFC40B1314B4FF080525A6040BF29
:10211000BFF34F8FBFF36F8FFFF746FE012004B070
:10212000BDE8F087019D1DB9FFF73EFE0020F6E7F0
:10213000B8F1000F02D102A8FEF79EFCFFF734FEB3
:10214000FEF7A0FAFFF728FE94F84430FF2B08BFF3
:1021500084F8449094F84530FF2B08BF84F84590EC
:10216000FFF722FE01A902A8FEF792FC38BBFFF799
:1021700013FEA26BE36B9A420FD1FFF715FE019994
:1021800004F11000FEF718FC2046FFF71DFFFEF7D4
:1021900007FB50B14FF00108A1E7FFF705FE20460D
:1021A000FFF712FFFEF7FCFAF4E74FF08053CAF88E
:1021B000043040BFBFF34F8FBFF36F8FEAE7204675
:1021C000FFF702FFFEF7ECFAB0E700BF00ED00E01A
:1021D0002DE9F8430446174698468946FFF7EEFD79
:1021E000A26BE36B9A42064602D3B8F1020F23D1E9
:1021F00094F84550A36B6DB2424649462046FFF71E
:102200009AFE6B1C13D1636A0BB9012409E004F137
:102210002400FEF7F5FB0028F7D0002FF5D00124AD
:102220003C603046FFF7CEFD2046BDE8F88301351F
:102230006DB284F84550E8E70024F2E72DE9F04359
:1022400085B00027DFF8E490019204460E46B846B8
:10225000FFF7A2FDA56BDDB131462046013DFFF73A
:102260009FFEA56323696BB104F11000FEF7C8FB64
:1022700040B12E4B4FF080525A6040BFBFF34F8F9A
:10228000BFF36F8FFFF790FD012005B0BDE8F0832D
:10229000019D1DB9FFF788FD0020F6E717B902A8D8
:1022A000FEF7EAFBFFF780FDFEF7ECF9FFF774FDA0
:1022B00094F84430FF2B08BF84F8448094F84530EC
:1022C000FF2B08BF84F84580FFF76EFD01A902A827
:1022D000FEF7DEFBF8B92046FFF722FEA8B1019910
:1022E00004F12400FEF768FB2046FFF76DFEFEF7C1
:1022F00057FA40B94FF08053C9F8043040BFBFF3DC
:102300004F8FBFF36F8F0127A2E72046FFF75CFED8
:10231000FEF746FAF7E72046FFF756FEFEF740FACB
:102320002046FFF7FDFD0028EDD0B5E700ED00E009
:1023300070B504460D461646FFF72EFD94F844305E
:10234000FF2B04BF002384F8443094F84530FF2B62
:1023500004BF002384F84530FFF726FDA36B2BB99B
:102360003246294604F12400FEF736FB2046BDE83C
:102370007040FFF729BE0000034B0360034B0B6066
:1023800078231360704700BFE8120020080D00207A
:10239000034B0360034B0B604FF480731360704773
:1023A00038130020E80E00209A4238BF8854704746
:1023B00070472DE9F84F99460D9B15469A07DDE9C0
:1023C0000B4706468B4622D02A460A9901EB0408A1
:1023D0001444A2421FD10D9B9B0705D5A2EB050813
:1023E000474505EB08041FD82046BDE8F88F4B464B
:1023F00059462020B04708F10108B8450AEB080209
:10240000F5D33A1BBC4288BF00222A44DDE7A04630
:10241000A5EB040AF1E702F1010A18F8010D4B4699
:102420005946B0475246D4E74B46224659462020EB
:10243000B04708F10108D3E72DE9F04F93B0DDE98B
:102440001C989B469DF87830059359EA0803CDE91E
:102450000601DDE921749DF87C60089220D16005B9
:1024600018D430238DF8283024F010040125A1075A
:1024700000F1938004F0010247B1002A00F08D8042
:10248000059B13B914F00C0F00D0013F2B460AA98D
:1024900030202BE0102E01D124F010040025E6E7B7
:1024A00014F0200F14BF412361230A3B0DF1280AC9
:1024B00000250993324600234846414601F00AFFB1
:1024C000D2B2092A8ABF099B3032D218B145D2B2A2
:1024D00078F100030AF8012B05F10105C7D3202D7F
:1024E000C5D081468846E5E7585401331AB19F426A
:1024F00001D9202BF8D10AA9302201E0CA540133B6
:102500002098984201D9202BF8D1082E03D19D4262
:1025100038BF24F0100441F21002144225D06205A5
:102520003ED4002B3CD0209A9A4201D09F4237D112
:102530009D4235D25A1E32D0102E36D1954232D21B
:10254000023BA5063BD41F2B1AD803F148026A446C
:10255000782002F8200C01331F2B11D803F1480218
:102560006A44302002F8200C01331F2B08D8059A4A
:1025700062B303F148026A442D2002F8200C0133B3
:10258000CDE90013CDE90274DDE9071206985B4638
:10259000FFF70FFF13B0BDE8F08F2B46ABE71346F4
:1025A000102E03D1CDE71346CBE71346022ED3D12D
:1025B0001F2BE5D803F148026A446220C9E71F2BAC
:1025C000DED803F148026A445820C2E7600704D508
:1025D00003F148026A442B20CFE72207D0D503F14C
:1025E00048026A442020C8E72DE9F04F85B09B4699
:1025F000DB0F18BF0BF1004B0292074659460298B9
:10260000039301F07FFE0E9A3C4B03EBC203D3E928
:1026100000340546CDE900348A4601F0FBFA024653
:102620000B460298594601F06BF9DDE9002301F0F1
:102630001FFB8046894601F065FE04460E4601F008
:10264000E9FA02460B464046494601F059F92C4B3F
:1026500000228046894601F09BFD00283CD00134D1
:1026600046F100062046314601F0D4FA02460B46F8
:10267000DDE9000101F078FD28B101354FF00004DB
:102680004AF1000A26460E9BE3B92846514601F05E
:10269000C1FA02460B460298594601F031F9184B2F
:1026A00000228046894601F055FD30B1144B0022CE
:1026B0004046494601F06CFD20B1EB0702D50135DB
:1026C0004AF1000A039B3B743846C7E9005AC7E940
:1026D000024605B0BDE8F08F094B0022404649464E
:1026E00001F02EFD0028CED054EA060301D0E20707
:1026F000C9D5013446F10006C5E700BFC05B000044
:102700000000E03F08B100F067BF70472DE9F04FCF
:1027100089B01D469DF848300393139B0493149B86
:102720000593159B0693169B0793DDE91783DDE957
:1027300019971B9C019382468B461646B8F1000FF1
:1027400049D009F40163B3F5006F40F09280012A8B
:1027500075F1000347DB0A2200233046294601F0C9
:1027600069FD134340F08280304629460A22002347
:1027700001F060FD08F1FF3806460D46EBE73046F4
:1027800029460A22002301F055FD029B303203F84E
:10279000012B30460293294600230A2201F04AFD0C
:1027A00051EA000308F1FF3804F1010406460D4622
:1027B00061D1A0443B1907EB08023021202C5CD0EA
:1027C0009A4204F1010403D12E2307F808300AE0ED
:1027D00003F8011BF2E719F0100F04D0202C4CD0A5
:1027E0002E233B5501343D1915E0504659460A2227
:1027F000002301F01FFD303205F8012B0023504665
:1028000059460A2201F016FD51EA000304F10104C1
:1028100082468B4632D0202CE7D12EE03B55013446
:10282000019AA24210D9202CF8D1019BCDF85490E6
:10283000CDE91343DDE90401DDE90623129709B070
:10284000BDE8F04FFFF7B5BD202CEED0039B1BB1C8
:102850002D233B550134E8E719F0040F01D02B2359
:10286000F7E719F0080FE0D02023F2E756EA050356
:10287000B9D03B190293202C81D1202409F0030305
:10288000012BE1D1019B002BDED0039B13B919F082
:102890000C0F02D0019B013B01933023C0E782B0B3
:1028A0002DE9F8439DF8285008A981E80C0004465A
:1028B0001146DDE90C061F463DB102463346084687
:1028C000394601F0D5F9012316E0C3F30A52A2F20A
:1028D000FF32C6F30A53A3F2FF33002AB8BF5242B5
:1028E000002BB8BF5B429A420EDD024633460846D3
:1028F000394601F0E7FA2B46C4E90001237220466D
:10290000BDE8F84302B070470A463B46314601F045
:10291000D9FAD8E7000000002DE9F04F9FB0CDE9CB
:102920000F32DDF8A4B0289B0A935FEADB731193A2
:102930001CBF0BF100439B46CDE90D0100220A9814
:102940000023594601F0FCFB00258246002840F098
:10295000DC80CBF30A50A0F2FF3001F01FF9B8A3DE
:10296000D3E9002301F084F9B7A3D3E9002300F0F1
:10297000C9FF0A9FBE4BCBF313060D4646F07F51AD
:1029800004460022384641F4401100F0B9FFB0A3DC
:10299000D3E9002301F06CF902460B462046294694
:1029A00000F0B0FF01F0FEFB044601F0F7F8AAA327
:1029B000D3E9002306460F4601F05AF9AD4B002239
:1029C00000F0A0FF01F0EEFBA5A3D3E9002305462C
:1029D0003946304601F04CF9064628460F4601F0CC
:1029E000DDF8A1A3D3E9002301F042F902460B462A
:1029F0003046394600F084FF02460B4606460F4635
:102A000001F036F93246804689463B463046394623
:102A100000F078FF984BCDE912010022404649466C
:102A200001F050FA954B002200F06CFF02460B4675
:102A30004046494601F046FA914B002200F062FF01
:102A400002460B464046494601F03CFA3246804673
:102A500089463B4600204FF0804100F051FF02467E
:102A60000B464046494600F04DFF02460B46DDE965
:102A7000120101F027FA05F2FF35824B002200F027
:102A800041FF2B05524601F0F3F80A9A5B46804657
:102A9000894601F07DFB40B140464946774B002214
:102AA00001F010FA013C8046894604F11103222B03
:102AB00094BF0125002508D8734B84EAE472A2EB89
:102AC000E47203EBC203D3E900892C9B190540F1A2
:102AD0009A812A9B221D03F1FF3318DB2A9A012ACF
:102AE00038BF0122944212DA1B1B012723EAE37349
:102AF0002A932C9B002C43F480632C9309DA002D3D
:102B000040F07D8100263FB932E00024DDE7002758
:102B1000ECE70FB95CBB2746119B13B10BF10043E7
:102B20009B462A9B00930A9A5B4618A8FFF75CFD18
:102B30009DF870301193DDE91AB6DDE9185A002FBF
:102B400040F0DA800A2D7AF1000305DB4FF0000B2C
:102B500001345E460125DA4604F16303C72B4FF0CA
:102B6000000734BF4FF004084FF00508DFE00026EF
:102B7000CDE914890A988DF8586042464B4659466B
:102B8000002E50D001F074F801F0BCFB05468A46D7
:102B900001F040F802460B46002E47D042464B4615
:102BA00001F090F902460B460A98594600F0A8FE3B
:102BB0002A9A354B03EBC203D3E9002306460F469E
:102BC000DDE91601CDE90A238DE80300CDE90223F2
:102BD00018A8DDE91423FFF762FE9DF86810DDE90F
:102BE0001823304639B3394601F042F82A9B804613
:102BF0008946002B4AD11F4B002201F0BFFA003852
:102C000018BF012045191B4B4FF0000240464946B2
:102C10004AF1000A01F094FA08B125F001054FF0DD
:102C2000000B5E468EE701F04DF9ADE740464946A0
:102C300001F01EF8B6E7394601F044F9D6E700BFC7
:102C4000FB799F501344D33FB3C8608B288AC63F9B
:102C500061436F63A787D23F71A379094F930A40FD
:102C60001655B5BBB16B0240EF39FAFE422EE63F76
:102C70000000F83F0000E03F00002C40000024402E
:102C8000000018400000F03FC05B000001F03AFB7C
:102C900007460E4600F0BEFF02460B464046494638
:102CA00000F02EFE5B4B00228046894601F066FA5A
:102CB000B0F1000B18BF4FF0010B1BEB070B554B8E
:102CC0004FF000024046494646F1000601F038FA4E
:102CD00008B12BF0010B5846314600F09BFF02462D
:102CE0000B46DDE90A0101F03FFA00283FF42AAF64
:102CF00001354AF1000A92E72C9B13F4006816D0C4
:102D0000631C12DB2846514600F084FF424B04F15D
:102D1000010903EBC903D3E9002301F011FA0028EC
:102D200062D02A9B013B2A934C464FF000082C9B13
:102D300013F0020902D0B8F1000F57D12B9B984530
:102D400054D2A3EB08032E9A09922D9A08922C9A3A
:102D5000CDE906322A9B05930F9B0493109B0393A6
:102D60000E9B02930D9B0193119B00935A46334691
:102D700028465146FFF7CAFC02468FBB2C9B0D9E8E
:102D800013F0200F00F10105DDE90E1314BF4520FB
:102D90006520B047002C23464FEAE47202DC634210
:102DA00062EB4202052108F1FF30069105900A21ED
:102DB0000020E40FCDE90032CDE903102A46DDE919
:102DC0000D010F9B0294FFF737FB0246B9F1000F8C
:102DD00006D0109BC41A109B1A192B9BA34207D82C
:102DE00010461FB0BDE8F08F8046A0E70023AAE799
:102DF000DDE90E130D9D2020A8470134EBE70126E5
:102E000081E60126B4E6002CBFF684AE002DF8D191
:102E10002F4677E60000E03FC05B000000000000A6
:102E20002DE9F04F9DB0DDE926AB1F46289B0B93A3
:102E3000299B0C939DF8AC300D9304460D46164625
:102E40005B46524650465946DDF8A89001F078F9A5
:102E500080B90C9B289303232793534BCDF8A49060
:102E6000269332463B46294620461DB0BDE8F04F2A
:102E7000FFF79FBA4FF0FF326FF480135046594668
:102E800001F068F938B10C9B289304232793CDF8FF
:102E9000A490464BE4E7464B4FF0FF32504659466C
:102EA00001F076F978B1434A0C99CDF8A49009F075
:102EB0000403002B08BF03223F4B1CBF1346042210
:102EC000CDE92721CCE70D9B1BBB33A3D3E900231E
:102ED0005046594601F05CF938B931A3D3E90023D3
:102EE0005046594601F036F998B10023069314ABC9
:102EF000CDE904930C9B03930B9B0293CDE900ABAC
:102F00003B46324629462046FFF706FD1DB0BDE888
:102F1000F08F19F4806F0B9B08BF06230B930B9A5D
:102F2000DDF82C8014AB203A30200B99B8F1110F4A
:102F3000A1EB080106D908F1FF38904503F8010B11
:102F4000F3D120210D9B3BB114ABCDE904930C9B35
:102F50000691CDE90283D1E752465B460EA8CDF833
:102F600000800B91FFF740FB14ABCDE907930C9B5E
:102F70000B990991CDE905839DF848300093CDE97F
:102F80000367CDE90145DDE91023DDE90E01FFF717
:102F9000BDFBBBE7AFF300800000000065CDCD4175
:102FA0000000000065CDCDC1A95B0000AD5B000055
:102FB000FFFFEF7FA45B0000A05B00002DE9F04F56
:102FC0008FB0B1F1000BDDF86090B34F0893164657
:102FD00018BF07460024089B187860B9B4422CBF7C
:102FE00006F1FF322246334659460020B8472046B4
:102FF0000FB0BDE8F08F089B252803F1010308936B
:1030000006D02246651C33465946B8472C46E2E7AF
:10301000002206E02D2B16D0302B0CD142F00102FD
:103020000890089810F8013B2B2B0FD0F2D8202BDA
:103030000FD0232B10D0A3F13005092D2ED8002559
:103040004FF00A0C0FE042F00202E9E742F00402FE
:10305000E6E742F00802E3E742F01002E0E70CFB8B
:103060000535303D0890089810F8013BA3F1300E6B
:10307000BEF1090FF3D9089B1B782E2B61D1089B59
:10308000581C5B78A3F1300CBCF1090F42F480624C
:103090004ED84FF000084FF00A0A11E02A2B08D151
:1030A00059F8045B0890002DBCBF42F002026D424B
:1030B000E1E70025DFE70AFB0838A8F130086046A1
:1030C00084461CF8013BA3F1300EBEF1090FF2D982
:1030D000034613F801CBBCF16C0F3FD035D8BCF1DF
:1030E000680F44D0BCF16A0F4CD0034613F8010BB3
:1030F0000893782885D8572847D8452806D080D9FE
:10310000462800F0368147287FF47BAF00F0DF03CC
:10311000472B04BF00F0FD0042F4006209F10709EB
:10312000452808BF42F0200229F00709012327E1C2
:103130002A2B07D159F8043B089823EAE378023098
:10314000C6E708984FF00008C2E7BCF1740F02D040
:10315000BCF17A0FC9D142F48072C7E790F801C080
:10316000BCF16C0FF7D142F44072831CBEE790F8BB
:1031700001C0BCF1680F02D042F08002B6E742F015
:10318000C002F2E742F40072B0E7A0F15803202B2E
:103190003FF637AF01A151F823F000BF2132000004
:1031A0000330000003300000033000000330000053
:1031B0000330000003300000033000000330000043
:1031C0000330000021320000A13300002132000052
:1031D0000D310000773300000D3100000330000096
:1031E00021320000033000000330000003300000F3
:1031F00003300000033000002132000019350000C8
:1032000003300000033000001F34000003300000D2
:1032100021320000033000000330000021320000A2
:10322000782800F0A981582800F0A4816F2800F0C8
:10323000A681622800F0A681692822F010024FF0D2
:103240000A0C03D0642801D022F00C02530548BFB9
:1032500022F00102692802F4007301D0642857D1DA
:10326000E3B109F1070929F00709CA46D9F80400B2
:103270005AF8083B012B70F100010BDA5B4260EB5E
:103280004001CDE90552CDE903C8C00F029000937B
:10329000019116E00146F4E7B1230000D00509F1E1
:1032A000040A1BD5D9F80030002B4FEAE37011DD7A
:1032B0001946CDE90552CDE903C8CDE90010DB0F71
:1032C00002932246334659463846FFF7B5F8D146B1
:1032D000044680E6594260EB4000EAE712F0400FF6
:1032E000D9F8003010D05BB2002B18464FEAE371DA
:1032F00002DC584261EB4101DB0FCDE90552CDE91B
:1033000003C802930090C3E7110648BF1BB2EBE766
:1033100073B1CDE90552CDE903C8002309F10709CE
:1033200029F0070A0293FAE80223CDE90023C8E74F
:10333000D00509F1040A09D5CDE90552CDE903C844
:103340000293D9F80020CDE90023BAE712F0400F2C
:10335000D9F8003009D0DBB2CDE905520022CDE921
:1033600003C8CDE900320292ABE7110648BF9BB219
:10337000F2E742F0200209F1070929F007090023CA
:10338000CDE90423CDE90285F9E802235946CDE9C8
:103390000023384633462246FFF742FD04461AE62C
:1033A00012F00203099325D04FF0010A59F8040BDB
:1033B000334622465946C0B2B847099B04F101087A
:1033C0005BB35446424620E0334659462020B84776
:1033D00004EB0A020AF1010AAA45F5D3002D05F112
:1033E000FF3308BF002305F1010A1C4408BF4FF05A
:1033F000020ADBE7DDF824A0EAE7531C09935946EB
:1034000033462020B847099A0134AC42F5D3A5EBE6
:103410000A03554538BF002398444446DBE54B4634
:1034200053F804AB0993BAF1000F0FD106230193AF
:10343000564B0093CDE90252334622465946384650
:10344000FEF7B7FF0446DDF82490C4E5B8F1000F9D
:1034500014BF43464FF0FF335344D14699F8000060
:1034600008B1994511D112F48063A9EB0A090A93B6
:1034700002D0C14528BFC14612F002030B931BD1F5
:10348000A9EB040322460D9309E009F10109E5E7E0
:10349000531C0C93594633462020B8470C9A0D9B79
:1034A000D3189D42F4D8A5EB09034D4538BF00233E
:1034B00009F101091C449944A4EB0A030C9304E0AC
:1034C0009846334622465946B8470C9B03EB0A04FC
:1034D0001AF8010B38B10A9B002BF2D008F1FF3328
:1034E000B8F1000FECD10B9B002BACD02246A9EB1E
:1034F000040806E002F1010A334659462020B84785
:10350000524602EB08039D42F4D8A5EB09034D4552
:1035100038BF00231C4496E7D9F8000042F48052DB
:1035200042F001020A2370B9CDE90232052301936A
:10353000174B0093224633465946384609F1040991
:10354000FEF737FF2AE7CDE9053200231022CDE947
:103550000232CDF81080D9F804205946CDE9002375
:10356000384622463346FEF767FF09F10805044650
:10357000A94630E542F020024FF0100C64E64FF00F
:10358000080C61E64FF0020C5EE600BFB25B000083
:10359000B95B00000CB41FB506AC0A4654F8043BF6
:1035A0000094014604480394FFF708FD04B0BDE809
:1035B000104002B0704700BFA92300001FB50346AA
:1035C00000914FF0FF3203A90248FFF7F7FC05B066
:1035D0005DF804FB05270000002138B505460846C4
:1035E000FDF7B2FA044658B9842000F07DF904468C
:1035F00060B30021C0F8801002460846FDF798FA33
:103600000A2D0CD1D4F8803023B1E21812F8012C25
:103610000D2A04D05A1CC4F880200D22E254D4F89C
:1036200080307E2B9EBF5A1CC4F88020E554D4F80D
:1036300080207E2A02D80A2D07D132B109482146BE
:10364000FEF79EF80023C4F8803038BD0A2D03D160
:1036500004480D21FEF7E0F829460248BDE838404D
:10366000FEF7DAB8800C0020FEF7F8BA044B1A799E
:1036700022B9012218609A800248704702487047B8
:10368000881300200000AD0B0C00AD0B094B1A682D
:10369000D20706D4E02283F800230122C3F8802158
:1036A0001A604FF080420123C2F81835024A1370A5
:1036B000704700BF00E100E09013002082B018B115
:1036C00001280FD002B070474FF08043C3F80401C7
:1036D000D3F804210092009A0222C3F804230122A5
:1036E0009A60EFE74FF080430022C3F80021D3F83F
:1036F00000210192019AC3F804031860E2E7000078
:103700004FF0804307B5D3F800217AB10022C3F807
:103710000021D3F800210092009A0122C3F8082367
:103720000F4B587910B95A711B6898474FF0804376
:10373000D3F8042182B10022C3F80421D3F8042174
:103740000192019A0222C3F80823054B1B6801204D
:1037500003B05DF804EB184703B05DF804FB00BF4D
:10376000881300201FB54FF08043D3F8044361074E
:103770000CD5D3F808214AB10022C3F80821D3F8A8
:1037800008310193019B154B1B689847A2060ED583
:103790004FF08043D3F814214AB10020C3F814013C
:1037A000D3F814310293029B0D4B1B6898476306B4
:1037B00012D54FF08043D3F818216AB10022C3F824
:1037C0001821D3F818310393039B054B1B68012084
:1037D00004B0BDE81040184704B010BD9413002099
:1037E0009813002008B5FFF7BDFFBDE80840FFF7BC
:1037F00087BF10B540220021044601F0B1FE00232E
:10380000C4E91033204610BD026C10B5531C446C43
:1038100003F03F039C421CBF8154036410BD00238E
:10382000C0E910337047D0E9102393421FBFC25C38
:10383000013303F03F03436414BF10464FF0FF30E1
:103840007047D0E91030181A48BF40307047D0E9AF
:103850001023934214BFC05C4FF0FF30704700004C
:103860000548006880F3088862B661B6BFF34F8FE1
:10387000BFF36F8F00DF00BF00000000064B196828
:103880000868B0E8F04F80F30988BFF36F8F4FF0FE
:10389000000080F3118870479C000020EFF309803E
:1038A000BFF36F8F0F4B1A6820E9F04F10604DF88F
:1038B000043D4FF0400080F31188BFF34F8FBFF3FA
:1038C0006F8FFDF733F84FF0000080F3118808BCCC
:1038D00019680868B0E8F04F80F30988BFF36F8F6C
:1038E000704700BF9C000020FEF732B90B4601462E
:1038F000184601F0E1BD000081F0004102E000BF88
:1039000083F0004330B54FEA41044FEA430594EA9F
:10391000050F08BF90EA020F1FBF54EA000C55EADA
:10392000020C7FEA645C7FEA655C00F0E2804FEAAB
:103930005454D4EB5555B8BF6D420CDD2C4480EA8D
:10394000020281EA030382EA000083EA010180EABD
:10395000020281EA0303362D88BF30BD11F0004F0B
:103960004FEA01314FF4801C4CEA113102D0404241
:1039700061EB410113F0004F4FEA03334CEA13337C
:1039800002D0524263EB430394EA050F00F0A78094
:10399000A4F10104D5F1200E0DDB02FA0EFC22FA8F
:1039A00005F2801841F1000103FA0EF2801843FA83
:1039B00005F359410EE0A5F120050EF1200E012A74
:1039C00003FA0EFC28BF4CF0020C43FA05F3C018B2
:1039D00051EBE37101F0004507D54FF0000EDCF12B
:1039E000000C7EEB00006EEB0101B1F5801F1BD3D4
:1039F000B1F5001F0CD349085FEA30004FEA3C0CD8
:103A000004F101044FEA445212F5800F80F09A80CD
:103A1000BCF1004F08BF5FEA500C50F1000041EBD1
:103A2000045141EA050130BD5FEA4C0C404141EBD5
:103A30000101013C28BFB1F5801FE9D291F0000FD0
:103A400004BF01460020B1FA81F308BF2033A3F17F
:103A50000B03B3F120020CDA0C3208DD02F1140C76
:103A6000C2F10C0201FA0CF021FA02F10CE002F1B1
:103A70001402D8BFC2F1200C01FA02F120FA0CFCAA
:103A8000DCBF41EA0C019040E41AA2BF01EB0451F3
:103A9000294330BD6FEA04041F3C1CDA0C340EDCF1
:103AA00004F11404C4F1200220FA04F001FA02F334
:103AB00040EA030021FA04F345EA030130BDC4F1F2
:103AC0000C04C4F1200220FA02F001FA04F340EAE7
:103AD0000300294630BD21FA04F0294630BD94F098
:103AE000000F83F4801306BF81F480110134013D7F
:103AF0004EE77FEA645C18BF7FEA655C29D094EAF0
:103B0000050F08BF90EA020F05D054EA000C04BF6D
:103B10001946104630BD91EA030F1EBF0021002058
:103B200030BD5FEA545C05D14000494128BF41F0F7
:103B3000004130BD14F580043CBF01F5801130BD5B
:103B400001F0004545F0FE4141F470014FF00000E6
:103B500030BD7FEA645C1ABF194610467FEA655C97
:103B60001CBF0B46024650EA013406BF52EA033539
:103B700091EA030F41F4002130BD00BF90F0000F27
:103B800004BF0021704730B54FF4806404F1320463
:103B90004FF000054FF0000150E700BF90F0000F1C
:103BA00004BF0021704730B54FF4806404F1320443
:103BB00010F0004548BF40424FF000013EE700BF13
:103BC00042004FEAE2014FEA31014FEA02701FBFA3
:103BD00012F07F4393F07F4F81F06051704732F0D5
:103BE0007F4208BF704793F07F4F04BF41F400212C
:103BF000704730B54FF4607401F0004521F000418A
:103C00001CE700BF50EA010208BF704730B54FF013
:103C100000050AE050EA010208BF704730B511F014
:103C2000004502D5404261EB41014FF4806404F14C
:103C300032045FEA915C3FF4D8AE4FF003025FEAD2
:103C4000DC0C18BF03325FEADC0C18BF033202EB56
:103C5000DC02C2F1200300FA03FC20FA02F001FAB0
:103C600003FE40EA0E0021FA02F11444BDE600BF53
:103C700070B54FF0FF0C4CF4E06C1CEA11541DBF02
:103C80001CEA135594EA0C0F95EA0C0F00F0DEF8CD
:103C90002C4481EA030621EA4C5123EA4C5350EAB2
:103CA000013518BF52EA033541F4801143F4801303
:103CB00038D0A0FB02CE4FF00005E1FB02E506F094
:103CC0000042E0FB03E54FF00006E1FB03569CF0E9
:103CD000000F18BF4EF0010EA4F1FF04B6F5007FEF
:103CE00064F5407404D25FEA4E0E6D4146EB060661
:103CF00042EAC62141EA55514FEAC52040EA5E50EA
:103D00004FEACE2EB4F1FD0C88BFBCF5E06F1ED893
:103D1000BEF1004F08BF5FEA500E50F1000041EBCA
:103D2000045170BD06F0004646EA010140EA020077
:103D300081EA0301B4EB5C04C2BFD4EB0C0541EA99
:103D4000045170BD41F480114FF0000E013C00F3AE
:103D5000AB8014F1360FDEBF002001F0004170BDD2
:103D6000C4F10004203C35DA0C341BDC04F11404EB
:103D7000C4F1200500FA05F320FA04F001FA05F277
:103D800040EA020001F0004221F0004110EBD37044
:103D900021FA04F642EB06015EEA430E08BF20EA70
:103DA000D37070BDC4F10C04C4F1200500FA04F313
:103DB00020FA05F001FA04F240EA020001F00041A5
:103DC00010EBD37041F100015EEA430E08BF20EA18
:103DD000D37070BDC4F1200500FA05F24EEA020E60
:103DE00020FA04F301FA05F243EA020321FA04F08F
:103DF00001F0004121FA04F220EA020000EBD37046
:103E00005EEA430E08BF20EAD37070BD94F0000F45
:103E10000FD101F00046400041EB010111F4801F79
:103E200008BF013CF7D041EA060195F0000F18BF2A
:103E3000704703F00046520043EB030313F4801F66
:103E400008BF013DF7D043EA0603704794EA0C0F20
:103E50000CEA135518BF95EA0C0F0CD050EA410636
:103E600018BF52EA4306D1D181EA030101F00041B3
:103E70004FF0000070BD50EA410606BF10461946DB
:103E800052EA430619D094EA0C0F02D150EA0136E7
:103E900013D195EA0C0F05D152EA03361CBF104628
:103EA00019460AD181EA030101F0004141F0FE41C7
:103EB00041F470014FF0000070BD41F0FE4141F44B
:103EC000780170BD70B54FF0FF0C4CF4E06C1CEA4B
:103ED00011541DBF1CEA135594EA0C0F95EA0C0F00
:103EE00000F0A7F8A4EB050481EA030E52EA0335BB
:103EF0004FEA013100F088804FEA03334FF08055DC
:103F000045EA131343EA12634FEA022245EA111508
:103F100045EA10654FEA00260EF000419D4208BFB9
:103F2000964244F1FD0404F5407402D25B084FEA66
:103F30003202B61A65EB03055B084FEA32024FF412
:103F400080104FF4002CB6EB020E75EB030E22BF6F
:103F5000B61A754640EA0C005B084FEA3202B6EB2F
:103F6000020E75EB030E22BFB61A754640EA5C00DE
:103F70005B084FEA3202B6EB020E75EB030E22BF6E
:103F8000B61A754640EA9C005B084FEA3202B6EB6F
:103F9000020E75EB030E22BFB61A754640EADC002E
:103FA00055EA060E18D04FEA051545EA16754FEA90
:103FB00006164FEAC30343EA52734FEAC2025FEAAE
:103FC0001C1CC0D111F4801F0BD141EA00014FF03D
:103FD00000004FF0004CB6E711F4801F04BF01430E
:103FE0000020B4F1FD0C88BFBCF5E06F3FF6AFAE2A
:103FF000B5EB030C04BFB6EB020C5FEA500C50F1BA
:10400000000041EB045170BD0EF0004E4EEA11313C
:1040100014EB5C04C2BFD4EB0C0541EA045170BD43
:1040200041F480114FF0000E013C90E645EA060E87
:104030008DE60CEA135594EA0C0F08BF95EA0C0FB5
:104040003FF43BAF94EA0C0F0AD150EA01347FF4FD
:1040500034AF95EA0C0F7FF425AF104619462CE7D4
:1040600095EA0C0F06D152EA03353FF4FDAE104637
:10407000194622E750EA410618BF52EA43067FF488
:10408000C5AE50EA41047FF40DAF52EA43057FF418
:10409000EBAE12E74FF0FF3C06E000BF4FF0010C23
:1040A00002E000BF4FF0010C4DF804CD4FEA410C87
:1040B0007FEA6C5C4FEA430C18BF7FEA6C5C1BD054
:1040C00001B050EA410C0CBF52EA430C91EA030FD5
:1040D00002BF90EA020F0020704710F1000F91EA32
:1040E000030F58BF994208BF90422CBFD8176FEA00
:1040F000E37040F0010070474FEA410C7FEA6C5CCE
:1041000002D150EA013C07D14FEA430C7FEA6C5CD4
:10411000D6D152EA033CD3D05DF8040B704700BF00
:104120008446104662468C461946634600E000BF4E
:1041300001B5FFF7B7FF002848BF10F1000F01BD20
:104140004DF808EDFFF7F4FF0CBF012000205DF8EB
:1041500008FB00BF4DF808EDFFF7EAFF34BF012070
:1041600000205DF808FB00BF4DF808EDFFF7E0FF09
:1041700094BF012000205DF808FB00BF4DF808ED5A
:10418000FFF7CEFF94BF012000205DF808FB00BFC1
:104190004DF808EDFFF7C4FF34BF012000205DF8A3
:1041A00008FB00BF4FEA410212F5001215D211D5EB
:1041B0006FF47873B3EB625212D94FEAC12343F024
:1041C000004343EA505311F0004F23FA02F018BFA6
:1041D000404270474FF00000704750EA013005D16F
:1041E00011F0004008BF6FF0004070474FF0000032
:1041F000704700BF4A0011D212F5001211D20DD53E
:104200006FF47873B3EB62520ED44FEAC12343F0DC
:10421000004343EA505323FA02F070474FF0000086
:10422000704750EA013002D14FF0FF3070474FF035
:10423000000070477BB972B90029BEBF00204FF063
:10424000004106E008BF00281CBF6FF000414FF09E
:10425000FF3001F027B9ADF1080C6DE904CE00295B
:1042600009DB002B1ADB00F085F8DDF804E0DDE95E
:10427000022304B07047404261EB4101002B1BDB7D
:1042800000F078F8DDF804E0DDE9022304B04042F4
:1042900061EB4101524263EB43037047524263EBCF
:1042A000430300F067F8DDF804E0DDE9022304B021
:1042B000404261EB41017047524263EB430300F01F
:1042C00059F8DDF804E0DDE9022304B0524263EB63
:1042D0004303704753B94AB9002908BF00281CBFDF
:1042E0004FF0FF314FF0FF3001F0DCB8ADF1080CBA
:1042F0006DE904CE00F03EF8DDF804E0DDE90223CC
:1043000004B0704738B505460C46284621460022C1
:104310000023FFF71FFF28B928462146BDE8384093
:1043200000F00AB8284604F1004100F005F84042C8
:1043300061EB410138BD00BFD0B50C4B00220646F1
:104340000F46FFF795FCFFF755FF0446FFF716FCF5
:10435000074B0022FFF78CFC02460B4630463946DD
:10436000FFF7CEFAFFF746FF2146D0BD0000F03D33
:104370000000F0412DE9F047089E0D4604468846AE
:10438000002B4DD18A42944668D9B2FA82F252B1DA
:1043900001FA02F3C2F1200120FA01F10CFA02FC49
:1043A00041EA030894404FEA1C45210CB8FBF5FE96
:1043B0001FFA8CF705FB1E8341EA03430EFB07F14E
:1043C00099420BD91CEB03030EF1FF3080F01E81E4
:1043D000994240F21B81AEF1020E63445B1AA4B213
:1043E000B3FBF5F005FB103344EA034400FB07F789
:1043F000A7420AD91CEB040400F1FF3380F00881C6
:10440000A74240F2058164440238E41B40EA0E40B2
:1044100000211EB1D4400023C6E90043BDE8F08767
:104420008B4208D9002E00F0EE800021C6E900057D
:104430000846BDE8F087B3FA83F100294AD1AB42C0
:1044400002D3824200F2F980841A65EB0303012053
:104450009846002EE2D0C6E90048DFE702B9FFDE49
:10446000B2FA82F2002A40F09180A1EB0C054FEAEB
:104470001C471FFA8CFE0121B5FBF7F307FB135015
:10448000250C45EA00450EFB03F0A84208D91CEBB9
:10449000050503F1FF3802D2A84200F2CB80434663
:1044A0002D1AA4B2B5FBF7F007FB105544EA0544FA
:1044B0000EFB00FEA64508D91CEB040400F1FF35F5
:1044C00002D2A64500F2BB802846A4EB0E0440EAC7
:1044D00003409EE7C1F120078B4022FA07FC4CEA1B
:1044E000030C20FA07F405FA01F31C43FD404FEAE0
:1044F0001C4900FA01F3B5FBF9F8200C1FFA8CFEF9
:1045000009FB185540EA054508FB0EF0A84202FADF
:1045100001F20BD91CEB050508F1FF3A80F0888009
:10452000A84240F28580A8F1020865442D1AA4B281
:10453000B5FBF9F009FB105544EA054500FB0EFEFA
:10454000AE4508D91CEB050500F1FF346CD2AE4531
:104550006AD90238654440EA0840A0FB0294A5EB02
:104560000E05A542C846A64656D353D05EB1B3EB5E
:10457000080265EB0E0505FA07F722FA01F3CD40B4
:104580001F43C6E900750021BDE8F087C2F1200392
:1045900020FA03F10CFA02FC25FA03F395400D43CF
:1045A0004FEA1C471FFA8CFEB3FBF7F107FB1130F3
:1045B0002B0C43EA004301FB0EF0984204FA02F48C
:1045C00008D91CEB030301F1FF382FD298422DD9F3
:1045D000023963441B1AADB2B3FBF7F007FB10338B
:1045E00045EA034500FB0EF3AB4208D91CEB050579
:1045F00000F1FF3816D2AB4214D902386544ED1AE7
:1046000040EA014138E73146304607E78646E5E6AD
:104610001846FAE64B45A9D2B9EB020864EB0C0E3A
:104620000138A3E74046EAE7204694E74146D1E750
:10463000D0467BE7023B654432E7084609E764441D
:10464000023842E703685A004CBF43F0004323F0AE
:1046500000431844704700BF2DE9F84329B34F1EAB
:10466000044615463E464FF0000808EB060101EBF4
:10467000D171491004EBC1094846FFF7E3FF034637
:10468000C80008308F42204409D0AB4209D8FFF758
:10469000D9FF0138A8420AD201F10108E5E7AB428F
:1046A00005D9884501D04E1EDFE74FF00009484686
:1046B000BDE8F883012807D0022807D0044B002862
:1046C0000CBF1846002070470248704702487047E8
:1046D000794D0000814D0000894D000030B5234B1D
:1046E00083B004468D1E3BB301A92846AFF300807A
:1046F000E8B101992A46FFF7AFFF0146B8B1FFF7CD
:10470000A1FF4B68A064012B2CD0002B01F1040009
:1047100024DBFFF797FF0023C4E913030368002B92
:1047200011DBFFF78FFF2061002003B030BD0023B5
:104730000920236103B030BD0D4B0E49C91AC910C1
:1047400018460191D6E7C3F30360FFF7B3FF0028D3
:10475000206114BF0020092003B030BD0123C4E94B
:104760001303DBE7002323610520DEE700000000E0
:10477000585C0000F05C00000368DA0710B50446DE
:1047800006D49B0700F1480009D500F057FC2368C8
:10479000590709D51A070ED5DB0613D510BD00F051
:1047A00045FC23685907F5D404F1D00000F04EFC15
:1047B00023681A07F0D404F5A87000F04FFC2368B2
:1047C000DB06EBD404F5E870BDE8104000F08ABCCD
:1047D0000346006800B11844704700BF704700BF2F
:1047E00070B504460E46316C2046FFF777FF05464C
:1047F00088B9326C626123693246214601209847AC
:104800000828F0D0072806D12846316CFFF7E6FFCC
:10481000301D00F0FFFB00F047FE00BF2DE9F04720
:104820000D1DD0F80C80D0F81890074614460FCD17
:10483000ADF5727D0DF10C0CACE80F000FCDACE8BE
:104840000F000FCDACE80F0095E80F0002AE4FF05F
:10485000000E8CE80F00C6F800E020E0336C7B61AE
:104860004FF4F07231467AA800F06CFE3B697AAAE8
:10487000394650469847889B73642146CDE90069C4
:1048800005463B463A460120C0470446E0B94FF48E
:10489000F0727AA9304600F055FE082D1AD1316C1D
:1048A0003846FFF71BFF09345FFA84FA05460028F3
:1048B000D4D0B36B73643A46CDE900693B464AF005
:1048C00010010120C04700B1092528460DF5727D71
:1048D000BDE8F087072DF7D12046316CFFF77EFF4A
:1048E00003A800F097FB00BFF0B5CB6B0B6401F1A0
:1048F000040C0E460546BCE80F00F9B001AC0FC42D
:10490000BCE80F000FC4BCE80F000FC49CE80F0008
:104910004FF0FF3784E80F00009706E02B696A46E6
:10492000294698470828044608D110992846FFF7D9
:10493000D5FE0028F2D0092079B0F0BD6846FFF717
:104940001BFF062CF7D131462846FFF749FF00BF71
:10495000C160D96B8261196400221946FFF75EBFFE
:1049600070B5C66843690B64AEB903690A4604466C
:104970000D46014602209847072805D008280FD188
:1049800029462046FFF72CFF3046296CFFF726FF0B
:10499000281D00F03FFB0122FFF740FF00F084FDDF
:1049A00000F082FDC26822B1CA6B0A640022FFF7E0
:1049B00035BFFFF799BF00BF012912D009D873B9DD
:1049C0000F2A0CD800EB820218465368009A136035
:1049D00070470339012994BF01200220704702204B
:1049E00070470846704700BF00B585B00A460023EF
:1049F00003A900911946FFF7DFFF039805B05DF8A2
:104A000004FB00BF012912D009D873B90F2A0CD8B2
:104A100000EB8200009A1268426018467047033922
:104A2000012994BF012002207047022070470846E8
:104A3000704700BF10B584B0002303AC039200940C
:104A40000A461946FFF7DEFF04B010BD70B5D36B00
:104A5000136402F1040C05460C46BCE80F00ADF5EA
:104A60000E7D0DF15C0EAEE80F00BCE80F00AEE865
:104A70000F00BCE80F00AEE80F009CE80F004FF0FD
:104A8000FF368EE80F00169610E0FFF7D3FF2146A1
:104A900016A8A847034616AA6946082083B9049BAE
:104AA0009847052806460CD0092809D0269968465B
:104AB000FFF714FE03466A460C2116A8002BE4D02B
:104AC000092616A8FFF758FE30460DF50E7D70BD7D
:104AD0002DE9F04FCC6C89B01E4654F8043B069487
:104AE0000D46174600F00308002E79D01A0C1B045F
:104AF00005938DF81D200223D2B204EB82048DF8B9
:104B00001C302B6DB8F1020F08BFAC6B13F0010322
:104B10000CD005A9384600F06FFB18B9082009B081
:104B2000BDE8F08F092009B0BDE8F08FD4F800A0EF
:104B3000BAF1000FEDD0019300F008030293022EAA
:104B40004AD0B4F800A0B4F802900434AB6C29F059
:104B5000010B0F2138469B44FFF746FF834539D8A8
:104B60002AF001039B44834594BF002001204FEAB3
:104B7000490303F002030AF0010A43EA0A03012B86
:104B800049D0022B32D0002BCCD1B8F1000F02D08B
:104B9000002840F0CD800434D4F800A0BAF1000F12
:104BA000CDD105A9384600F027FB0028BAD1019BDA
:104BB000002BB3D00F213846FFF716FF0E21024617
:104BC0003846FFF737FF38466A4A0F21FFF732FFB2
:104BD0000720A8E70020CAE7D4F804900834B5E716
:104BE0001B0205930323ADF81C308AE7236823F0EA
:104BF000004BB8F1000F45D128B1029A002A5CD0D1
:104C0000BBF1000F74D0002B00DA04340BF1010B60
:104C100004EB8B04C0E7B8F1000F19D1B0B16368A1
:104C20002268991C4FEAD2723FF47CAF05F158011B
:104C30000133049100F09080201DFFF7C9FD04AB03
:104C400001462846AFF3008000285BD10834A3E773
:104C50000D213846D5F82090FFF7C6FE8145F5D1E5
:104C6000AB6A9C42F2D12046FFF7ECFC0F210246D2
:104C70003846FFF7DFFE38462A460021FFF7DAFE06
:104C8000072050E70D213846D5F82090FFF7ACFEFD
:104C9000814501D02368B6E7AB6A9C42FAD1042370
:104CA0000022C5E90B23E318C5F828B06B6323681D
:104CB000002B59DB01230193A8E705F15803CDF838
:104CC0000C8004F1040AB04691461E460EE05046A0
:104CD0000496FFF77DFD0022014604AB284609F14A
:104CE00001090AF1040AAFF30080E0B9D945EED119
:104CF0000D213846FFF778FE049BAC62C5E9080336
:104D0000062010E781460D213846FFF76DFEB9F108
:104D1000020F286225D12B46049A43F82C2F6B6290
:104D2000AC620620FFE646462368DDF80C806AE7A1
:104D30002046FFF787FC04340246AC63284614463D
:104D4000AFF3008000283FF4EDAE384622460F2135
:104D5000FFF770FE0720E6E60D213846FFF744FE18
:104D60002862049B6B62DBE70BF1010004EB80001F
:104D70007AE700BF000000000023FFF7A9BE00BFD4
:104D80000123FFF7A5BE00BF0223FFF7A1BE00BFAE
:104D90002DE9F0430646C3B015461C46042900F22F
:104DA000BF80DFE801F09E57BD2D0300002C40F0CE
:104DB000B780102A00F2B4800368D80600F1F980A9
:104DC00020AF384600F098F9B46B394600234FF015
:104DD000010C0CFA03F22A42204603F1010303D02E
:104DE00050F8042B0A600446042B01F10401F0D1B1
:104DF0003846B46300F076F9002043B0BDE8F08394
:104E0000032C40F08D8094B204EB1243102B4FEA38
:104E1000124500F2858003681F0700F1D28020AFA1
:104E2000384600F03DF9B26B07EBC50154B10B46B3
:104E3000D01A01EBC401E4001D5843F8045B8B4217
:104E4000FAD122443846B26300F008F9002043B09A
:104E5000BDE8F083012C4FEA124895B25CD0052CD6
:104E60005ED108EB0509B9F1200F59D8B8F10F0F41
:104E700079D9A946002D40F08A80B36B6DB320AF7D
:104E80004FF0000907EBC807043F03EBC50553F8D3
:104E9000041B47F8041FAB42F9D1B9F1000F0FD042
:104EA0006F464146102938BF102107EBC1018439F4
:104EB00003EBC90553F8040B41F8040FAB42F9D1D9
:104EC000012C00F08680B8F10F0FB56347D9B9F116
:104ED000000F02D0684600F0B9F8002043B0BDE8EA
:104EE000F083ECB9806B23461FFA82FC0124371D46
:104EF00004FA03F212EA0C0F014604D051F8042B15
:104F000047F8232008460133102BF1D115F4005542
:104F1000E3D1B063284604E008EB0503102B03D966
:104F2000022043B0BDE8F083B8F10F0FF8D8336822
:104F3000DA0706D5304623F0030340F8483B00F07B
:104F400079F820AF384600F075F8B36B002D97D193
:104F50001D460435B563384600F068F8BDE720A863
:104F600000F06CF8B3E7B9F1100F40D9A9F11009BE
:104F70003368D90708D523F00103304643F0020314
:104F800040F8483B00F05EF8B9F1000F32D03368CA
:104F90005A0720D4B8F10F0F25D96F463846C8F10B
:104FA000100500F057F8002DB36B7FF77AAF20AFF4
:104FB00068E723F01003336006F5E87000F09CF812
:104FC000FEE623F00803036000F5A87000F068F81F
:104FD00025E720AFBDE7304623F0040340F8D03B7F
:104FE00000F038F8D6E720A800F02CF8D5E74FF00D
:104FF0000009BDE7B8F10F0F3FF63FAF20AF3846CD
:1050000000F020F8B36B002D7FF43AAF384600F083
:1050100015F862E700F1340191E838009C46A64695
:105020004CF8045D90E8FF0FE54600BD90EC210BC5
:10503000704700BF80EC210B704700BF90EC200B45
:10504000704700BF80EC200B704700BFD0EC200BF6
:10505000704700BFC0EC200B704700BFF0EC0201AE
:10506000F0EC0211F0EC0221F0EC0231F0EC024124
:10507000F0EC0251F0EC0261F0EC0271F0EC028114
:10508000F0EC0291F0EC02A1F0EC02B1F0EC02C104
:10509000F0EC02D1F0EC02E1F0EC02F1704700BF5D
:1050A000E0EC0201E0EC0211E0EC0221E0EC023164
:1050B000E0EC0241E0EC0251E0EC0261E0EC027154
:1050C000E0EC0281E0EC0291E0EC02A1E0EC02B144
:1050D000E0EC02C1E0EC02D1E0EC02E1E0EC02F134
:1050E000704700BFB0FC0181B0FC0191B0FC01A190
:1050F000B0FC01B1704700BFA0FC0181A0FC019190
:10510000A0FC01A1A0FC01B1704700BFEC4600B5B6
:105110002DE900502DE9FF1F4FF000032DE90C0091
:1051200001A9FFF7E1FBDDF840E012B0704700BFD6
:10513000EC4600B52DE900502DE9FF1F4FF00003AC
:105140002DE90C0001A9FFF70BFCDDF840E012B0DF
:10515000704700BFEC4600B52DE900502DE9FF1F58
:105160004FF000032DE90C0001A9FFF71BFCDDF84F
:1051700040E012B0704700BFEC4600B52DE900508A
:105180002DE9FF1F4FF000032DE90C0001ABFFF7E5
:10519000DFFBDDF840E012B0704700BFEC4600B521
:1051A0002DE900502DE9FF1F4FF000032DE90C0001
:1051B00001AAFFF74BFCDDF840E012B0704700BFDA
:1051C000027A03467AB9427AA2B14168013A10B430
:1051D0004272086803220C1D1A7202025C60000E03
:1051E00010BC1A6070470068013A1A7202021A6015
:1051F000000E7047B02070472DE9F043054685B09A
:105200000E464FF000083046FFF7DAFFB02804469C
:1052100000F0BA80070620D500F0F003802B4DD0B7
:10522000902B36D0A02B60D0B02B74D0C02B00F0C8
:105230008B8000F0F803D02B0BD100F00702013275
:10524000052342F4002201212846FFF7A1FD002892
:10525000D9D0092005B0BDE8F0838300DBB21F1D63
:105260000DF10C0900231946CDF800900D222846B7
:10527000FFF7A2FB039BCDF8009060064CBFDF1B3D
:10528000FF1800230D22194628460397FFF7BAFBA3
:10529000B9E700F00D030D2BDBD003AF002300F0C6
:1052A0000F02194600972846FFF786FB0023009758
:1052B0000D2219462846FFF7A5FBA4E73046FFF765
:1052C0007FFF24022043B0F5004FC2D00401002329
:1052D000A2B219462846FFF75BFD0028B9D114F4A5
:1052E000004F18BF4FF001088DE7C24302F00703DB
:1052F0004FF47F621A41010702F47F624FF000030E
:1053000048BF42F4804219462846FFF741FD002875
:105310003FF479AF9DE7B1283BD0B22800F09380ED
:10532000B32841D000F0FC03B42B92D000F0070268
:105330000132012342F4002219462846FFF728FDD6
:1053400000283FF460AF84E7C6284AD0C72854D06D
:1053500000F0F803C02B63D0C82868D0C9287FF4B8
:1053600078AF3046FFF72CFF020300F00F0002F485
:10537000702201300243012105232846FFF708FD72
:1053800000283FF440AF64E7B8F1000F18D00020C8
:1053900060E73046FFF714FF024600283FF459AF9C
:1053A00010F0F003C8D054E73046FFF709FF0203BE
:1053B00000F00F03013302F470221A430123BBE70C
:1053C00003AC43460E22414600942846FFF7F4FA08
:1053D000009443460F2241462846FFF713FB404600
:1053E00038E73046FFF7ECFE020300F00F0301330D
:1053F00002F470221A4303239EE73046FFF7E0FED3
:10540000024600283FF425AF10F0F0037FF421AFEF
:1054100004212846FFF7BCFC00283FF4F4AE18E74F
:1054200000F00F020132032342F4202284E73046C9
:10543000FFF7C6FE00F0F00200F00F031032013358
:1054400043EA023297E700230DF10C090D221946B9
:10545000CDF800902846FFF7AFFA3046FFF7B0FED0
:1054600002064FF002040CD5039B00F07F00A04021
:10547000184403903046FFF7A3FE030604F1070427
:10548000F2D4039BCDF8009000F07F02A24003F518
:1054900001731A440023039219460D222846FFF790
:1054A000B1FAB0E6704700BF08B5062000F088F8F2
:1054B000012000F0B9F8000010B504460448134676
:1054C00020B10A4602202146AFF3008010BD00BF84
:1054D0000000000008B5074B044613B10021AFF3EC
:1054E0000080054B1868836A03B19847204600F096
:1054F0009BF800BF00000000505C000070B50D4D2F
:105500000D4C641BA4100026A64209D10B4D0C4C77
:1055100000F08CF8641BA4100026A64205D170BDD3
:1055200055F8043B98470136EEE755F8043B984799
:105530000136F2E7700000207000002070000020AB
:105540007C0000200A44914200F1FF3300D17047F3
:1055500010B511F8014B03F8014F9142F9D110BD7C
:1055600002440346934200D1704703F8011BF9E758
:105570001F2938B504460D4604D9162303604FF0A1
:10558000FF3038BD426C12B152F821304BB9204681
:1055900000F030F82A4601462046BDE8384000F0C9
:1055A00017B8012B0AD0591C03D116230360012020
:1055B000E7E7002442F82540284698470020E0E726
:1055C000024B01461868FFF7D3BF00BF0C00002054
:1055D00038B5074D00230446084611462B6000F0FD
:1055E0001BF8431C02D12B6803B1236038BD00BFF8
:1055F0009C13002000F008B8034613F8012B002A82
:10560000FBD1181A01387047024B58221A604FF02C
:10561000FF3070479C130020024B58221A604FF055
:10562000FF3070479C130020FEE700BFF8B500BFB5
:10563000F8BC08BC9E467047F8B500BFF8BC08BC73
:105640009E467047000000000100000002000000BC
:105650000300000004000000050000000600000038
:105660000700000008000000090000000A00000018
:105670000B0000000C0000000D0000000E000000F8
:105680000F000000100000001100000012000000D8
:1056900013000000140000001500000016000000B8
:1056A0001700000018000000190000001A00000098
:1056B0001B0000001C0000001D0000001E00000078
:1056C0001F00000049444C4500546D72205376631E
:1056D000006D6C74005461736B3A2025732C207339
:1056E0007461636B206F766572666C6F770A000A6F
:1056F0003D3D3D204D454D4F525920414C4C4F436F
:105700004154494F4E204641494C4544203D3D3D82
:105710000A00556E61626C6520746F2066696E6464
:105720002063616C6C65722066726F6D204C520054
:105730000A3D3D3D3D3D3D3D3D2043414C4C2053C8
:105740005441434B203D3D3D3D3D3D3D3D0A0043E1
:10575000616C6C20537461636B204261636B747283
:105760006163653A0020202325643A203078253093
:10577000386C78003D3D3D3D3D3D3D3D3D3D3D3D31
:105780003D3D3D3D3D3D3D3D3D3D3D3D3D3D3D3D49
:105790000A000A3D3D3D3D3D3D3D3D2048415244CE
:1057A000204641554C5420444554454354454420DB
:1057B0003D3D3D3D3D3D3D3D0050433A202030784C
:1057C0002530386C780A004C523A20203078253049
:1057D000386C780A0052303A202030782530386C06
:1057E00078202052313A2030782530386C780A0001
:1057F00052323A202030782530386C7820205233CD
:105800003A2030782530386C780A005231323A200C
:1058100030782530386C780A005053523A2030786E
:105820002530386C780A004D53503A2030782530B6
:10583000386C7820205053503A2030782530386C1E
:10584000780A000A4661756C74205374617475732C
:105850003A00484653523A202030782530386C7848
:105860000A0020202D20466F72636564202865732E
:1058700063616C617465642066726F6D20636F6E26
:10588000666967757261626C65206661756C742902
:105890000020202D204465627567206576656E7452
:1058A0000020202D20566563746F72207461626C35
:1058B000652072656164206661756C7400434653AF
:1058C000523A202030782530386C780A0020205554
:1058D0004653523A203078253034782020424653BF
:1058E000523A2030782530327820204D4D465352A0
:1058F0003A203078253032780A004D4D4641523AF0
:105900002030782530386C7820284D656D4D616EDB
:10591000616765206661756C74206164647265738B
:1059200073290A0020202D20496E737472756374E8
:10593000696F6E206163636573732076696F6C6154
:1059400074696F6E0020202D2044617461206163B2
:10595000636573732076696F6C6174696F6E002084
:10596000202D204D656D4D616E6167652066617506
:105970006C74206F6E20756E737461636B696E67F3
:105980000020202D204D656D4D616E61676520669C
:1059900061756C74206F6E20737461636B696E67E0
:1059A0000020202D204D656D4D616E61676520667C
:1059B00061756C74206F6E204650206C617A79207E
:1059C000737461746500424641523A202030782554
:1059D00030386C7820284275734661756C7420618C
:1059E000646472657373290A0020202D2042757348
:1059F000206661756C74206F6E20696E73747275A9
:105A00006374696F6E2066657463680020202D20C2
:105A10005072656369736520646174612062757397
:105A2000206572726F720020202D20496D707265A2
:105A300063697365206461746120627573206572A7
:105A4000726F720020202D20427573206661756C84
:105A500074206F6E20756E737461636B696E67007E
:105A600020202D20427573206661756C74206F6E46
:105A700020737461636B696E670020202D2042756E
:105A800073206661756C74206F6E204650206C61C7
:105A90007A792073746174650020202D20556E641E
:105AA0006566696E656420696E7374727563746986
:105AB0006F6E0020202D20496E76616C6964207322
:105AC00074617465202845505352290020202D20F0
:105AD000496E76616C6964205043206F6E20657852
