:100000000060002051BF0100BDBF0100B1C401006C
:10001000C1BF0100C3BF0100C5BF01000000000057
:1000200000000000000000000000000045CF0100BB
:10003000C9BF01000000000065CF0100CDBF010075
:1000400099D10100118701006DCC0100CFBF0100E3
:10005000CFBF010000000000CFBF0100CFBF0100F3
:10006000CFBF0100CFBF0100CFBF01002987010032
:10007000CFBF01001D870100CFBF0100CFBF01002E
:10008000CFBF010025930100CFBF0100CFBF01000A
:10009000CFBF0100CFBF0100CFBF0100CFBF010024
:1000A000CFBF0100CFBF0100000000000000000032
:1000B000CFBF0100CFBF0100000000000000000022
:1000C0000000000000000000000000000000000030
:1000D0000000000000000000000000000000000020
:1000E0000000000000000000000000000000000010
:1000F0000000000000000000000000000000000000
:1001000000000000000000000000000000000000EF
:1001100000000000000000000000000000000000DF
:1001200000000000000000000000000000000000CF
:1001300000000000000000000000000000000000BF
:1001400000000000000000000000000000000000AF
:10015000000000000000000000000000000000009F
:10016000000000000000000000000000000000008F
:10017000000000000000000000000000000000007F
:10018000000000000000000000000000000000006F
:10019000000000000000000000000000000000005F
:1001A000000000000000000000000000000000004F
:1001B000000000000000000000000000000000003F
:1001C000000000000000000000000000000000002F
:1001D000000000000000000000000000000000001F
:1001E000000000000000000000000000000000000F
:1001F00000000000000000000000000000000000FF
:1002000010B5054C237833B9044B13B10448AFF350
:1002100000800123237010BD600200200000000058
:100220008C40020008B5034B1BB103490348AFF3F0
:10023000008008BD00000000640200208C40020025
:10024000A3F5803A704700BF174B002B08BF134B34
:100250009D46FFF7F5FF00218B460F461348144AD1
:10026000121A1EF08FFE0E4B002B00D098470D4B3C
:10027000002B00D098470020002104000D000D48FD
:10028000002802D00C48AFF300801EF00DFE2000C5
:1002900029001BF01FFE1EF0F3FD00BF0000080048
:1002A000000000000000000000600020600200204C
:1002B000643900200000000000000000024B8001B3
:1002C00043F00103184700BF10F70100014B012262
:1002D0001A70704780020020014B00221A7070478C
:1002E00080020020084B00229A71DA711A725A7249
:1002F0009A72DA721A735A739A73DA731A745A7496
:100300009A74DA74704700BF8C020020704708B5F9
:10031000092000211CF0DAFABDE808400120FFF7AF
:10032000CDBF08B5092001211CF0D0FABDE8084076
:100330000320FFF7C3BF10B5042104461BF006FEDF
:10034000204610BD70B5054608260024E90907209F
:100350001CF0BCFA0120FFF7B1FF012108201CF0BE
:10036000B5FA0120FFF7AAFF64000620E4B21CF0F2
:10037000BFFA08B144F00104002108201CF0A6FADD
:100380000120FFF79BFF6D00013EEDB2DED120465C
:1003900070BD38B50446FFF7BAFF44F08000FFF7A0
:1003A000D1FF0020FFF7CEFF0020FFF7CBFF044670
:1003B0000020FFF7C7FF0546FFF7B3FF44EA05201B
:1003C00080B238BD10B5FFF7A2FF8020FFF7BAFF5B
:1003D0000020FFF7B7FF0020FFF7B4FF0446FFF748
:1003E000A0FF204610BD000038B52A4C18F03AFF97
:1003F00023792060002B4AD00220FFF7CAFFE0805B
:100400000320FFF7C6FF20810420FFF7C2FF6081B1
:100410000520FFF7BEFFA0810620FFF7BAFFE081AD
:100420000720FFF7B6FF20820820FFF7B2FF6082A7
:10043000194C206860B1174914221C3000F07FFD70
:10044000164B1B7823B120684FF6FF7100F06AFE4F
:10045000134C2368B3B1134D2B689BB10F4B1B7822
:1004600083B918F0FFFE104A1368C31AB3F5FA7F78
:1004700008D31060286800F0A0FB014610B920687E
:1004800001F04AFCBDE83840642018F0F3BEFFF7E5
:1004900029FFCDE78C02002084020020800200208A
:1004A000A00200207C0200208802002000F1080346
:1004B00070B5044603600E46E1B108461EF087FFA2
:1004C0000F28054604D901301BF03AFDA5602060D5
:1004D000012D206807D133780370236865600022FE
:1004E0005A55204670BD002DF7D02A4631461EF0E1
:1004F00021FDF2E701481CF094FE00BF58F6010010
:100500000246034652F8080B904203D09968013125
:100510001BF01CBD7047000070B5C82088B00024D7
:10052000604D18F0A7FE214606202C706C70AC7050
:10053000EC702C716C71FFF7D5FE1CF09FF9012156
:1005400007201CF09BF9012108201CF097F90121DC
:1005500009201CF093F921460B201CF08FF921464D
:100560000A201CF08BF9012109201CF0AFF921466B
:1005700008201CF0ABF9214607201CF0A7F9052044
:1005800018F078FE214608201CF0A0F9214607202B
:100590001CF09CF9214609201CF098F90A20FFF76D
:1005A0008DFE012109201CF091F94FF49670FFF7A0
:1005B00085FEFFF707FF0A20FFF780FEFFF702FF27
:1005C000432868714DD02C71FFF78CFE01AA364983
:1005D000364C374E02A8FFF769FF02A801F0CCF9AC
:1005E00002A8FFF78DFF01F003F9012231492060D5
:1005F00001F084FB2068012101F011FB2E492068E5
:1006000001F08CFD2D494FF40073122202F099F88D
:100610002B4B2449186014221C3000F090FC2068F9
:1006200001F078FE01F0FAF801AA054630601E4993
:1006300002A8FFF73BFF02A9284600F0DBFA02A858
:10064000FFF75EFF1C49306800F01FFC3068012195
:1006500000F0A0FA2068002108B0BDE8704001F069
:100660005BBBFFF754FE2020FFF76CFE0820FFF76E
:1006700069FE7020FFF766FEFFF753FEFFF747FEA7
:100680002120FFF75FFE1820FFF75CFE7020FFF7C8
:1006900059FEFFF746FE0A2018F0ECFD01232B71EE
:1006A00094E700BF8C02002082F60100A002002027
:1006B0007C020020040000208CF60100B1F601004D
:1006C00084020020024A034903481CF0A2BD00BF77
:1006D000000000200D0300000400002013B56C464C
:1006E00084E806000160A279A1888180827102B04D
:1006F00010BD704708B50B4601781A78914208D1B1
:10070000411C0622581C1EF005FCB0FA80F040097E
:1007100008BD0020FCE710B50C1A134605D00146B1
:10072000224618461EF014FC0346181910BD10B5D9
:100730000C1A134605D00146224618461EF008FC46
:100740000346181910BD002808B506D001DA1CF0C0
:1007500065FDBDE808401BF0F3BB08BD10B5D0E94E
:1007600000240020A41AA04207D213185B788B4201
:1007700005D0135C01331844F5E74FF0FF3010BD8E
:1007800010B50446006818B1A168091A1BF0DEFB19
:10079000204610BD70B5D1E90036F61A0023044694
:1007A000C0E90033836030460D46FFF7CCFFC4E953
:1007B00000000644A6600246D5E90001FFF7ABFF42
:1007C0006060204670BD10B50446FFF7E3FF204689
:1007D00010BD10B504461046D4E900236FF0004464
:1007E0009B1AE21A8A4201D21CF01EFD994238BFC0
:1007F0001946C91805D20029ACBF08466FF0004061
:1008000010BD2046FCE700002DE9F04385B004460A
:10081000FFF7A4FF431C07464FF000036DD0256887
:1008200003939842CDE9013305EB000602DA344820
:100830001CF0FAFCFFF787FF3146C319024601900E
:1008400028460393FFF767FF266802900546F05D90
:10085000D4F80480074401373E44B04516D0039BCA
:10086000A8EB06075B1B9F4223D82A464146304629
:10087000FFF751FF029A29463A4428460292FFF7B1
:1008800056FF2A4631463046FFF745FFDDE90112A3
:10089000206801906068039B0290A0680390C4E9FF
:1008A0000012A36001A8FFF76BFF012005B0BDE8AF
:1008B000F0833946134A01A8FFF78BFF8146FFF703
:1008C00042FF2946024607460198FFF730FF41469E
:1008D00002463046FFF71FFF029902462846FFF7FF
:1008E00026FF0546019818B10399091A1BF02EFB43
:1008F000CDE901754F440397C8E71846D6E700BF16
:1009000030F7010061F701002DE9F74F9A460368BF
:10091000524504460D461646A1EB030922D0D0E904
:100920000183AAEB0207A3EB08039F4237D8A8EB89
:10093000010B5F451BD2A8EB070B424641465846C8
:10094000FFF7F5FE6368BBEB05023B44636004D030
:100950002946A8EB02001EF0FBFA2A465146304613
:10096000FFF7D9FE2068484403B0BDE8F08F02EBE2
:100970000B031846424651460193FFF7CCFE6268CE
:10098000A7EB0B073A44626041462846FFF7CFFECB
:100990006268019B5A44626019462A46DFE739467D
:1009A000104AFFF716FF8046FFF7CDFE29460246A4
:1009B00007462068FFF7BBFE514602463046FFF768
:1009C000AAFE616802462846FFF7B1FE0546206888
:1009D00018B1A168091A1BF0B9FAC4E900754744B7
:1009E000A760BFE761F7010038B50D46D0E90041C7
:1009F0000C1B14441F2C05D8AB182A46FFF784FFA4
:100A0000012038BD0020FCE730B54B6809681E2B7B
:100A1000044638BF1046DAB228BF00201D2A89B02C
:100A200028BF1D22531C002802F102058DF800305A
:100A3000EDB214BF092308230DF102008DF8013037
:100A40001EF078FA2A4669462046FFF7CDFF09B026
:100A500030BD37B50C4601210546FFF77FFE431C2C
:100A60000ED03CB12B68184444F00404847008464E
:100A700003B030BD284603B0BDE83040FFF7C4BE28
:100A800002238DF8051044F00404032201A928462E
:100A90008DF804308DF80640FFF7A6FFE8E72DE952
:100AA000F047064688B008468A4601F0DEFEC0F3ED
:100AB000C704042C39D0102C39D0022C49D103277B
:100AC000FFB239463046FFF749FE421C08BF04F129
:100AD00002083146054668460CBF5FFA88F8A04612
:100AE000FFF758FEDDE900239B1A03EB080968466F
:100AF000FFF746FEB9F11F0F2BD8504601F0B7FEA5
:100B00006B1C014615D1631C22460DF102008DF8C5
:100B100000308DF801701EF00DFA424669463046ED
:100B2000FFF762FF08B0BDE8F0870527C8E7072791
:100B3000C6E73368585D5F1901300B190A4639184A
:100B40003046FFF7E1FE3368585D04445C550120F0
:100B5000E8E70020E6E738B50023C0E90633C0E93E
:100B60000033C0E90233C0E904330384C362436342
:100B70006FF00043836390F83C300446022523F075
:100B8000030380F83C3005762946FFF762FF65765F
:100B9000204638BD90F83C3001F0030123F00303F8
:100BA0000B4380F83C30704708B50DF0B1FF30F0D2
:100BB00002030CBF0120002008BD08B50EF0D6F8D6
:100BC000003818BF012008BD38B504460D46FFF7B0
:100BD00066FF38B194F83C306FF3410384F83C3041
:100BE000012038BD294604F10C00FFF758FF00280A
:100BF000F0D1F6E738B590F83C30DB0704460D46F7
:100C00000CD501220C30FFF7FFFE38B194F83C30D0
:100C10006FF3410384F83C30012038BD012229469E
:100C20002046FFF7F1FE0028F0D1F6E707B582680D
:100C300001910AB91CF0FBFAC36801A9984703B0F7
:100C40005DF804FB08B50378092B09D14068162824
:100C500008D8084A01238340134203D000F06EFDF8
:100C6000002008BDCB6A002BFAD001F12400FFF769
:100C7000DDFFF5E70018480081422DE9F041044608
:100C80000D4622D0D1E9007802688368A8EB0706F8
:100C90009B1A9E421DD9002E19D001DA1CF0BEFA13
:100CA00030461BF04DF905462A4641463846FFF7C7
:100CB00032FD206818B1A168091A1BF047F92560B8
:100CC0003544A560236833446360BDE8F081354650
:100CD000EAE743689B1A9E4204D841463846FFF72C
:100CE0001AFDEFE7F9183846FFF715FDD4E90002C1
:100CF000D5E90031101A1844F1E770B586B00C46FA
:100D000005466846FFF75FFD214603A8009EFFF7F2
:100D10005AFDDDE903313046C91A0EF006F80646E1
:100D200003A8FFF72DFD6846FFF72AFD3EB905F140
:100D30000C002146FFF7A0FF012006B070BD002087
:100D4000FBE770B586B00D4604466846FFF73BFDED
:100D5000294603A8009EFFF736FDDDE90331304642
:100D6000C91A0DF0C1FF064603A8FFF709FD684642
:100D7000FFF706FD66B920462946FFF77DFF94F888
:100D80003C3043F0020384F83C30012006B070BDD3
:100D90000020FBE72DE9F0472D4B1F7886B0044675
:100DA0000E46154627B90027384606B0BDE8F0873D
:100DB0000DF0DCFF0028F7D100F02AFD07460028DF
:100DC00041D194F83C309A071CD421462046FFF7C5
:100DD000B8FF0028E7D094F83C30DB0712D504F1C7
:100DE0000C08414603A8FFF7EEFCDDE9039A03A8CF
:100DF000FFF7C6FCCA4505D041462046FFF77DFFF8
:100E00000028D0D0134BA663002E93F8008008BFB3
:100E10006FF000461DB12846FFF76BFC05460E4AF1
:100E20000E4B002F08BF1346CDE90034324604F1C3
:100E30001803294640460DF07BFE30F002030CBF3C
:100E400001270027B0E701F065FA0028B9D1AAE729
:100E5000C0020020B5020020450C00002D1D00003E
:100E600008B590F83C30826B6FF34103014680F87F
:100E70003C3022B9BDE808401146FFF78BBFC36A7A
:100E800013B12430FFF7D2FE08BD10B58CB06A460E
:100E9000044606A8FFF70AFB06A901A801F07BFC9F
:100EA00001A92046FFF790FE044606A8FFF728FB9D
:100EB00020460CB010BD70B50E46012104467018D6
:100EC000154619F07AFEB5F5007F28BF4FF400757E
:100ED00000232060A580E3802681204670BD10B5E8
:100EE0000446006808B119F06CFE204610BD2DE9DB
:100EF000F041044688461746F2B1C58883881544F8
:100F00009D4219DC03890668ADB2AB4205D230467A
:100F1000691C19F054FE258106466EB118F0E2F9FD
:100F2000E0883A46414630441EF004F8002326602B
:100F3000E580735518F0DEF92046BDE8F081F8B57C
:100F40000368054600240F461646C4801C70FFF750
:100F5000CEFF2868324639461DF0DCFF20B9E8880C
:100F6000831B58425841F8BD2046FCE770470346B2
:100F7000C06A0A46016810B48C681946234610BC42
:100F80001847704770477047704710B504210446F2
:100F90001AF0DCFF204610BD70B504461C301D461B
:100FA000FFF7CDFFE06A03682A462146DB68BDE80B
:100FB0007040184770B5D0E90D560D4B03600446DC
:100FC000AE4207D055F8040B0028F9D003685B68DF
:100FD0009847F5E7606B18B1E16B091A1AF0B6FF94
:100FE0002046044B40F81C3BFFF779FF204670BDBC
:100FF00084F7010020F7010010B50446FFF7DAFF7F
:10100000204640211AF0A2FF204610BDF8B50D463B
:1010100004469C461746061D0FCD0FC62B6833604D
:1010200000252583A5766246142104F11C00FFF7F4
:1010300042FF064B2360064BE362069B2785C4E90B
:101040000C35C4E90E552046F8BD00BF84F70100F9
:1010500008000020008D70470163704710B50446FA
:10106000006818B1A168091A1AF070FF204610BD77
:101070002DE9FF471E46BDF8304007461546884615
:101080004FF6FF7300293CD0002A3AD09C420CD086
:1010900091B2404612F050FB0246E0B1398B204637
:1010A000C6B30FF013FD044627E000F0B1FB014684
:1010B00001A801F099F8DDE9019A0024ADB2D1450B
:1010C00018D02946404612F037FB044630B901A833
:1010D000FFF7C4FF204604B0BDE8F08739F8020BE3
:1010E000398B22461EB10FF0F1FC0446E7E70FF002
:1010F0003BFDFAE701A8FFF7B1FFB4FA84F040091D
:10110000E9E79C42398B08D016B100222046C8E797
:10111000324620460FF028FDC5E7084610F034FDA2
:101120000120D8E707B50022009101231146FFF7FF
:101130009FFF03B05DF804FB024A034903481CF01B
:1011400068B800BF000000206D0F000008000020FC
:1011500070479A8C824202D10A8802B19A600020BC
:10116000704770477047012070477047704710B54F
:10117000042104461AF0EAFE204610BD00F0CABB66
:101180000846014900F0D8BB40E2010008460121B1
:1011900000F0E8BB10B52C22044600211DF0F2FE41
:1011A000204610BD2DE9F04186B00023054601938D
:1011B0000C4631B3808C01A900F0B2FB68BB019BE7
:1011C000AB6085F8270006B0BDE8F0810127A88C48
:1011D000002100F0A5FB20B14FF0FF31304601F0B7
:1011E000CEFB039B434501D1012FEFD100222A61A1
:1011F0002BB1AB60304601F0C1FB2046E3E7012490
:10120000F8E702AE0B4607220146304601F0ACFB80
:1012100002272E6140F20628D9E795F827300133DE
:1012200085F82730CFE710B50446808C0DF0D4FD4B
:1012300030F0020304D0072802D0A060002010BDC7
:101240000120FCE710B504460DF03AFF30F0020330
:1012500016BFA0600120002010BD808C704703469F
:1012600008688A791860888898809A71184670474B
:1012700070B5D0E90525954211D052F8043B988A03
:101280008842F8D8188D8842F5D3D3E906369E42B5
:10129000F1D053F8040B848C8C42F8D170BD00203F
:1012A000FCE7000010B5024604460549808C0FF0AB
:1012B000B5FB10B1A060002010BD0120FCE700BF0D
:1012C000531100002DE9F04103780F6994B00446F2
:1012D0000D46122B41D8DFE813F0750013004000D3
:1012E0004000EF00EF00AC004000400040000D0166
:1012F0006B01C100400040005D013C0140004B011A
:1013000090F8262090F82530D0F8211043EA0223E7
:1013100090F8272009A843EA0242FFF7DFF909A85D
:1013200000F0E2FA0546D0B9227EE37DD4F813102E
:1013300043EA0223627E43EA024300F07F421A43FB
:1013400009A8FFF7CBF909A800F0CEFA054630B995
:10135000208D00F0B9FA054608B9002696E06668C7
:10136000162E07D8914A0123B340134202D03046CB
:1013700000F0E4F90023EB84286A40F23E239E4209
:1013800003681DD195F82820110719D5DB6832466E
:10139000294698474FF6FF73AB8495F828309A0793
:1013A00032D5002F41D040F23E2296423DD143F04B
:1013B000040385F828303146384601F005FBCCE7B8
:1013C0001B69E4E78A8C4FF6FF739A4241D191F88A
:1013D000283013F0080301D1002F3AD066681A2E86
:1013E00015D12289AA8423B1286A036829469B68FB
:1013F000984795F8286016F0100605D02846FFF7A4
:1014000051FF0028A9D1AE68002FD4D1A5E7002E46
:10141000E7D0002BF8D0286A03683246DB682946FB
:10142000984795F828305B07EED5284600F018FA63
:10143000EAE78A8C03899A428FD191F826300133EA
:10144000DBB2022B81F8263003D90C2010F0FEFF0E
:1014500083E7208913210DF0BFFC7EE78A8C438946
:101460009A427FF47AAF01892846FFF701FF0546CB
:10147000002800F0D8806368DF88196800F104084C
:101480003A464046FFF75BFD20B90D26304614B0C2
:10149000BDE8F0816368DE68002E00F0C880F28845
:1014A00031684046FFF723FDF3886A891F44BA423A
:1014B000EBD1F66897B2EFE78A8C83899A427FF482
:1014C0004CAF086A626803685B699847002800F0BF
:1014D000AC802378042B7FF440AFA368EA8D1A8098
:1014E000A3682A8E5A80A3686A8E9A80A368AA8EFF
:1014F000DA8032E78A8C03899A427FF42EAF436800
:101500001BB140F20622934219D109A8FFF742FE0F
:10151000208909A90DF078F808B1002674E76268FF
:1015200040F206239A420CD10DF12F0015F05BF921
:1015300095F82710012902D12846FFF733FE666887
:1015400062E785F82700286A036809A91B6A98479B
:10155000F5E709A8FFF71EFEA08809A90DF054F8C9
:101560000028DAD1286A036809A99B6A9847D4E75A
:1015700009A8FFF70FFE208909A90DF045F80646D6
:10158000002850D1286AA27A036829461F6BE37AA3
:10159000B8477BE78A8C83889A427FF4DEAE086A7C
:1015A00022890368DB6A9847B7E700BF0018480044
:1015B0008A8C83899A427FF4D0AE09A8FFF7EAFDAE
:1015C00009A9A0890DF020F801460028A5D12679A7
:1015D000032E16D1142204A81DF0D4FC8DF810603F
:1015E00000F098F91F4B0590984205D1286A0368CE
:1015F00009A9DB6998470590A08904A914F052FC59
:10160000ABE6042E06D1286AA268036809A95B6AC2
:101610009847A2E6022E7FF4A0AE286A036809A9C3
:101620009B69984799E6012630E73B262EE7AB6B8E
:10163000002B3FF492AE237B69686A890992DB43F1
:1016400003F001038DF80B300DF10B030093CDE98E
:101650000351EC6B09AB04AA03A905F13000A047C4
:1016600014E700BF40E20100808C4FF6FF73C01A00
:1016700018BF0120704710B50446006818B1A16872
:10168000091A1AF063FC204610BDF0B5D0E90567D1
:1016900085B00446B7420BD056F8045B002DF9D054
:1016A000284600F0F4F92C2128461AF04FFCF1E707
:1016B00063690193A3690293E36903930023C4E977
:1016C0000533E36101A8FFF7D6FF05B0F0BD10B503
:1016D0000446FFF7DAFF94F82830DB0704D5206AC8
:1016E00010B103685B68984704F11400FFF7C3FF6B
:1016F000204610BD024A034903481BF08ABD00BFC3
:1017000000000020511100000C00002070477047BD
:1017100010B5042104461AF019FC204610BD000043
:10172000024A034903481BF074BD00BF00000020BB
:101730000F1700001000002070470000024B1A78BD
:101740000AB100221A707047C002002010B50421AF
:1017500004461AF0FBFB204610BD08B516F046FA09
:10176000BDE8084016F0C2BF0846114615F092B811
:1017700010B5134C207810BB15F0D1FEF8B901203C
:1017800015F0CDFE0246D0B9014611F074FF10B13C
:101790000C4B01221A70012018F0FEFC012323706B
:1017A000094B1B785BB1094B186808B100F083F94D
:1017B000074B186818B1BDE81040FFF751BB10BDCA
:1017C000C0020020B5020020B4020020BC020020AC
:1017D000B8020020054B1B680A46196810B48C68D3
:1017E00001461846234610BC184700BF14000020CD
:1017F00038B5064C236833B91C201AF0A1FB054606
:1018000000F0F4F92560206838BD00BFC402002054
:10181000014B1868704700BFC402002038B5064C61
:10182000236833B940201AF08BFB0546FFF793F984
:101830002560206838BD00BFB802002010B50446FE
:10184000FFF7ECFF21460022BDE81040FFF7A2BAE7
:1018500008B5FFF7E3FFBDE80840FFF7A5B90000B2
:1018600070B5044660B3174E3368984228D1FFF72D
:10187000FBFE58B1306890F8283043F00203BDE811
:10188000704080F828301321FFF7CDBC23693568FC
:1018900053B195F8283043F0040385F828302846E2
:1018A000BDE87040FFF7CEBC35B12846FFF70FFF0B
:1018B0003C2128461AF04AFB00233360012070BD0A
:1018C0000020FCE7A402002038B5064B1C68054642
:1018D00024B12046FFF7C1FC854200D000242046F9
:1018E00038BD00BFA4020020094B37B51C6805466F
:1018F0001CB90024204603B030BD21466846FFF7DE
:10190000AEFC29466846FEF7F5FE0028F1D0F1E767
:10191000A4020020014B1868704700BF1C00002083
:1019200010B50C460DF020FD04B1206030F002032C
:101930000CBF0120002010BD30B5044687B00D4615
:101940001422002101A81DF01DFB0223208C8DF81C
:10195000043001A9029514F0A5FAB0FA80F040090C
:1019600007B030BD0020704708B500680AF042FC9F
:10197000B0FA80F0400908BD38B5144D2B78044604
:10198000DBB916F015F9124B124A1A61124A5A6164
:10199000124A9A621A8922F46F6222F00F0242F010
:1019A00003021A8120460322DA721A73FFF7DCFF62
:1019B00015F01AFC0A4816F065FE0A4C237801203F
:1019C00013B918F0E9FBF9E7287038BDB40200201C
:1019D000700100203D17000071170000D5170000AE
:1019E0005B170000C002002010B50446006818B163
:1019F000A168091A1AF0AAFA204610BD10B50446CB
:101A0000FFF7F2FF204610BD10B5084C0849094801
:101A100022461BF0FEFB0848084900232246C0E985
:101A20000033BDE8104083601BF0F3BB00000020D2
:101A30003917000018000020A8020020FD1900003E
:101A400010B50446006818B1A168091A1AF07EFAA8
:101A5000204610BD7FB5D0E906560446AE4207D0F9
:101A600055F8040B0028F9D003689B689847F5E700
:101A7000A3690193E3690293236A03930023C4E9F2
:101A80000633236201A8FFF7DBFF04B070BD10B579
:101A90000446FFF7DFFF04F11800FFF7D1FF2046EF
:101AA00010BD70477047704710B5042104461AF006
:101AB0004DFA204610BD0146162251F80C0B036862
:101AC0001B691847024A034903481BF0A2BB00BF29
:101AD00000000020A31A000020000020704770477B
:101AE000704770470048704740E2010070477047F8
:101AF00010B5042104461AF029FA204610BD2DE93C
:101B0000F0410378012B86B005460C4620D183684E
:101B100001A8596800F031FE00232360FFF778FE2A
:101B2000D0E90278B84510D057F8046BB37D002B8C
:101B3000F8D1B38A002BF5D101A9304600F0A8FEF8
:101B40000028EFD0AB88B382266006B0BDE8F081F4
:101B50000A68002AF9D0022B1DD1836801A81968F0
:101B600000F00BFE002363602368D3E90678B845D4
:101B7000EBD057F8046BB37E002BF8D1338B002BDE
:101B8000F5D101A9301D00F083FE0028EFD0EB88CD
:101B900033836660D9E7032BD7D14B68002BD4D0B1
:101BA000836801A8196800F0E8FD6368D3E90D6750
:101BB000B742CAD056F8044BA37E002BF8D1238B32
:101BC000002BF5D101A9201D00F062FE0028EFD006
:101BD000AB882383B9E7000008460149FFF7ACBE94
:101BE00040E2010008460121FFF7BCBE027822F066
:101BF0000F020270054A42600022C0E9022202611F
:101C000082614FF6FF728282704700BF240000207D
:101C10000378DA0744BF43F0020303707047037888
:101C200061F3C30303707047808A4FF6FF73C01AD5
:101C300018BF012070472DE9F0478CB000AF144663
:101C40000646381D1D46FFF7A5FA391D30460CF033
:101C5000DBFC2378032B4FD8DFE803F002200220BF
:101C60006368DB8843B14FF6FF739E4204D02B6854
:101C7000391D9B682846984717F034FB6A8CE96940
:101C8000606816F0F4F8044617F034FB002C18BF17
:101C9000112420463037BD46BDE8F0876468B5F8AA
:101CA0002090E688B145E84602D20D24C546F0E70B
:101CB00009F10703DB08A8EBC3039D462168324600
:101CC0006846EA461DF036F9E46864B1E288B31864
:101CD0009945EADB0AEB060021681DF02BF9E38841
:101CE0001E44B6B2F0E72B683246D3F80C9051464A
:101CF0003B1D2846C847D9E70E24CAE7037821B11F
:101D0000416062F3820303707047024A426061F3EC
:101D10008203F8E72400002010B50C46FFF77EFD93
:101D200021460022BDE81040FFF734B82DE9F0430A
:101D300091B0054605A80C46FFF72CFAFFF768FDA1
:101D40002B780646122B1BD8DFE813F01300340063
:101D50001A00E8001A001A001A001A001A00E2001D
:101D600002013501D500AB0068009C001B01F600A4
:101D700026016B681A2B05D023B10020FFF75EFD0A
:101D8000002413E0288905A90CF03EFC0446002835
:101D9000F6D1B28A70684FF6FF739A4204BF2B895E
:101DA000B382036805AA9B6831469847204611B064
:101DB000BDE8F0836868162806D89C4A0123834052
:101DC000134201D0FFF7BAFC2B8DB28A9A4204BFAE
:101DD0004FF6FF73B382B36933B12A8D998C914268
:101DE00004BF4FF6FF729A8405F108070FCF05ACC8
:101DF0000FC40FCF0FC497E8070084E8070070688E
:101E0000036805AADC686B683146A04733781A0777
:101E1000B6D500213046FFF77FFFB1E7D0E9026772
:101E2000B742ADD056F8043BD3E906484445F7D055
:101E30002368EA881B8B9A4222D1A88805A90CF056
:101E4000E3FB0028ECD12068FFF704F99DF814109B
:101E500011F0010105D110F4606F02D0A888FFF7DE
:101E60005FFD21686A7AC86AD0F800C0C2F3C00377
:101E7000C2F3400202EB4303DCF8189005AAC847FE
:101E80000434D3E7A88805A90CF0BEFB044600285B
:101E90007FF476AF70682989036805AA1B699847A3
:101EA00084E7D0E90227002497420DD052F8041BA2
:101EB000D1E9063C9C45F7D053F8041B6E89088B8A
:101EC000864208BF0C46F5E7002C3FF459AF2B7B48
:101ED0006A68DB0702D5002A3FF452AFE06A036864
:101EE00021461B699847E06A036805AA5E696B682A
:101EF0002146B04744E7816900293FF441AF8A8C0D
:101F00006B899A427FF43CAF2846FFF7DBF937E74D
:101F100021462846FEF796FE044647E7288905A98C
:101F20000CF072FB044600287FF42AAF7068036847
:101F30009B6A05A9984739E7A88805A90CF064FBB6
:101F4000002870D10DF11F0014F04DFC01242DE785
:101F5000288905A90CF058FB04460028F6D17068C2
:101F6000036805A91B6A9847B16900293FF408AFC7
:101F70008A8C2B899A427FF403AF2846FFF7A2F997
:101F800014E7A88805A90CF03FFB04460028DDD122
:101F9000706803685B6ACCE7288905A90CF034FBFC
:101FA00004460028D2D17068AA7A036805A9DE6ABF
:101FB000EB7AB047FAE61422002168461CF0E2FFF3
:101FC0002B79032B11D18DF80030FFF7A3FC184BB0
:101FD0000190984204D1706803685B69984701904A
:101FE000A889694613F05EFFCAE6042B0CD1A889C4
:101FF00005A90CF009FB0028A8D17068AA6803683D
:1020000005A9DB699847BBE6022B7FF4B9AEA88926
:1020100005A90CF0F9FA002898D17068036805A9A1
:102020009B699847ACE60224C0E600BF0018480050
:1020300040E201002DE9F84FD0E9008993466FF0A6
:102040006043A9EB0802B3EBA20F07468A464FEAAA
:10205000A20402D11E481BF0E7F8012C224638BF2B
:102060000122A418A1EB08052ED27CB39C4228BF04
:102070001C46A00019F064FF0646DBF800307351DF
:10208000002D04DD2A46414630461CF061FFA9EBD5
:102090000A090435B9F1000F354404DD4A465146BA
:1020A00028461CF047FF4D44B8F1000F05D0B96831
:1020B0004046A1EB080119F049FF06EB8404C7E98B
:1020C0000065BC60BDE8F88F1C46D2E72646D4E721
:1020D0003CF8010010B50A46D0E90114A14204D031
:1020E000126841F8042B416010BDFFF7A3FFFBE726
:1020F00073B5044644200E4619F022FF31460546CA
:1021000000F04CF904F1080001A90195FFF7E2FF86
:102110002046FFF77DFD019802B070BD10B58CB070
:102120006A46044606A8FEF7C1F906A901A800F010
:1021300032FB01A92046FFF7DBFF044606A8FEF7A5
:10214000DFF920460CB010BD2DE9F84FD0E9008929
:1021500093466FF04043A9EB0802B3EB620F0746CA
:102160008A464FEA620402D11E481BF05DF8012C3A
:10217000224638BF0122A418A1EB08052ED27CB359
:102180009C4228BF1C46600019F0DAFE0646BBF8E8
:1021900000307353002D04DD2A46414630461CF0C2
:1021A000D7FEA9EB0A090235B9F1000F354404DD69
:1021B0004A46514628461CF0BDFE4D44B8F1000F7A
:1021C00005D0B9684046A1EB080119F0BFFE06EB47
:1021D0004404C7E90065BC60BDE8F88F1C46D2E73F
:1021E0002646D4E73CF801000A4638B5958A4FF6F2
:1021F000FF7300219D42C0E900110446816002D0B6
:102200001432FFF7A1FF204638BD42680B46043167
:102210008A4210B5044604D01846521A1CF098FEA3
:1022200003466268043A6260184610BD2DE9F84F13
:102230008146FFF70DFB0FF073FF09F0F1FF0AF085
:102240007FF8D9F808604FF0000AD9F80C309E42A8
:102250005ED03468A37D022B0DD1204600F090F9AA
:102260004421204619F072FE314609F10800FFF7BB
:10227000CCFF0646E9E7D4F81880E36998453AD0E0
:10228000474657F8045BAB7E022B11D12B682846DA
:102290005B689847E269BA4204D0D21B394640468F
:1022A0001CF056FEE369043BE3614746B846E4E7A9
:1022B000D5F834B0AB6B9B451AD0D84658F8040B10
:1022C000837E022B11D103685B689847AA6B424555
:1022D00005D0A2EB0802414658461CF039FEAB6B14
:1022E000043BAB63D846C346E4E7A0F818A0FAE77E
:1022F000A5F818A0DAE7A37D1BB1A4F814A0043652
:10230000A3E7204600F07CF80028F6D1BDE8F88F5E
:102310000120FBE737B50478A10705460CD5FFF788
:1023200083FC48B960F300042C702846FFF77EFF59
:10233000044638B9002402E014F00104F5D0204628
:1023400003B030BD0D4B0E4A1A600022CDE90022C9
:10235000C3F804D00FF0BAFA0028EBD12B789A0713
:1023600007D560F341032B704FF6FF71012009F090
:10237000D9FF2B7843F001032B70E0E770010020B8
:10238000FF1A0000024A034903481AF042BF00BF87
:1023900000000020DD1A00002400002070B50D466A
:1023A000044606460FCD0FC62B6833600021C4E9F2
:1023B0000611A182A1752162202204F124001CF0E3
:1023C000E1FD204600F062FAA062204670BD38B5FB
:1023D000046B05467CB123681C3433B154F8100CEF
:1023E0000028F8D019F0B0FDF5E7286B08B119F016
:1023F000ABFD00232B63002385F8243038BD00009B
:102400002DE9F04F044687B0FFF7E1FFD4E906322B
:102410000027934206D053F8041B897E0029F8D187
:102420000137F6E7002F00F09080534BDFF84CB1F6
:102430007D1C9D429ABF1C2068434FF0FF3019F06D
:1024400081FD4FF01C0A01370AFB05F24FF0000135
:10245000B8BF002206461CF095FDE369A56900930C
:102460004FF00009009BAB426ED02A68917E002994
:1024700068D1D2E90D328846934207D053F8041B45
:10248000897E0029F8D108F10108F5E7B8F1000FBD
:1024900041D008F101031A01B3F1006F34BF1046B7
:1024A0004FF0FF30019219F04DFDB8F1FF3F019A56
:1024B0004FF00001B8BF002207461CF063FD2B68F7
:1024C0009A6BD3F8348001920023019A90451FD073
:1024D000D8F80000817E0591B9B91A010292043042
:1024E00007EB0312CDE9032300F0D0F9029B039A16
:1024F000F850D8F80000049BB0F828C0059982F87D
:1025000004C0C2E902B05171013308F10408DCE7EC
:102510000AFB0963DF602868043000F0B7F90AFBA2
:1025200009F806EB08072B6846F80800BB60286826
:10253000C7F804B0FEF78EFD00233882BB747B61C0
:1025400009F1010904358DE726632646012506F8C1
:10255000245F30460FF040FD30B12046FFF737FFD3
:10256000002007B0BDE8F08F30460FF00DFD0028C9
:10257000F3D12846F5E700BF24499204371C000038
:1025800070B50446FFF723FFD4E90656AE4207D0E4
:1025900055F8040B0028F9D003685B689847F5E705
:1025A000A06918B1216A091A19F0D0FC204670BD43
:1025B0002DE9F843D0E906590E46174600244D454B
:1025C000A84611D0D8F8000031460430043500F098
:1025D0005FF90028F3D0BC4203D1D8F80000BDE871
:1025E000F8830134A4B2EAE70020F8E72DE9F84FB8
:1025F000D0E9008993466FF06043A9EB0802B3EB82
:10260000A20F07468A464FEAA20402D11E481AF0DA
:102610000BFE012C224638BF0122A418A1EB0805AD
:102620002ED27CB39C4228BF1C46A00019F088FC27
:102630000646DBF800307351002D04DD2A46414682
:1026400030461CF085FCA9EB0A090435B9F1000FEE
:10265000354404DD4A46514628461CF06BFC4D4487
:10266000B8F1000F05D0B9684046A1EB080119F098
:102670006DFC06EB8404C7E90065BC60BDE8F88F1B
:102680001C46D2E72646D4E73CF8010010B50A46BE
:10269000D0E90114A14204D0126841F8042B416032
:1026A00010BDFFF7A3FFFBE7F7B58B7E0191044652
:1026B000D4E9062508465BB1002311461E468D422B
:1026C00006D051F8047BB842F9D186760123F6E7AB
:1026D0009542114609D00968884202F10402F7D1F7
:1026E0002146FEF7B9FC03B0F0BD23B901A904F1FE
:1026F0001800FFF7CBFF21460198FEF7ADFCFFF76E
:1027000087F8FFF785FAEEE72DE9F341044640200C
:102710000E461746984619F013FC4346BAB23146A6
:1027200000940546FEF772FC002231462046FFF772
:102730003FFF20462946FFF7B7FF284602B0BDE815
:10274000F08170B58CB00446154606A86A461E4650
:10275000FDF7ACFE06A901A800F01DF833462A4695
:1027600001A92046FFF7D0FF044606A8FDF7C8FEE2
:1027700020460CB070BD0020704738B514220D46BD
:10278000002104461CF0FEFB1DB12946204614F032
:10279000D9F8204638BD70B50D4686B01422002108
:1027A00004461CF0EFFB6B68042B09D1102228684B
:1027B000227000211CF028FF6080204606B070BD0A
:1027C000082B08D1202328682370102200211CF038
:1027D0001BFF6060F1E7102B0CD12B68621C03F12A
:1027E000100153F8040B42F8040B8B42F9D18023FB
:1027F0002370E2E7242BE0D12868102201A91CF005
:1028000087FE06460198102201A901301CF080FEC7
:10281000090441EA1041050401980E44102201A95F
:1028200001301CF075FE2D18019846EB01061022B0
:1028300001A90130CDE902561CF06AFE0546019857
:102840001022002101301CF063FE02AB01EB0541B8
:10285000CDE9040103CBC4F80900C4F80D1003CB83
:10286000C4F80100C4F80510C1E700787047037888
:10287000202B05D0802B05D0102B05D102307047BE
:1028800004307047013070470020704770470000E7
:102890002DE9FF41057806460C46002D60D00A78E8
:1028A000002A5DD0AA4234D02E4B6F4603F1100EA1
:1028B000B84618685968BC46ACE80300083373454D
:1028C0006746F6D1802D15D12046FFF7D0FF102A9C
:1028D00001460CBF0222042203A81CF02BFB304649
:1028E000FFF7C5FF102241461CF014FBB0FA80F040
:1028F00040091BE0802A33D13046FFF7B8FF102D86
:1029000001460CBF0222042203A81CF013FB204640
:10291000E6E7102A0DD1FFF7AAFF02460846FFF7A7
:10292000A6FF138800881B1A5842584104B0BDE81E
:10293000F081202A08D1FFF79AFF02460846FFF7E8
:1029400096FF13680068EEE7802A09D1FFF78FFF32
:1029500005460846FFF78BFF102201462846C3E7CD
:102960000020E3E790F8010010B5C0E90012836091
:10297000044617F087FDE060204610BD70471FB584
:102980004A1C08461AD10291002403AB00944FF070
:1029900000422146204617F051FE039BA34211DB63
:1029A000029B00934FF0004223462146204617F039
:1029B00045FE431E5842584104B010BD02A916F00E
:1029C00074F9E1E70120F7E707B54160C06830B16D
:1029D0000021009101234FF0004217F085FE03B063
:1029E0005DF804FBCB780278534003704B88427843
:1029F000534043700A68837883EA122383700A681D
:102A0000C3785340C370CB79027953400371CB88AC
:102A10004279534043714A68837983EA1223837170
:102A20004A68C3795340C371CB7A027A5340037228
:102A3000427A4B89534043728A68837A83EA12232D
:102A400083728A68C37A5340C372CB7B027B534044
:102A50000373CB89427B53404373CA68837B83EA09
:102A600012238373CA68C37B5340C373704700004B
:102A70000449431E0F3013F8012F8A5C1A708342F9
:102A8000F9D17047CCF801001FB502788DF800200D
:102A900042798DF80120827A8DF80220C27B8DF870
:102AA000032002798DF80420427A8DF80520827B7C
:102AB0008DF80620C2788DF80720027A8DF808205C
:102AC000427B8DF8092082788DF80A20C2798DF832
:102AD0000B20027B8DF80C204278C37A8DF80D20F4
:102AE00082798DF80E208DF80F3010236A46194632
:102AF00000F0EAF905B05DF804FBF8B50646087881
:102B00000C4600F0F0F90546607800F0ECF9A27888
:102B100063785340E27853405D40454035706078BB
:102B2000277800F0E0F90546A07800F0DCF9A378FA
:102B30005F40E3785F407D4045407570A0786578E0
:102B4000277800F0D0F96F400546E07800F0CBF927
:102B5000E3785F407D404540B570207800F0C3F9D0
:102B6000637825785D40A3785D404540E07800F0CB
:102B7000BAF9EDB24540F570F8BD0000F0B5264E4B
:102B800007460C460FCE8DB001AD0FC50FCE0FC559
:102B900096E8070085E807003846002F38D0002C5B
:102BA00038D0381F2146024610344B780D781B046C
:102BB00043EA0563CD782B438D78043143EA05233E
:102BC0008C4242F8043FF0D1144C04218A07036977
:102BD00016D1C3F30742A55C1A0EA25C42EA056255
:102BE000C3F30725DBB2655DE35C42EA054242EAD6
:102BF000032221F0030330336B4453F82C3C534041
:102C000050F8042F013153402C290361DED10120FB
:102C10000DB0F0BD2046FBE7A0F80100CCF80100A4
:102C200070B5144688B00546002849D0002949D01F
:102C3000002A49D010230A466846194600F044F994
:102C400021466846FFF7CEFE103401F1A006684623
:102C5000FFF70EFF6846FFF717FF694604A8FFF766
:102C60004CFF01A905A8FFF748FF02A906A8FFF736
:102C700044FF03A907A8FFF740FF102319460DEBF7
:102C80000302684600F020F9214668461034FFF739
:102C9000A9FEA642DBD1FFF7EBFE6846FFF7F4FE84
:102CA00031466846FFF79EFE102319466A462846BD
:102CB00000F00AF968461022002100F012F9012004
:102CC00008B070BD0846FBE71046F9E710B50A46A4
:102CD0000F3012F9103B002BB4BF8723002312F8EA
:102CE000014D83EA4403914200F8013902D0137880
:102CF000DB09F4E710BD08B520B15822002100F02F
:102D0000F0F8012008BD10B5044688B1102200215A
:102D100000F0E7F8102204F13000002100F0E1F8A3
:102D20000023636400224FF48033C4E9142301209C
:102D300010BD70B50D461646044610B311B35822A7
:102D4000002100F0CEF82946A6643046FFF716FFB2
:102D500010220021204600F0C4F804F11005A26CF6
:102D600021462046FFF75CFF21462846FFF7AEFFCD
:102D7000294604F12000FFF7A9FF2046FFF7C3FF13
:102D8000012070BD0846FCE72DE9F0410D461646CE
:102D90000446002861D012B90120BDE8F081002965
:102DA0005BD0D0E9143253EA020156D0013BD0F88F
:102DB000448042F1FF32C0E91432B8F1000F2AD04A
:102DC000C8F1100708F13000BE42204408D22A465C
:102DD0003346314600F078F8626C32446264DBE7D7
:102DE0003B462A46394600F06FF8103E00236364E4
:102DF00046443D44631E04F10F0113F8012F93F87C
:102E000030008B4282EA00021A70F6D1A26C214691
:102E10002046FFF705FF04F10F07102E0AD8002EF9
:102E2000BAD033462A46314604F1300000F04CF85F
:102E30006664B1E7631E691E13F8012F11F8010FD4
:102E4000BB4282EA00021A70F6D1A26C21462046EB
:102E5000FFF7E6FE1035103EDFE700209DE770B576
:102E60000C460546E8B169B34A6C102A1AD11031F4
:102E7000631E013904F10F0013F8012F93F830603D
:102E8000724011F8016F984282EA06021A70F3D17B
:102E9000A26C21462846FFF7C3FE2046FFF72BFF12
:102EA000012070BD02F130000021C2F11002204467
:102EB00000F017F8636C2344802283F8302004F17B
:102EC0002001D5E70846ECE738B50D46AB42114680
:102ED0001C4604D81A461CF02DF8204638BD0024A4
:102EE000FBE71CF04FB8C30903EB430303EBC30339
:102EF00083EA4000C0B2704710B50446236803B9A6
:102F000010BDA3F110005B68236003B9646014F086
:102F10009BFFF3E7002003F08BB905F028BE00000B
:102F20002DE9F843194D05F13809AC6B0CB9BDE832
:102F3000F88316F0D7F9AB6B5B68AB63A4F11007AD
:102F40000BB9C5F83C9016F0D5F954F8100C14F0F4
:102F5000AAFB064654F8100C023014F0A4FB04211E
:102F60008046384615F02EF82288424505D106F4F1
:102F70004053B3F5805F00D81AB9384614F064FFA7
:102F8000D3E73146384602F093FECEE7C802002070
:102F9000F8B5184D05F124076C6A04B9F8BD16F0B0
:102FA000A1F96B6A5B686B62A4F1100603B9AF62AA
:102FB00016F0A0F954F8101C2389087803F00703D1
:102FC000022B04F1080200F00F000ED0042B07D0F2
:102FD000012B01D101F0C8F8304614F035FFDBE7D2
:102FE0001146304602F000FCD6E7314607F0F8F80B
:102FF000F2E700BFC802002008B5012005F0A1FDDE
:1030000028B1BDE808400248332115F0D5BD08BD00
:10301000200300202DE9F0411021054614F0ECFEBC
:103020000446C8B1836805821E880368043326F00D
:10303000030603604079B6B2301A04382D1AA04650
:10304000002D09DD0021A8B214F0A2FE074630B918
:10305000204614F0F9FE3C462046BDE8F081C8F851
:103060000C00AD1B8046EBE70346084631B15879AA
:1030700000F0C000A0F14003584258417047034699
:10308000084639B15879800903D0431E5842584147
:103090007047022070470000032814D8DFE800F0D2
:1030A000020B020B0A4A002312F8010B68B9013324
:1030B000062BF9D170474B1E053113F8010F20B9CB
:1030C0008B42FAD17047002070470120704700BF43
:1030D0003C030020052970B50546164616D90C4B51
:1030E0001B6813B10C24204670BD07F0E1FA0446BA
:1030F0000028F7D12EB1074B2A681A60AA889A8057
:10310000F1E701F035F90028F5D0EBE71224EAE702
:10311000CC0300204203002010B5074B0C460146AB
:1031200006480622002C08BF18461BF0F3FEB0FA32
:1031300080F0400910BD00BF3C0300204203002086
:10314000034A044B00280CBF10461846704700BFC6
:103150003C0300204203002038B508F083FF0C4BED
:1031600005461C7A08F084FF8DB9022C0BD0042C84
:1031700005D0012C0BD1BDE8384001F0DBB8BDE82B
:10318000384001F083BFBDE8384007F01BB838BDB8
:10319000C802002010B5104B00781B7A022B144691
:1031A00000F00F000FD0042B05D0012B10D1BDE88B
:1031B000104001F061B808F04FFF01462046BDE81D
:1031C000104002F0E5BABDE81040114606F0B6BD69
:1031D0004FF0FF3010BD00BFC802002038B50346D5
:1031E00015460C4631B9084B084A094840F21451BB
:1031F00019F010F98A8B498B204614F0BDFE637ECE
:103200002B70207F38BD00BFCCF901006FFA0100A0
:10321000D2F9010010B508F037FB002008F008FCD7
:103220000B4B0C4C18700C4B7F221A7004F048FFAB
:103230004FF0FF31204615F091FA30B9074B084A9C
:10324000084840F2635119F0E5F843689847EFE702
:1032500039030020DC0200203B03002063FF010053
:1032600063FA0100D2F90100014B1872704700BFE8
:10327000C8020020014B187A704700BFC802002026
:103280000146014815F0A4BADC0200200023436186
:10329000054B9A6A00F1100114301160986203F135
:1032A0001800FFF7EDBF00BFC8020020F8B50B887B
:1032B0000778427803F08004C3F3C01603F00703D5
:1032C000042B054607F00F0703D1BDE8F84002F0D4
:1032D00021BBA4B1082F08D8DFE807F00E050E05C2
:1032E0000E230E1111000C2A09D0012B30D0022B15
:1032F00030D04FF0FF3529E0911F1F29F5D8012B61
:1033000011D0022BF5D1901CFFF784FE044618B1B2
:103310000146284608F028FA3146204606F010FEFD
:103320000FE0222AE0E7901CFFF774FE044618B174
:103330000146284608F018FA32462146384600F081
:1033400079FE054614B12046FFF7A0FF2846F8BDD8
:103350000024F1E70024DFE738B50446094D15F0F5
:10336000C1FF00236361EB6B04F110021A60143497
:10337000EC6315F0BFFF05F12C00BDE83840FFF706
:103380007FBF00BFC80200200146014815F076BA91
:10339000DC0200206FF4400040F2FF317047000073
:1033A000014BD3E900017047C802002038B515F081
:1033B00099FF08F073FB07F0C9FC07F095F906F0D8
:1033C00089F915F097FF00F0C1FF194B194C002542
:1033D0001D70194B28461D7008F02AFB174B1870FA
:1033E000174B7F2204F138001A70FFF785FD04F1B6
:1033F0002400FFF781FD40F2033363822523A3738A
:103400004FF0FF33C4F809301F23637302F09EFDB1
:1034100005F05CFA07F0A0FC0A4B25721D609D8048
:1034200007F008FE06F092F8BDE8384008F02CBA24
:103430003A030020C802002038030020390300208E
:103440003B03002042030020032938B504460D4603
:1034500006DD164B164A40F2A761164818F0DAFF4F
:10346000C9B2002005F0C4FCA0421CD8012DA4EB79
:10347000000005D1C0F3CF001B2838BF1B2038BD8A
:10348000022D02D1C0F38F00F6E7032D02D1C0F365
:103490008F10F1E715B9C0F30F10EDE7064B044AA2
:1034A00040F2CA61D9E71B20E9E700BF37FA010003
:1034B00046FA0100D2F90100100E020005F0F2B93F
:1034C00005F0FEB913B5334C0023062269462046A9
:1034D0000093CDF803301BF01DFDA0B900902060D3
:1034E000A080CDF803000622694620461BF012FD9D
:1034F00048B9684607F02EFE28B9DDF80130236090
:10350000BDF80530A380244C06F0CCF804210A2332
:10351000E3730022FF230846238216F081F8224637
:10352000002342F8383FE263224604F1140142F8D6
:10353000243FA262194AE261194A2263194A62646D
:10354000194AA3612362E36263632364A364E364AF
:1035500063656061226504F15800144A15F0F6FABB
:1035600005F0B4F907F0F8FB00F00AFF07F0E0F807
:1035700002F042FD05F0D0FF44F2EF120023C4E94F
:10358000002305F0D3FC05F0C5FC05F01FFC02B0DC
:1035900010BD00BF3C030020C8020020912F000096
:1035A000212F00001B2F0000152F0000F92F000015
:1035B00008F03EBA044A92F90010814202D010701D
:1035C00008F028BA704700BF3B03002010B504463E
:1035D00000F0CEFE08B1012010BD07F069F8002808
:1035E000F9D1084B1B68002BF5D1E307F4D4064B47
:1035F0001B681BB9B0FA80F04009EDE7D3F8BC3086
:103600000130F6E7CC030020D403002010B50446B7
:103610004C30FFF735FE0020FFF726FE15F062FE66
:10362000638923F03003638115F064FE014B0022AF
:103630001A6010BDC003002047F6112290420346D5
:1036400001D914F00FBB02485843800D704700BFEA
:10365000DF18020038B5074B1C7883890C441B0720
:10366000C0E90544054604D5034814F0FBFA0444B8
:10367000EC6138BD940800200088130038B50121A2
:10368000104B83660446406680F85810C07905F0F8
:10369000AFFBA3895A070FD500F5FB700A4BA5694C
:1036A0001B78EB1AE365002384F85A301E30FFF7CD
:1036B000C3FF0544256638BDDB0748BF00F55570DC
:1036C000ECE700BFCD3600009408002038B5C46890
:1036D000344B05461C6015F005FE638913F0300F6E
:1036E00006D0314B314A4FF49071314818F092FEB8
:1036F00023F0300343F01003638115F0FBFD638971
:1037000003F4C063002B48D12A4A2B49A07908F062
:1037100095F920B1294B2A4A40F26641E5E701219B
:10372000084608F01BF894F90900FFF743FF254B02
:10373000A97818786B68184408F08EFB68BB08F00D
:103740004DF9FF23237205F0E1FED0B108F09AFC99
:10375000A389DA0618D59B0716D00021084608F081
:1037600053F902221848214608F0F8FB0546A0B993
:10377000E3787BB107F0CEFC0120FFF775FD28460A
:1037800038BD08F08FFCE3E71048214608F03CF90B
:103790000022E7E707F0C0FCEEE72046FFF736FF20
:1037A0000125ECE7C003002084FA0100DFFB0100E3
:1037B000A1FA010055555500D6BE898E0AFB0100BD
:1037C0001CFC010094080020D13700000D360000D9
:1037D00070B50C461146A26B02B1127CA3895E073C
:1037E00026D5638913F0020F0CBF2123A1230C25DA
:1037F0000022AE1CE6716689F60748BF43F040031D
:103800000B70236A0360A38C8380A189490744BF9E
:10381000D4F83210C0F8061000F1060344BFE18E60
:1038200099801AB1A06B002114F0A6FB284670BD48
:10383000DD0709D413F0020F14BF062302231F2A49
:1038400004D8951DEDB2D4E72023F8E7034B044AD2
:10385000044840F2F71118F0DDFD00BF12FB010033
:1038600001FC0100A1FA010038B513460A6C0C46B0
:103870004AB1127C1F2A06D90D4B0E4A0E4840F25F
:103880009A3118F0C7FD618911F0010F0CBF0421B6
:1038900044211970236A0360A38C8380951DEDB2C7
:1038A00022B1831D0021206C14F066FB284638BD30
:1038B00027FB0100BBFB0100A1FA0100F8B5064699
:1038C00000680F46154608B114F0BEFA00212846DC
:1038D00014F092FA044630B1038A2B441F2B04DD06
:1038E00014F0B2FA00243460F8BD2A46394614F0C8
:1038F000BEFA0028F7D02046F2E7000008B504F031
:10390000C7FB074A48B1538913F0800004D05378AD
:10391000002B0CBF1046002008BD1046FCE700BF7E
:103920004803002008B5074B7822002118461BF0F9
:1039300029FB07228270044AC0E9142012228281E6
:1039400008BD00BF480300204D3C000010B50446F0
:10395000583007F0BBF9A3785A070BD413F0020FC5
:1039600014BF26232523A37104F14C00BDE81040A9
:10397000FFF786BC2723F6E738B5438913F4C06FF9
:10398000044623D013F4007512D0C36B33B1806B9F
:1039900014F05AFAE36BA3630023E36315F0A2FC6F
:1039A000638923F400736381BDE8384015F0A2BC3D
:1039B0005B050BD5006C14F047FA636CC4E9103555
:1039C00015F090FC638923F48063ECE738BD38B5CB
:1039D00000F12C054179044600F12002012328461C
:1039E00005F04CFDE0B115F07DFC638943F0010367
:1039F000638115F07FFCA3895A0723D561790023E1
:103A000004F13202284605F039FD90B115F06AFC48
:103A1000638943F002036381BDE8384015F06ABC56
:103A20002379D907DFD415F05DFC638923F0010306
:103A3000DEE76379DB07E9D415F054FC638923F0F2
:103A40000203E8E738BD000010B50378044683B3ED
:103A500005F082FE04F1580007F038F915F042FC39
:103A6000FFF708FC012809D108F018F80020FFF73B
:103A7000FBFB104B00221A6006F06AFB15F03AFCC3
:103A800004F14C00FFF780FCA06C18B113F078FD36
:103A90000023A36415F026FC638923F030036381BF
:103AA00015F028FC002323702046BDE81040FFF7E6
:103AB00063BF10BDC00300200379012B10B504467D
:103AC0000ED94389DB050BD5FFF781FF15F00AFC02
:103AD000638923F480736381BDE8104015F00ABC4C
:103AE00010BD00002DE9F0470378044633B9524B6E
:103AF000524A41F2D321524818F08CFC05F02CFEBA
:103B000004F158062046FFF737FF04F14C08304611
:103B100007F0DCF84046FFF737FCA07841072DD4CA
:103B200010F0020F14BF26222522A379454F93429D
:103B300028D106F00DFBA378DA0721D413F0020F89
:103B400014BF26232723A3712069FFF775FD65693C
:103B500097F800A00544C4E90555814614F07EF8A5
:103B60002D1AB5EB0A0507D5626913464B44991A1D
:103B7000E942FBD4C4E90533002515E02722D4E748
:103B80002523E0E75A1CD2B2A2F125050121A94064
:103B9000084206BF0233A371A27114F05FF83B78AC
:103BA00001330344A3610125A3891B0711D5D4E97F
:103BB00006329B1A002B0CDB2346A26C00203C2112
:103BC00002F062FA0023A3642046BDE8F047FFF745
:103BD0003BBF2046FFF770FF2046FFF74FFD05BBB8
:103BE000237823B9144B184A41F2A12183E794F8B2
:103BF0005930A3B9A38913F0080F40F2471130469A
:103C000018BF002107F016F820B12046BDE8F047A4
:103C1000FFF79CBE3B78E26D1344C4E90533BDE871
:103C2000F087304607F034F80028F8D04046BDE869
:103C3000F047FFF725BB00BF3CFB0100ABFB0100D9
:103C4000A1FA0100940800208FFB01008068FFF7B3
:103C500049BF000010B5084C237863B12379012BCC
:103C600009D915F03FFB638943F480736381BDE894
:103C7000104015F03FBB10BD48030020FFF766BEA3
:103C800038B50A4C206880B14C30FFF7F9FA0020B3
:103C9000FFF7EAFA256815F025FB6B8923F030035E
:103CA0006B8115F027FB0023236038BDC003002083
:103CB0000F292DE9F843044601D0122053E03B4D73
:103CC0002B78002B70D102790388478890F80E80FA
:103CD000042AF2D8DFE802F0634961035600102697
:103CE00016F008090CD1BB42E7D8203B9BB243F643
:103CF000E0729342E1D8A7F120039BB29342DCD853
:103D00006379032BD9D8A379012BD6D8284B93F903
:103D10000000284B93F90030C01AFFF749FC687285
:103D20006379012B06D9D4F80700E862224BB4F876
:103D30000B209A80637B13F0F80FBED1002BBCD010
:103D4000B8F1030FB9D8B9F1000F2AD140F27122AE
:103D5000574362792A71A2796A7185F80380AB7042
:103D60002F61AE810020BDE8F883D0F80700124B28
:103D7000E8624FF00008B4F80B209A801D264746F1
:103D80004346ADE7D0F80700E8620B4AB4F80B10E1
:103D900091804FF000081526A2E71226A0E713260F
:103DA0009EE740F6A667D4E70C20DCE74803002036
:103DB000390300203A03002074030020034B93F9D9
:103DC0000030037001230B7000207047390300207E
:103DD0000129F8B501D01220F8BD0578FFF78EFD56
:103DE0000446002800F08580012D7CD10378002B4B
:103DF00069D115F077FA638923F00B03638115F01D
:103E000079FA3D492079FFF747F90028E3D0A389E3
:103E1000DE075AD42279D50761D5638943F00103BF
:103E20006381354B196821629B88A384A389580755
:103E30000BD5E36AC4F83230238EE3866379D90761
:103E400042BF638943F002036381012A02D92046FD
:103E5000FFF7BDFD012323700023A4F8763007F09F
:103E60005BF8A37880EA1040DA07A4F8740038D42D
:103E700013F0020F14BF26232723A37105F080FC43
:103E8000054605F01DF8074613F0E8FE42F21073F0
:103E90000646B7FBF3F003FB1070FFF7CDFB0644BB
:103EA000A6612046FFF7EAFBE06D431B002B04DA16
:103EB000236EE5651B1A2B4423661049002204F18A
:103EC000580006F08FFE002086E7A06C0028A1D1E4
:103ED00013F044FBA06400289CD107207CE7084B2A
:103EE000A0E72523C9E7002D7FF475AFFFF7ACFDF0
:103EF000E9E7422070E700BF42030020553600008A
:103F00003C0300202029F8B501D01220F8BD077825
:103F10001F2FFAD8461CFFF7F1FC0446002833D0C7
:103F2000838903F01203002BEFD00578BFB215B3DD
:103F3000436C63B115F0D6F9638923F48063638120
:103F400015F0D8F9606C13F07FFF002363643A46E4
:103F5000314604F14400FFF7B1FC636C0BB9072054
:103F6000D4E715F0BFF9638943F48063638115F0EA
:103F7000C1F90020CAE73A4631464030FFF79EFCBF
:103F8000236C002BF5D1EAE74220BFE72029F8B5E2
:103F900001D01220F8BD07781F2FFAD8461CFFF772
:103FA000ADFC0446002843D08389D9061AD55A07A8
:103FB00013D415F097F9638923F04003638115F05A
:103FC00099F92578BFB285B93A46314604F13800EF
:103FD000FFF774FCA36B4BBB1EE004F059F80028FC
:103FE000E7D0D6E79B07E4D5D3E7E36B63B115F0E1
:103FF00079F9638923F40073638115F07BF9E06B31
:1040000013F022FF0023E3633A46314604F13C00FB
:10401000FFF754FCE36B0BB90720BBE715F062F91F
:10402000638943F40073638115F064F90020B1E7FC
:104030004220AFE72DE9F84F474E07460D4641B9FC
:104040003068FFF7E3FA4FF0FF340020FFF70CF978
:104050006AE012B900233360F5E7032801D0052890
:10406000F8D1D6F800802C68062204F1080108F186
:1040700020001AF04FFF834620B14FF0FF34002399
:104080003360E2E798F8039014F802AB032F0CBFFB
:1040900009F0010909F00209CAF3801A05F036FA9D
:1040A00048B9B9F1000F29D05A465146204606F0CA
:1040B000DBFF18BBE1E751462046FEF7D5FF00289D
:1040C00035D007F0C1F943B2002B88F8083012DB75
:1040D0002A8B42F480622A83B9F1000F0ED0362079
:1040E00024241E4A10FB03444343144412F803A043
:1040F0004FF0010BD8E7B9F1000FBED12B8B032F86
:1041000043F040032B831FD11548414607F07CFC48
:1041100014480022414607F021FF04460028AED192
:104120002B8B43F010032B832046BDE8F88F5146BC
:10413000204604F0CDFF0028B3D04378002BB0D147
:10414000C378002BADD098E7052F96D15146204675
:1041500000F0F4FC91E700BFC0030020F005002050
:104160000D360000693800002DE9F8433E4C2378F5
:104170000F469146002B75D013881D060CD415F000
:10418000B1F8638923F03003638115F0B3F8BDE81B
:10419000F8433548FFF7A6BC05285FD1A18962899D
:1041A00001F0100002F008020243E8D05806E6D5FC
:1041B000B846490718F8025B03F48066C5F380151A
:1041C00014D5002E48D094F90830284A36202421EE
:1041D00010FB031143431144D55C6379AB42CED14C
:1041E000234806221AF096FE0028C8D106B3D7F855
:1041F0000230C4F826301F4BB8F804209A8094F996
:104200000800414605F026F994F9083036212422A9
:1042100011FB0323154A98189B58C7F8023083886E
:10422000A8F8043094F908304B43D55C0235EDB260
:10423000A38983F01003C3F300134A462946384686
:1042400001F060FD00289AD063891A070AD4BDE8FE
:10425000F8430548FFF7F8BB4146BEE703288ED177
:10426000DB068CD5BDE8F88348030020F00500206C
:10427000740300206E03002008B50C4A0346032B8C
:10428000106807D1838999070ED4FFF7BFF94FF063
:10429000FF3008E0052BF8D18389DA07F5D583F0E4
:1042A0001000C0F3001008BD0120FCE7C00300208F
:1042B000044B1A7822B1D878B0FA80F040097047E0
:1042C000012070474803002038B50B4DAA6C044606
:1042D00032B90A4B0A4A0B4841F20E4118F09AF8DB
:1042E0002B46002101F0D0FE0023AB642046BDE840
:1042F000384004F04FBC00BF480300204FFB0100D2
:1043000072FB0100A1FA010010B50379012B02D85C
:104310000024204610BD4389DB07F9D500F12004B5
:1043200001212046FEF7A0FE0028F2D1F0E726305A
:104330007047000008B507F0B1FB034B1868BDE8F3
:104340000840FFF763B900BFC003002010B5074C59
:104350002046FFF779FBA06B13F076FD206C13F07D
:1043600073FDBDE81040FFF7DDBA00BF4803002031
:10437000024B1878003818BF01207047480300200E
:10438000FFF7D0BA47F611229042034601D913F045
:1043900069BC02485843800D704700BFDF18020017
:1043A000F8B5054610460E461446FFF7EBFF0746E4
:1043B00013F05EFC231ADBB228681F2B08BF0137FD
:1043C00038442860307808BF00230344DBB21E2B3A
:1043D00083BF1F3B33702B68337084BF01332B6066
:1043E000F8BD000008B507F059FB0020FEF73CFFC0
:1043F000014B00221A6008BDD003002010B504460E
:10440000FFF7F0FF2CB104F1A400BDE81040FEF767
:1044100037BF10BD02786FF386120270FFF7EEBF50
:10442000027842F040020270FFF7E8BFFFF7E6BFF4
:10443000037843F0400310B50446037000F598700C
:1044400007F0A0FA04F5847007F0B6FAE279D4F820
:10445000F800013ABDE8104018BF0122002107F022
:10446000B5BAC279D0F8F800013A18BF012200218C
:1044700007F0ACBA03786FF38613037007F0AEBA97
:1044800038B50D4690F82410044611B9837F03F027
:104490000301208BFEF7D8FF2378617B5B0644BFC6
:1044A000043880B2A94228BF2946884228BF08465E
:1044B00080B238BD90F90030002B10B504460BDAFD
:1044C00004F0D1FA20B106220321204603F0B4FC07
:1044D00023786FF3C7132370A378D9060FD5B4F8E8
:1044E0004E10CA0718D50021204602F08FFF002188
:1044F000204604F05EFAA3786FF30413A370E37808
:104500005B0708D50021204604F060FB18B9E3786A
:1045100060F38203E37010BD11F04001E8D0062182
:10452000204602F073FF94F83D10E1E7F8B5044629
:104530000D46174606F0D4F8D0F801302360B0F8E5
:104540000530A380D0F80730C4F80630B0F80B303F
:104550006381E96D064604F10C0013F08DF82B6EB3
:1045600023742B6E1B0A6374B5F86230A37495F83C
:104570004030E374B5F8781004F1140013F078F8C3
:10458000B5F8701004F1160013F072F8B5F8981031
:1045900004F1180013F06CF804F11A00B5F8721069
:1045A00013F066F8D5F82530E36195F8293084F8E2
:1045B000203095F83F2095F8343043EA421384F8D0
:1045C000213033783B702220F8BD00001E2A08B548
:1045D00005D9094B094A0A48732117F01BFF0B78CC
:1045E0001A44D2B21E2A83BF1F3A0A7003680A70A7
:1045F00084BF0133036008BD33FC0100EDFD010001
:104600005FFC01001FB5D0F88420C36F1344134A28
:10461000127804469B1A029390F8812090F880301B
:104620008DF807300DF1070102A8FFF7CFFF636F88
:1046300033B1E26F1344029A9A1A002AB8BF029368
:1046400003A806F071FB28B1DDE90232D31A002B72
:10465000B8BF0292029804B010BD00BF94080020B9
:104660002DE9F04F90F90130002B8DB0044609DAA6
:104670002378002543F0040323702E464FF00108F1
:1046800000272BE0D0E92C6A002E40F0D08007787C
:1046900017F0040702D1BAF1000FE9D094F8F02026
:1046A000002F40F01F81DAF804300193022AAAF1AA
:1046B000100640F28180E179012903D0032A7BD0E2
:1046C000022979D1504602F0CDFC054600286FD171
:1046D000237843F0040323704FF0010823785B072D
:1046E0000AD50CAB029300238DF82030ADF82230B0
:1046F000ADF8243008AD02AE94F838300BB148F074
:1047000008080FB148F0100894F839300BB148F0A0
:10471000040894F9013085F80180002B80F2F780BD
:10472000DFF8BC824FF000096B7803F00303032B22
:1047300040F03D8133681B78062B40F000812378E0
:1047400043F040032370012384F8F13004F598709E
:1047500007F018F904F5847007F02EF9E279012AC0
:1047600014BF00220122D4F8F400002107F02EF932
:10477000B8F1000F01D1DFF86C822146404607F006
:1047800043F999484A46314607F0E8FB68B923786F
:1047900067F3410323705B0707D594F90130002BC1
:1047A00003DAA37843F00103A3700DB0BDE8F08FE6
:1047B000019B3BBB00230193D4F8B4205268C4F89A
:1047C000B4201AB904F1B402C4F8B8209AF8092048
:1047D000554602F00302032A35F8089B20D13146E2
:1047E00020465FFA89FB03F04AFB9AF80980AAF891
:1047F0000CB0DDF804A0C4F8B0600027BAF1000FD7
:1048000036D17AE0019802F02DFC0028D4D1E2796B
:10481000012ACFD0304602F032FC0028CAD0CBE7C4
:1048200049462046FFF72CFE5FFA80FBDDE7778BD9
:10483000B6F8109096F81CB006F11805002F4ED16E
:1048400096F8198008F0030894F8F020022AD5D9C8
:10485000BAF1000F51D0504602F004FC40B9E379A0
:10486000012B4AD0D4F8B00002F009FC002844D053
:104870002046FFF7C7FE07EB0B034B45B8BFA9EB7C
:1048800007098246607BA17FA78BB6BFA9EB0B0906
:104890001FFA80F91FFA89F9484528BF484601F0F8
:1048A0000301C0B2019104F0A3FA01998146584670
:1048B00004F09EFAE379012B08BFA38B07F5E1779B
:1048C0004F44384404BF9633C018FFF75BFD0746DA
:1048D00013F0C4F90744A7EB0A07FF0FFEE64FF0F9
:1048E0000108B1E70025022AA9462F46AB464FF042
:1048F000010883D9BAF1000F05D107EB0B034B4533
:10490000BFF6BEAEB4E7504602F0ACFBAEE7E379CB
:10491000022B0FD177B994F83A305BB994F83C3058
:10492000D80607D433684046197802F0BAFC00284C
:104930003FF4F6AE4FF000084FF00209F4E6052B05
:104940003FD123786FF3861323700823A4F8F03047
:1049500007F044F8254A264BB8F1000F0CBF9046EB
:1049600098460AE723786FF3861323700623A4F88A
:10497000F03007F033F800E7237843F0400323706A
:10498000012384F8F13004F5987006F0FBFF04F57C
:10499000847007F011F8E279D4F8F400511E4A420D
:1049A0004A41002107F012F8124A134BD4E723784A
:1049B0005A067FF5E2AEE279012384F8F1309A429B
:1049C000CEE60B2BF3D1E379012BCBD0022BD3D046
:1049D0000A4B0B4A0B4840F28F5117F01BFD00BFEA
:1049E0002D44000063440000DD310000314400002C
:1049F000214400007544000015440000100E020020
:104A0000FEFD0100D7FC0100F8B5C468444B054623
:104A10001C6034B9434B444A40F2DA51434817F022
:104A2000F9FCA3792BB92046FFF7E8FC01252846BD
:104A3000F8BD06F071FB0420FEF716FCD4E917124E
:104A400094F835003A4F06F0F9FF07F02BFBA07FF2
:104A5000C0F3810100F0030006F080FE354B93F9AE
:104A60000000FEF7A7FDE679012E06D0022E2AD01F
:104A7000314B2D4A40F25561D0E76B683878A97800
:104A8000184407F0E9F90546A8B923785A0617D55E
:104A900004F5987006F076FF04F5847006F08CFF3C
:104AA000D4F8F4003246294606F090FF2046FFF77E
:104AB000D7FD054668B32046FFF7A0FC012528E096
:104AC00006F08CFFF2E723785B0626D504F5987094
:104AD00006F058FF04F5847006F06EFFD4F8F80075
:104AE0000122002106F072FF6B683878A97818441B
:104AF00007F0F2F905460028DDD1237843F01003D2
:104B00002370D4E923323D3303EB4202014606F021
:104B10007FFE13F0A3F8E06689E706F05FFFE3E7A6
:104B2000D003002041FD010011FE0100D7FC01006F
:104B30009408002039030020100E02000B4B70B5C2
:104B40001C6805460E460CB9204670BD0622294653
:104B500004F19D001AF0DEF920B994F89C307340FE
:104B6000DB07F1D5D4F8BC40EDE700BFC40300205B
:104B700038B590F82030C27F03F003035B00C2F326
:104B8000021543EAD213827FC2F3011101390124D5
:104B900004FA01F10D4205D09209013A04FA02F239
:104BA00013420DD190F8202065F3840263F347127D
:104BB00080F820200921002202F0B2FB002038BD3D
:104BC0004FF0FF30FBE7F8B540F2E24444432046A3
:104BD00016460F46FFF7D6FB054613F049F8241A90
:104BE000E4B21F2C05BF00230135347033703D60E3
:104BF000F8BDC06ECB6EC01AC00F7047034B1B6868
:104C00000BB913F02BB8586E704700BFD0030020CB
:104C1000012805D103488379002B08BF0020704785
:104C200000207047F0030020044B186820B1D0F832
:104C3000BC201A6002B95B60704700BFD40300203B
:104C400003789B062DE9F04104460D460AD590F8FD
:104C50003720418E00F12503BDE8F041B0F8500047
:104C600006F097B990F83500012604F125070DB933
:104C7000BDE8F08194F8363094F834000344D8B29B
:104C8000252884BF2538C0B2C0F3C702224484F867
:104C9000360092F8252000F0070306FA03F31342CA
:104CA00009D194F83730B0FBF3F103FB1101C9B21D
:104CB000384606F03BF9013DADB2D8E7F8B50446F9
:104CC000FFF7F8FB94F8423063B16378980606D595
:104CD000E379022B09D10023A4F8983005E020469F
:104CE00002F0EAFA63789906F2D421688C4AB4F8A3
:104CF00050500A40092A05F1010308BFB4F8982072
:104D00009BB204BF9B189BB25D1BADB235B9854BFE
:104D1000854A864840F6B61117F07CFB012DA4F8B1
:104D2000503004F17C0604F1800740F0C980E36F45
:104D3000D4F884201344E36794F881203946304640
:104D4000FFF744FCA3789A0761D5B4F85020B4F873
:104D500058319A425BD1E379B4F85201012B15D056
:104D6000022B03D1B4F84E305B060FD4B4F8703088
:104D700083420BD1B4F89820B4F854319A4205D14B
:104D8000B4F87220B4F856319A4203D0A37843F0B5
:104D90001003A370B4F85631A4F87230B4F854314B
:104DA000A4F8983094F84E3184F8403040F2E24252
:104DB0005343C4F88C30B4F85031A4F87830A4F8D8
:104DC000700004F1810204F18401FFF7FCFEB4F8E5
:104DD00040315BB1B4F84C0140F2712358431E30AE
:104DE000FFF7D0FA00236067A4F84031B4F85031DF
:104DF00033B140F2E2425A4339463046FFF7D0FA27
:104E0000E36FC4F89430A3786FF34103A370A378E1
:104E100098061DD5238EB4F850209B1A1BB2002B88
:104E200016DC04F12A06304606F0A8F8D4F82A3039
:104E3000C4F8253094F82E3084F82930A37884F80B
:104E400037006FF34513A3700121204602F0DEFA0C
:104E5000A378590623D5B4F85020638C9A421ED10A
:104E6000E37F9A0707D0A27F03F0030161F30512E5
:104E700061F30102A27713F00C0F07D0A27FC3F3F6
:104E8000810363F3871263F38302A277638823F4B9
:104E9000886343F480636380204602F0D1FA294698
:104EA0002046FFF7CDFE637884F835009B0612D5C7
:104EB000A36EE26F9B1A002B0DDC4FF0FF30F8BDA4
:104EC000B4F8702040F2E2435A436A433946304610
:104ED000FFF766FA36E7E379022B1FD194F83F20FB
:104EE000D4F88810E06F06F063F8B4F8703040F240
:104EF00071225343963B9842DFD2D4F88C30103065
:104F0000C4F890001844FFF73DFAA330084B1A7814
:104F1000E36F9B1A034463660020D0E7A320F5E704
:104F20000900620048FD0100AFFE0100D7FC01004E
:104F300094080020012370B58371037804466FF351
:104F4000000303700E4612F089FEE379E066022B3F
:104F5000C4F8940009D0E579012D56D0022D6DD00A
:104F6000394B3A4A40F6513146E0B368F268B4F83A
:104F70007850C4F88830B17940F2E243222003FB34
:104F8000052503F035FFB378242B05EB000239D853
:104F900096F90530022B29DC002B29DD02F6C4121C
:104FA000B368E3672146002301F8803F04F17C00E9
:104FB000FFF7F6F994F84000E56F40F2E2435843FA
:104FC000C4F88C0000F59C500830FFF7DBF9013580
:104FD00005446566204605F0D1FD0028BBD020467B
:104FE000FFF76CFE0028F5D0002026E0032B06D04A
:104FF000154B164A40F60331154817F00BFA02F626
:10500000A662CDE702F2E242CAE7124B1A6822B961
:10501000114B124A4FF41A71EEE7002631461E601A
:105020002046334601F030F8204603F0B3FD324607
:105030000321204602F074F9012070BD314620465C
:10504000FFF742F9F8E700BF100E020061FE010011
:10505000D7FC0100C80300205CFD010044FE0100F4
:1050600010B5044669B1037843F020030370C36DA3
:1050700083EA134343860021FFF7E2FD84F83500FD
:1050800010BD80F836100121F6E70000014B1868CA
:10509000FFF7B4B9D0030020012370B5C371022318
:1050A00080F840300023A0F87830042380F83F30A7
:1050B00004460E46154603F003FF0C23B0FBF3F243
:1050C00002FB13001F4B9A7B84F837200530D3F87E
:1050D00009205B7BC4F8252084F8293084F834004B
:1050E00005F01AFFE06503F0EBFE174BC4F8E4305F
:1050F00020F07F402066737884F89B30D6F8033028
:10510000C4F89D30B6F80730A4F8A130B37884F81D
:105110009C302B68A4F870306B68C4F884302B7A0C
:1051200084F881306B89288AA4F89830AB89A4F878
:10513000723040F2712358431E30FFF723F9606745
:1051400070BD00BFC8020020094A000038B5058ABA
:10515000BDF810409542457A16BF02820022012216
:105160008D421CBF4172012244B1418AA14205D047
:1051700044824BB9002102F0FFF809E033B1817A93
:10518000994203D08372F5E70122F8E7002AF1D1B2
:10519000002038BD38B5002104467F2301608171AD
:1051A000C0F846100372C0F8491080F83D1080F82E
:1051B0009A1080F82410FF2084F841004FF4085022
:1051C000A4F844002748A4F84210C4E92A04204661
:1051D000A4F84011C4F8A41040F8B41FC4F8B800F3
:1051E0004FF08070A0632048204A8578937CD27C61
:1051F00065724578A572C588C089C4F8B010C4E945
:105200001411A4F84E10258260821948C4E90500E3
:1052100003F00700174B43EA0073E06943EAC273E7
:1052200000F070600343E361238C23F47F7323F069
:105230000303C2F341021A4322841B2341F61B32AB
:10524000E372A281A373502204F1F00019F09AFED8
:10525000012384F8F030084B1A68C4F8BC201C60A5
:1052600038BD00BFF1530000DC030020C80200205D
:105270004801480148015500C403002038B5828A1E
:10528000438AC17A934228BF1346428B9A4218BF81
:105290004383C28A038A14BF01250025934228BF95
:1052A0001346028B9A42827A16BF03832B46012350
:1052B0008A4228BF0A46817B914218BF8273017BD4
:1052C000427A1CBF01231D468A4228BF0A46417B01
:1052D0009142044606D0427335B92046BDE83840B5
:1052E00003F01EBB65B11D46A17FA07B890903F0B9
:1052F0007FFD638B80B2834228BF0346A3832B4686
:10530000002BEAD138BD0000F8B50446D4300D4674
:1053100005F0DCFC13F0E6FF324B1B68A34201D121
:10532000FFF760F813F0E6FF04F1C00013F098FCFB
:105330002D4A1368A3421AD1D4F8BC301360D4F8B4
:10534000B00020B112F080FD0023C4F8B03004F1A9
:10535000B407D4F8B460A6B17368C4F8B4300BB91C
:10536000C4F8B870A6F1100012F06EFDF1E71A460D
:10537000D3F8BC30A342FAD1D4F8BC30C2F8BC3068
:10538000DDE704F1A400FDF7FFFF6378A67103F0E9
:105390001803182B07D13146204603F08AFB6378A7
:1053A00066F3041363706378DB0607D5294620464D
:1053B00003F07FFB63786FF3041363704DB1022D2C
:1053C00003D194F90130002B03DA2946204600F07E
:1053D000A3FF0023C4F8BC30044B5A681460BC34EB
:1053E0005C60F8BDD0030020C4030020D40300207B
:1053F00038B5044604F0B0F9A46834B9364B374ADE
:10540000374840F66C3117F005F804F0A1FE6378D8
:1054100013F040051CD1236803F4C033B3F5C03F3B
:1054200009D194F84310002908BF13212046BDE894
:105430003840FFF769BF04F1A400FDF7A5FF23780A
:10544000DB0748BFC4F88C502046FFF737FC08B193
:105450001621EBE7237884F83A0060F30003237009
:10546000204601F0A1FF1F4BC4F8E430204605F0B0
:10547000BDFAC8B9A379012B0BBFB4F87000B4F81A
:10548000720041F64C5342F210730BBF584358431D
:105490003E250825FEF776FFE36FD4F894209B1A8B
:1054A000834207D32946C1E72046FFF707FC0028BF
:1054B000DCD0CDE7204600F0BBFE637803F0180394
:1054C000182B07D10021204603F0F3FA63786FF31D
:1054D0000413637038BD00BF41FD0100C6FE01002A
:1054E000D7FC0100094A0000F8B50D46117B242BBA
:1054F000536894BF05242524CF07164648BF44F0BF
:1055000080046A1C002B39D0C9062CD590F89B303A
:10551000012B14D996F90D30002B06DA2A4B2B4AB1
:105520002B4840F60E4116F075FF2A48362744F006
:105530004004012103FB070003F050FF06E073B9AC
:10554000254B1968C5F801109B88938033681A6849
:10555000C5F807209B88A5F80B302C70F8BD1F4BB1
:1055600044F04004EDE71968C5F801109B8893806A
:10557000337B9A07EAD544F04004E7E790F89B10A4
:10558000CB074ABF154B144B44F04004012911D9F5
:1055900096F90D70002F0DDBDFF838C04FF0360E96
:1055A0000EFB07C1897829B144F04004012107FBB3
:1055B0000EC0C1E71968C5F801109B8893800123CC
:1055C00080F89A30C2E700BF71FD01008FFE010034
:1055D000D7FC0100F00500203C030020420300201E
:1055E00010B5084C0020FDF73FFE206840B103785D
:1055F0006FF3000300F8A43BFDF742FE0023236095
:1056000010BD00BFD0030020024B1868D43005F055
:105610005DBB00BFCC030020144B2DE9F0411F6897
:1056200006468846144600F118010022384605F067
:105630003FFA0546B0B905F053F842460146B37E3D
:105640003846FFF751FF2946284606F0DDF9002CC1
:105650000CBF224602220648394606F07FFC18B1EC
:10566000FFF7D2FF4FF0FF30BDE8F081CC03002000
:105670002D450000F8B503681E78314B174600220F
:105680001C681A600B7BC3F3800384F89C308B6822
:105690001A68C4F89D209B88A4F8A1300B7B13F0F6
:1056A00008030D4606F020061FD091F90D000028D2
:1056B00006DA244B244A40F6CD41244816F0AAFECF
:1056C000012384F8A330096803F0C4FE286804F0BD
:1056D000FDFF2B7BDB0611D595F90D30002B07DA8A
:1056E000184B194A40F6D641E7E784F8A330F0E7B3
:1056F00027B9174B144A40F6D741DEE7311E204642
:1057000018BF0121FFF7ACFC5523A377114B9A7802
:1057100062725A781B89238240F6480363820E4BDB
:10572000A272C4E9053341F61B321B23E372A28146
:10573000A37320460021BDE8F840FFF7FBBB00BF84
:10574000CC03002071FD010075FE0100D7FC0100B3
:1057500087FD0100DC0300204801480138B50446FC
:105760000D4613F0BFFD094B1B68A34207D013F091
:10577000C1FD29462046BDE83840FFF7C5BDFEF70C
:1057800031FE13F0B7FD04F0E3FCF2E7D003002094
:1057900038B5144D2C680CB901200DE0E36D8B4237
:1057A0000BD00020FDF760FD04F1A400FDF768FDBB
:1057B00000232B604FF0FF3038BDA388C3702378DF
:1057C000022243F00103A271DA062370E4D56FF3DD
:1057D000041323708368C4F88830E367C36884F8CF
:1057E0008030D9E7D00300200B882DE9F0470E4622
:1057F0001906054606D4424B424A4FF457614248C7
:1058000016F008FEF078FFF703FA044688B1FEF7B9
:1058100051FE2B68328893F80080920608F0080A3F
:105820000CD594F83B30534503D03D212046FFF77B
:1058300095FF2846BDE8F04712F006BB18F00307B5
:10584000F7D093F80190B9F1000F01D1012FF0D1F9
:1058500094F8F020E379052A06D9012B06D12846D1
:1058600001F0F5FB20B9E0E7022A01D9022BF6D0BE
:10587000264A337912789B1A2372E379022B06D1D8
:1058800018F0040F1EBF237843F00803237094F828
:105890003B305345CDD0012F84F83BA013D1B9F153
:1058A000000FC6D06B79072B98BF002305F11002BB
:1058B0001A442B689B1A9BB2012B0CD8144B114A2B
:1058C00040F6E9519BE7032FECD129462046BDE87D
:1058D000F04701F093BE0221284612F04EFC2E68DC
:1058E000A188304641EA073111F0C2FEB01C49469A
:1058F00011F0BEFE2846BDE8F0470CF0BBBE00BF6D
:105900008FFD01002CFE0100D7FC010038030020B0
:10591000B4FD01002DE9F04F0C88B14B0678D3F8A7
:1059200000A090F8019014F0800485B005460F4661
:1059300000F04E8109F10200FDF76CFB0446BAF15C
:10594000000F2CD09AF81E10BB68D7F80C8001937A
:10595000C1F38101484603F04BFA3A8808EB000393
:10596000170602931ED49AF83A200132D2B2012AC5
:105970008AF83A2013D89AF80720012A09D0022A77
:1059800000F0DF80974B984A40F69961974816F0EF
:1059900041FD9AF8002012F0020F40F0D2804FF043
:1059A000FF3B83E000278AF83A700298FEF7EAFC92
:1059B000019B8AF83C60184406F00308CAF894007A
:1059C000B8F1030F08BFAF789AF8002024B1300770
:1059D0009AF8391019D5D1B912F004029AF8381092
:1059E00006F0040302D1DAF8B00030B31BB321BBD8
:1059F00081F001018AF83810002A3AD09AF8002084
:105A00006FF382028AF8002017E00029E4D181F0C8
:105A1000010153068AF83910DED5297801F0030117
:105A2000012902D169780029D6D0DAF8F8100131BD
:105A3000CAF8F810D0E70029DAD1B8F1030F0DD178
:105A4000022F0BD1B9F1020F08D19AF8012042F0D0
:105A500080028AF80120EA788AF843209AF8072021
:105A6000012A65D0022A6CD05E4B5F4A40F626714F
:105A70008CE7DAF8B0B0BBF1000FDED09AF8F11085
:105A800021B1DAF8F4100131CAF8F4109BF81910BA
:105A900001F00301032913D10021CAF8B0105846C0
:105AA000514602F08FFA83460028C6D0002C55D00C
:105AB0002846214605F058FE2046FDF7E7FB4AE060
:105AC000BBF81A10BBF81C00BBF810C0014489B227
:105AD0006145ABF81A1012D350B1BAF85210013127
