:100000000060002061CD0100CDCD0100C1D2010012
:10001000D1CD0100D3CD0100D5CD010000000000FD
:1000200000000000000000000000000005DA0100F0
:10003000D9CD01000000000025DA0100DDCD01006E
:1000400059DC010085910100259E0100DFCD0100F2
:10005000DFCD010000000000DFCD0100DFCD010099
:10006000DFCD0100DFCD0100DFCD01009D9101005A
:10007000DFCD010091910100DFCD0100DFCD010056
:10008000DFCD010011A10100DFCD0100DFCD0100B6
:10009000DFCD0100DFCD0100DFCD0100DFCD0100AC
:1000A000DFCD0100DFCD01000000000000000000F6
:1000B000DFCD0100DFCD01000000000000000000E6
:1000C0000000000000000000000000000000000030
:1000D0000000000000000000000000000000000020
:1000E0000000000000000000000000000000000010
:1000F0000000000000000000000000000000000000
:1001000000000000000000000000000000000000EF
:1001100000000000000000000000000000000000DF
:1001200000000000000000000000000000000000CF
:1001300000000000000000000000000000000000BF
:1001400000000000000000000000000000000000AF
:10015000000000000000000000000000000000009F
:10016000000000000000000000000000000000008F
:10017000000000000000000000000000000000007F
:10018000000000000000000000000000000000006F
:10019000000000000000000000000000000000005F
:1001A000000000000000000000000000000000004F
:1001B000000000000000000000000000000000003F
:1001C000000000000000000000000000000000002F
:1001D000000000000000000000000000000000001F
:1001E000000000000000000000000000000000000F
:1001F00000000000000000000000000000000000FF
:1002000010B5054C237833B9044B13B10448AFF350
:1002100000800123237010BD680200200000000050
:10022000AC52020008B5034B1BB103490348AFF3BE
:10023000008008BD000000006C020020AC520200EB
:10024000A3F5803A704700BF174B002B08BF134B34
:100250009D46FFF7F5FF00218B460F461348144AD1
:10026000121A1FF07BFD0E4B002B00D098470D4B50
:10027000002B00D098470020002104000D000D48FD
:10028000002802D00C48AFF300801FF0F9FC2000DA
:1002900029001CF027FD1FF0DFFC00BF0000080054
:1002A0000000000000000000006000206802002044
:1002B0004C3900200000000000000000704770472B
:1002C0007047000008B50349034819F041FC034892
:1002D00008BD00BF300402004426002040E20100B7
:1002E000138C02480A46024919F032BC4426002009
:1002F0004804020010B5042104461CF02FFD2046DE
:1003000010BD10B5042104461CF028FD204610BD88
:1003100010B5042104461CF021FD204610BD00004C
:1003200010B505480C46054919F012FC204601217C
:10033000BDE8104001F042BF442600206F040200D7
:1003400008B50449044819F003FCBDE80840002042
:1003500001F0A0BE8F0402004426002010B5104614
:10036000144603F02FF822460346BDE81040024928
:10037000024819F0EDBB00BFB8040200442600207B
:1003800008B50368002B02DA0C481DF077FC8B429D
:100390000AD9B3EB410F4FEA410205D2002AB6BF9A
:1003A0006FF00043026003600068013001D51DF06A
:1003B0005FFCBDE808401CF0CBBC00BFE5040200B8
:1003C00038B5054608460C461FF0EDFE214682B2C0
:1003D00005F11C00BDE8384001F072B810B50121EC
:1003E00013201DF07BF94FF47A7019F039FE0F4C91
:1003F000002113201DF072F94FF47A7019F030FECD
:10040000206802F063F880B109492068002202F0F8
:1004100079FA50B10749002202F013FE28B1BDE875
:1004200010404FF6FF7101F005BA10BD84020020A4
:10043000FD040200020502000246034652F8080BC2
:10044000904203D0996801311CF088BC70470000CD
:1004500010B50B78DB0788B00C460CD401F004FE15
:10046000218C132202F024F81049114808B0BDE88D
:10047000104019F06DBB8A7F4B7F43EA0223CA7F8D
:10048000D1F8191043EA0242684600F0AAFB694617
:1004900002A800F0FBFB029A0649054819F058FB38
:1004A00002A8FFF7C9FF08B010BD00BF0705020092
:1004B000442600203905020030B58BB00C4604A854
:1004C000043102F03BFF049D002304F11C0101A84C
:1004D000CDE90133ADF80C3000F0ADFF019B0649CA
:1004E00006482A4619F034FB01A800F09CFF04A836
:1004F000FFF7A2FF0BB030BD5405020044260020D8
:1005000030B58BB00C4604A8043102F017FF049DEF
:10051000002304F11C0101A8CDE90133ADF80C3032
:1005200000F089FF019B064906482A4619F010FB96
:1005300001A800F078FF04A8FFF77EFF0BB030BDE4
:100540006F050200442600207FB50431684602F0A2
:10055000F5FE009A0449054819F0FAFA6846FFF7D3
:100560006BFF07B05DF804FB8905020044260020FC
:10057000012A30B403D10B78037030BC7047002AD5
:10058000FBD030BC1FF0C2BB73B505460E4619B98F
:1005900012B10D481DF06FFB941B0F2C019406D96E
:1005A000002101A8FFF7ECFE019B2860AB6022460A
:1005B00031462868FFF7DCFF019B2A686B60002149
:1005C000D15402B070BD00BF9D05020000B58BB0D4
:1005D000002301A81C31CDE90133ADF80C3000F047
:1005E0002AFF0199BDF80A2006AB0A4404A8049327
:1005F000FFF7CAFF01A800F016FF049A0449054856
:1006000019F0A6FA04A8FFF717FF0BB05DF804FB7A
:10061000C70502004426002038B500F1080304464F
:1006200003600D4649B108461FF0BDFD2A1820465B
:100630002946FFF7A9FF204638BD0122F7E72DE93B
:10064000F3470A9E1F46436801EB0208B21A1A4498
:10065000A3EB08090346019253F8082B9A420D4672
:10066000044614BF81680F2101A8FFF789FE824666
:100670001DB121682A46FFF77BFF37B12EB1324604
:1006800039460AEB0500FFF773FFB9F1000F07D0F9
:10069000216835444A4641440AEB0500FFF768FFEC
:1006A0002046FFF7C9FE019BC4F800A0A36002B07A
:1006B000BDE8F0872DE9F04FA1B00026054600F116
:1006C00008034FF496770C46036046600672334683
:1006D000009732463146FFF7B2FF3A463146286866
:1006E0001FF03CFB2B686F6083F82C61A37F627F57
:1006F000D4F8191042EA0322E37F42EA034222F0CF
:100700007F4210A8D5E9008900F06BFA10A914A85F
:1007100000F0BCFA227CE37BD4F80B10DDF850A08B
:1007200043EA0223627C12A843EA024200F059FA2B
:1007300012A91AA800F0AAFA1A9B608C0F931EF057
:10074000AFF82449278C1DF09FFA1DF0B5FCE68C0C
:10075000B4F824B0CDE90C010A2338465E430CF00E
:1007600056FB94F828101C4A1C4B002908BF13465E
:1007700022781B491B4C019712F0040F14BFA446AA
:100780008C4612F0010F14BFA6468E4612F0020FDF
:1007900018BF2146CDE90603DDE90C34D208CDE9C6
:1007A00002340F9B0093CDE90A12CDE908CE0E4A20
:1007B00053464946CDE9046B40461CF017FA1AA887
:1007C000FFF73AFE14A8FFF737FE284621B0BDE830
:1007D000F08F00BF0000A03FE5050200EC0502001D
:1007E000F6050200F2050200F905020030B589B0F5
:1007F0000D4602A811461446FFF75CFF029A09490C
:10080000094819F0A5F902A8FFF716FE0023B42243
:10081000CDE90032218C30231822284602F05CF802
:1008200009B030BDE90602004426002073B5044635
:100830002346406853F8086B9E4218BFA36800EB3C
:10084000020508BF0F239D420AD812B13044FFF7BA
:100850008FFE23686560002220465A5502B070BDA5
:1008600000920B46002201462046FFF7E8FEF0E723
:1008700038B5044608460D461FF095FC6368C3F181
:10088000FF4303F5FF0303F5FF437F33984202461E
:1008900002D904481DF0F2F929462046FFF7C6FFA9
:1008A00038BD00BFFE0602002DE9F04391B01446AA
:1008B0000E460AAA334904A81D46FFF7ADFE049A66
:1008C000DDF8148094F8209006AB9A4218BF069B7E
:1008D00008F1010708BF0F239F4207D901230093A6
:1008E00000231A46414604A8FFF7A9FE049B2649A7
:1008F00003F80890049B05970022DA5504A8FFF737
:10090000B7FFA27F637FD4F8191043EA0223E27F86
:1009100002A843EA024200F064F902A90AA800F022
:10092000B5F9DDE90A1204A8FFF780FF0AA8FFF76E
:1009300083FDD5B9154904A8FFF79AFF311D0AA810
:1009400002F0E4FCDDE90A1204A8FFF76FFF0AA831
:10095000FFF772FD049A0E490E4819F0F9F804A841
:10096000FFF76AFD11B0BDE8F083012D01D10A49FE
:10097000E1E7022D01D10949DDE7032DDED1084968
:10098000D9E700BF130702001F0702002A07020071
:10099000E74B0200442600203C0702005E070200ED
:1009A0007E07020010B5094C09490A4822461DF08D
:1009B0005AF92246084909481DF055F922460849C6
:1009C0000848BDE810401DF04EB900BF00000020EF
:1009D000C10200000C000020BF0200000400002043
:1009E000BD020000080000202DE9F043484D494FAA
:1009F000DFF82491DFF8248189B028464FF4E131F3
:100A000019F0B3F84649284619F0A2F8642019F005
:100A100027FB012113201CF039FE01AA414902A83D
:100A2000FFF7FAFD02A801F0D3FB02A8FFF704FDCF
:100A300001F00AFB01223C49386001F0B1FD3B495D
:100A4000386801F0EBFF4FF4007341F20A22384995
:100A5000064602F00EFB37490446FFF7B1FC494653
:100A6000204600F0BDFD204600F049FE1921044655
:100A700000F0B0F84146204601F074FA2E4938687B
:100A800001F0CCFF4FF400731A222C49074602F004
:100A9000F0FA2B490446FFF793FC4946204600F044
:100AA0009FFD142341F20A022649204600F0CCFEA5
:100AB00025490446FFF784FC4146204601F052FADE
:100AC00001F0D8FA01AA0446204902A8FFF7A4FDC4
:100AD00002A9204600F047FB02A8FFF7ADFC314613
:100AE000204600F02AFB3946204600F026FB20462F
:100AF000012100F00FFB00221146204600F004FC0B
:100B00001349284609B0BDE8F04319F021B800BFE9
:100B10004426002084020020040000200800002059
:100B2000B0070200C80702000C000020D207020034
:100B3000D7070200DC070200FD04020002050200E4
:100B4000E3070200E9070200EE070200FC070200CB
:100B500008080200072200F0B3BC000010B5044BE7
:100B6000044640F81C3B00F05EFC204610BD00BF70
:100B70009C08020010B50446FFF7F0FF20463C2118
:100B80001CF0ECF8204610BD30B589B004460D4687
:100B900003A842F6041102F02FFB03A900950723D6
:100BA0000222204601F08CF92146084B41F8343BE3
:100BB000074B18689A889B79606304F11C008A804F
:100BC0008B71FFF7C7FF204609B030BDB4080200A3
:100BD000C408020003461C3003F8341F1946FFF70F
:100BE000B9BF13B56C4684E806000160A279A188FC
:100BF0008180827102B010BD704708B50B46017844
:100C00001A78914208D1411C0622581C1FF06EF838
:100C1000B0FA80F0400908BD0020FCE730B591B083
:100C20004B780993174B08938A78CDE90632CA7836
:100C3000CDE904320A79CDE902324A79CDE90032B0
:100C400004468B79104A12210BA81BF0CFFF04F148
:100C5000080323600BA81FF0A6FA0F28054604D945
:100C600001301CF075F8A560206020682A460BA9A9
:100C7000FFF77EFC23686560002220465A5511B0BC
:100C800030BD00BF7A4B0200CB08020010B504460D
:100C9000FFF7C4FF204610BD10B50C1A134605D04F
:100CA0000146224618461FF03FF80346181910BDAA
:100CB00010B50C1A134605D00146224618461FF0FF
:100CC00033F80346181910BD002808B506D001DA1C
:100CD0001CF0CEFFBDE808401CF03AB808BD10B5C6
:100CE000D0E900240020A41AA04207D213185B7890
:100CF0008B4205D0135C01331844F5E74FF0FF3009
:100D000010BD10B50446006818B1A168091A1CF09E
:100D100025F8204610BD70B5D1E90036F61A00233B
:100D20000446C0E90033836030460D46FFF7CCFF30
:100D3000C4E900000644A6600246D5E90001FFF7B9
:100D4000ABFF6060204670BD10B50446FFF7E3FFBF
:100D5000204610BD10B504461046D4E900236FF0BC
:100D600000449B1AE21A8A4201D21CF087FF994282
:100D700038BF1946C91805D20029ACBF08466FF024
:100D8000004010BD2046FCE72DE9F04385B0044645
:100D9000FFF7A5FF431C07464FF000036DD0256801
:100DA00003939842CDE9013305EB000602DA34489B
:100DB0001CF064FFFFF788FF3146C319024601901B
:100DC00028460393FFF768FF266802900546F05D0A
:100DD000D4F80480074401373E44B04516D0039B45
:100DE000A8EB06075B1B9F4223D82A4641463046A4
:100DF000FFF752FF029A29463A4428460292FFF72B
:100E000057FF2A4631463046FFF746FFDDE901121B
:100E1000206801906068039B0290A0680390C4E979
:100E20000012A36001A8FFF76CFF012005B0BDE828
:100E3000F0833946134A01A8FFF78CFF8146FFF77C
:100E400043FF2946024607460198FFF731FF414616
:100E500002463046FFF720FF029902462846FFF778
:100E600027FF0546019818B10399091A1BF076FF70
:100E7000CDE901754F440397C8E71846D6E700BF90
:100E8000EE0802001F0902002DE9F74F9A46036899
:100E9000524504460D461646A1EB030922D0D0E97F
:100EA0000183AAEB0207A3EB08039F4237D8A8EB04
:100EB000010B5F451BD2A8EB070B42464146584643
:100EC000FFF7F6FE6368BBEB05023B44636004D0AA
:100ED0002946A8EB02001EF027FF2A46514630465D
:100EE000FFF7DAFE2068484403B0BDE8F08F02EB5C
:100EF0000B031846424651460193FFF7CDFE626848
:100F0000A7EB0B073A44626041462846FFF7D0FE44
:100F10006268019B5A44626019462A46DFE73946F7
:100F2000104AFFF717FF8046FFF7CEFE294602461C
:100F300007462068FFF7BCFE514602463046FFF7E1
:100F4000ABFE616802462846FFF7B2FE0546206800
:100F500018B1A168091A1BF001FFC4E900754744E4
:100F6000A760BFE71F09020038B50D46D0E9004170
:100F70000C1B14441F2C05D8AB182A46FFF784FF1E
:100F8000012038BD0020FCE730B54B6809681E2BF6
:100F9000044638BF1046DAB228BF00201D2A89B0A7
:100FA00028BF1D22531C002802F102058DF80030D5
:100FB000EDB214BF092308230DF102008DF80130B2
:100FC0001EF0A4FE2A4669462046FFF7CDFF09B071
:100FD00030BD37B50C4601210546FFF780FE431CA6
:100FE0000ED03CB12B68184444F0040484700846C9
:100FF00003B030BD284603B0BDE83040FFF7C4BEA3
:1010000002238DF8051044F00404032201A92846A8
:101010008DF804308DF80640FFF7A6FFE8E72DE9CC
:10102000F047064688B008468A4602F0F1F8C0F359
:10103000C704042C39D0102C39D0022C49D10327F5
:10104000FFB239463046FFF74AFE421C08BF04F1A2
:1010500002083146054668460CBF5FFA88F8A0468C
:10106000FFF759FEDDE900239B1A03EB08096846E8
:10107000FFF747FEB9F11F0F2BD8504602F0CAF810
:101080006B1C014615D1631C22460DF102008DF840
:1010900000308DF801701EF039FE42466946304638
:1010A000FFF762FF08B0BDE8F0870527C8E707270C
:1010B000C6E73368585D5F1901300B190A463918C5
:1010C0003046FFF7E1FE3368585D04445C5501206B
:1010D000E8E70020E6E738B50023C0E90633C0E9B9
:1010E0000033C0E90233C0E904330384C3624363BD
:1010F0006FF00043836390F83C300446022523F0F0
:10110000030380F83C3005762946FFF762FF6576D9
:10111000204638BD90F83C3001F0030123F0030372
:101120000B4380F83C30704708B50EF0E7F930F01B
:1011300002030CBF0120002008BD38B504460D464F
:10114000FFF76DFF38B194F83C306FF3410384F83A
:101150003C30012038BD294604F10C00FFF75FFF49
:101160000028F0D1F6E738B590F83C30DB070446AC
:101170000D460CD501220C30FFF706FF38B194F86C
:101180003C306FF3410384F83C30012038BD01222C
:1011900029462046FFF7F8FE0028F0D1F6E707B50C
:1011A000826801910AB91CF06CFDC36801A99847D7
:1011B00003B05DF804FB000008B50378092B09D1E2
:1011C0004068162808D8084A01238340134203D0F8
:1011D00000F0E0FE002008BDCB6A002BFAD001F140
:1011E0002400FFF7DCFFF5E70018480081422DE9F5
:1011F000F04104460D4622D0D1E9007802688368A8
:10120000A8EB07069B1A9E421DD9002E19D001DAC1
:101210001CF02EFD30461BF09BFD05462A4641463C
:101220003846FFF739FD206818B1A168091A1BF08C
:1012300095FD25603544A560236833446360BDE8AF
:10124000F0813546EAE743689B1A9E4204D841463E
:101250003846FFF721FDEFE7F9183846FFF71CFD88
:10126000D4E90002D5E90031101A1844F1E770B54D
:1012700086B00C4605466846FFF766FD214603A882
:10128000009EFFF761FDDDE903313046C91A0EF01B
:1012900042FA064603A8FFF734FD6846FFF731FD22
:1012A0003EB905F10C002146FFF7A0FF012006B072
:1012B00070BD0020FBE770B586B00D460446684659
:1012C000FFF742FD294603A8009EFFF73DFDDDE93B
:1012D00003313046C91A0EF0FDF9064603A8FFF7A0
:1012E00010FD6846FFF70DFD66B920462946FFF759
:1012F0007DFF94F83C3043F0020384F83C30012039
:1013000006B070BD0020FBE72DE9F0472D4B1F789C
:1013100086B004460E46154627B90027384606B063
:10132000BDE8F0870EF018FA0028F7D100F09CFE17
:101330000746002841D194F83C309A071CD4214636
:101340002046FFF7B8FF0028E7D094F83C30DB07D1
:1013500012D504F10C08414603A8FFF7F5FCDDE9BE
:10136000039A03A8FFF7CDFCCA4505D041462046A5
:10137000FFF77DFF0028D0D0134BA663002E93F813
:10138000008008BF6FF000461DB12846FFF734FC0F
:1013900005460E4A0E4B002F08BF1346CDE9003418
:1013A000324604F11803294640460EF0B7F830F0F3
:1013B00002030CBF01270027B0E701F02BFC002837
:1013C000B9D1AAE7A402002099020020B9110000B7
:1013D000D125000008B590F83C30826B6FF34103D3
:1013E000014680F83C3022B9BDE808401146FFF7BD
:1013F0008BBFC36A13B12430FFF7D1FE08BD70B5AF
:101400000E4601210446701815461AF0CCFAB5F5BF
:10141000007F28BF4FF4007500232060A580E38083
:101420002681204670BD10B50446006808B11AF048
:10143000BEFA204610BD70B50C460989054601313B
:1014400000681AF0B2FA064688B118F041FEA38887
:10145000E2882E60AB802389EA8021682B813046A8
:1014600001321EF053FCBDE8704018F039BE70BD6B
:101470002DE9F041044688461746F2B1C5888388B5
:1014800015449D4219DC03890668ADB2AB4205D212
:101490003046691C1AF089FA258106466EB118F0AB
:1014A00017FEE0883A46414630441EF02FFC0023E8
:1014B0002660E580735518F013FE2046BDE8F081E4
:1014C000F8B50368054600240F461646C4801C7014
:1014D000FFF7CEFF2868324639461EF007FC20B9D8
:1014E000E888831B58425841F8BD2046FCE7704706
:1014F0000346C06A0A46016810B48C681946234640
:1015000010BC1847704770477047704710B50421EA
:1015100004461BF023FC204610BD70B504461C3069
:101520001D46FFF7CDFFE06A03682A462146DB68C7
:10153000BDE870401847000070B5D0E90D560D4B5E
:1015400003600446AE4207D055F8040B0028F9D0DA
:1015500003685B689847F5E7606B18B1E16B091A9F
:101560001BF0FCFB2046044B40F81C3BFFF75BFFE5
:10157000204670BD5C0902009C08020010B50446BC
:10158000FFF7DAFF204640211BF0E8FB204610BDA4
:10159000F8B50D4604469C461746061D0FCD0FC6EE
:1015A0002B68336000252583A5766246142104F15B
:1015B0001C00FFF724FF064B2360064BE362069BEB
:1015C0002785C4E90C35C4E90E552046F8BD00BF97
:1015D0005C09020010000020008D70470163704715
:1015E000024B002918BF0B46C36270471000002051
:1015F0002DE9F84FD0E9008993466FF06043A9EBDD
:101600000802B3EBA20F07468A464FEAA20402D1B2
:101610001E481CF033FB012C224638BF0122A418BF
:10162000A1EB08052ED27CB39C4228BF1C46A0002B
:101630001BF08EFB0646DBF800307351002D04DDF5
:101640002A46414630461EF06FFBA9EB0A090435D5
:10165000B9F1000F354404DD4A46514628461EF0D4
:1016600055FB4D44B8F1000F05D0B9684046A1EBD9
:1016700008011BF073FB06EB8404C7E90065BC603E
:10168000BDE8F88F1C46D2E72646D4E737090200AA
:10169000F7B5044608460191837ED4E90D215BB17C
:1016A000002315461E46A94206D055F8047BB842D1
:1016B000F9D186760123F6E79142154609D02D68C7
:1016C000A84202F10402F7D1214600F053FC03B016
:1016D000F0BD2BB9E36B8B420BD041F8040BA16337
:1016E0002146019800F046FC00F0BEFC00F0D9FE57
:1016F000EDE701AA04F13400FFF77AFFF0E738B50F
:1017000005463C201BF024FB29460446FFF73CFA23
:1017100028462146FFF7BCFF204638BD2DE9F041A1
:1017200088B00E46054642F6041103A817469846AF
:1017300001F062FD03A9304601F07CFD58B1284656
:10174000FFF7DDFF044628462146FFF7A1FF2046AC
:1017500008B0BDE8F08134201BF0FAFA009543464A
:10176000BAB23146044600F0ABFBECE710B50446D4
:10177000006818B1A168091A1BF0F0FA204610BDE4
:101780002DE9FF471E46BDF83040074615468846FE
:101790004FF6FF7300293CD0002A3AD09C420CD06F
:1017A00091B2404612F0BEFC0246E0B1398B2046B1
:1017B000C6B30FF081FE044627E000F055FC014659
:1017C00001A801F091F9DDE9019A0024ADB2D145FB
:1017D00018D02946404612F0A5FC044630B901A8AD
:1017E000FFF7C4FF204604B0BDE8F08739F8020BCC
:1017F000398B22461EB10FF05FFE0446E7E70FF07B
:10180000A9FEFAE701A8FFF7B1FFB4FA84F0400996
:10181000E9E79C42398B08D016B100222046C8E780
:10182000324620460FF096FEC5E7084610F0A2FEAD
:101830000120D8E707B50022009101231146FFF7E8
:101840009FFF03B05DF804FB70B58CB004461546ED
:1018500006A86A461E46FEF7DFFE06A901A801F0AB
:1018600061FC33462A4601A92046FFF757FF04468C
:1018700006A8FEF7E1FD20460CB070BD024A034900
:1018800003481CF0F0B900BF00000020EF14000076
:101890001000002070479A8C824202D10A8802B15F
:1018A0009A6000207047704770470120704770476A
:1018B000704710B5042104461BF050FA204610BDB5
:1018C00000F054BC0846014900F062BC40E201004F
:1018D0000846012100F072BC10B52C2204460021FC
:1018E0001EF03CFA204610BD2DE9F04186B00023E1
:1018F000054601930C4631B3808C01A900F03CFCF5
:1019000068BB019BAB6085F8270006B0BDE8F0819D
:101910000127A88C002100F02FFC20B14FF0FF31EF
:10192000304601F01CFD039B434501D1012FEFD14F
:1019300000222A612BB1AB60304601F00FFD20463A
:10194000E3E70124F8E702AE0B46072201463046E2
:1019500001F0FAFC02272E6140F20628D9E795F83B
:101960002730013385F82730CFE710B50446808C47
:101970000DF028FF30F0020304D0072802D0A06049
:10198000002010BD0120FCE710B504460EF08EF8D3
:1019900030F0020316BFA0600120002010BD808C33
:1019A0007047034608688A791860888898809A7119
:1019B0001846704770B5D0E90525954211D052F808
:1019C000043B988A8842F8D8188D8842F5D3D3E929
:1019D00006369E42F1D053F8040B848C8C42F8D129
:1019E00070BD0020FCE7000010B502460446054922
:1019F000808C0FF009FD10B1A060002010BD012007
:101A0000FCE700BF971800002DE9F04103780F694B
:101A100094B004460D46122B41D8DFE813F0750050
:101A2000130040004000EF00EF00AC004000400019
:101A300040000D016B01C100400040005D013C0110
:101A400040004B0190F8262090F82530D0F8211066
:101A500043EA022390F8272009A843EA0242FFF74D
:101A6000C0F809A800F06CFB0546D0B9227EE37DE2
:101A7000D4F8131043EA0223627E43EA024300F0E3
:101A80007F421A4309A8FFF7ACF809A800F058FBF9
:101A9000054630B9208D00F043FB054608B9002605
:101AA00096E06668162E07D8914A0123B340134288
:101AB00002D0304600F06EFA0023EB84286A40F230
:101AC0003E239E4203681DD195F82820110719D5A1
:101AD000DB683246294698474FF6FF73AB8495F88A
:101AE00028309A0732D5002F41D040F23E2296424C
:101AF0003DD143F0040385F828303146384601F0E3
:101B000053FCCCE71B69E4E78A8C4FF6FF739A42DB
:101B100041D191F8283013F0080301D1002F3AD0B9
:101B200066681A2E15D12289AA8423B1286A03680F
:101B300029469B68984795F8286016F0100605D04E
:101B40002846FFF751FF0028A9D1AE68002FD4D155
:101B5000A5E7002EE7D0002BF8D0286A03683246AC
:101B6000DB682946984795F828305B07EED528466C
:101B700000F0A2FAEAE78A8C03899A428FD191F8A1
:101B800026300133DBB2022B81F8263003D90C203A
:101B900011F052F983E7208913210DF013FE7EE73F
:101BA0008A8C43899A427FF47AAF01892846FFF7ED
:101BB00001FF0546002800F0D8806368DF881968B7
:101BC00000F104083A464046FFF77AFC20B90D269A
:101BD000304614B0BDE8F0816368DE68002E00F086
:101BE000C880F28831684046FFF742FCF3886A8972
:101BF0001F44BA42EBD1F66897B2EFE78A8C83892B
:101C00009A427FF44CAF086A626803685B69984740
:101C1000002800F0AC802378042B7FF440AFA36849
:101C2000EA8D1A80A3682A8E5A80A3686A8E9A80E9
:101C3000A368AA8EDA8032E78A8C03899A427FF4FD
:101C40002EAF43681BB140F20622934219D109A876
:101C5000FFF742FE208909A90DF0CCF908B1002652
:101C600074E7626840F206239A420CD10DF12F000E
:101C700015F0B1FA95F82710012902D12846FFF78F
:101C800033FE666862E785F82700286A036809A9B9
:101C90001B6A9847F5E709A8FFF71EFEA08809A967
:101CA0000DF0A8F90028DAD1286A036809A99B6A0F
:101CB0009847D4E709A8FFF70FFE208909A90DF07E
:101CC00099F90646002850D1286AA27A0368294665
:101CD0001F6BE37AB8477BE78A8C83889A427FF44C
:101CE000DEAE086A22890368DB6A9847B7E700BF5F
:101CF000001848008A8C83899A427FF4D0AE09A8E4
:101D0000FFF7EAFD09A9A0890DF074F90146002842
:101D1000A5D12679032E16D1142204A81EF01EF890
:101D20008DF8106000F022FA1F4B0590984205D103
:101D3000286A036809A9DB6998470590A08904A966
:101D400014F0A8FDABE6042E06D1286AA268036849
:101D500009A95B6A9847A2E6022E7FF4A0AE286A22
:101D6000036809A99B69984799E6012630E73B2655
:101D70002EE7AB6B002B3FF492AE237B69686A8938
:101D80000992DB4303F001038DF80B300DF10B03D7
:101D90000093CDE90351EC6B09AB04AA03A905F14B
:101DA0003000A04714E700BF40E20100808C4FF6EE
:101DB000FF73C01A18BF0120704710B504460068B1
:101DC00018B1A168091A1AF0C9FF204610BDF0B574
:101DD000D0E9056785B00446B7420BD056F8045BDE
:101DE000002DF9D0284600F07EFA2C2128461AF062
:101DF000B5FFF1E763690193A3690293E369039374
:101E00000023C4E90533E36101A8FFF7D6FF05B05D
:101E1000F0BD10B50446FFF7DAFF94F82830DB0771
:101E200004D5206A10B103685B68984704F1140078
:101E3000FFF7C3FF204610BD024A034903481BF0C9
:101E400012BF00BF00000020951800001400002001
:101E50000346C06A0A46016810B48C6819462346D6
:101E600010BC18477047704710B5042104461AF09B
:101E700075FF204610BD70B504461C301D46FFF7A7
:101E80001FFBE06A03682A462146DB68BDE8704014
:101E90001847000010B5044B044640F81C3BFFF700
:101EA000C2FA204610BD00BF9C08020010B50446CF
:101EB000FFF7F0FF204634211AF050FF204610BDF6
:101EC0002DE9F0410F4604469C468846061D1546FE
:101ED0000FCF0FC63B683360002686B062461421E0
:101EE0002683A67604F11C00FFF789FA1B4B2360BA
:101EF0001B4BE3620C9B268542F60211236301A86B
:101F000001F07AF901A9404601F094F908B10123E2
:101F1000A376C5F3400315F00C0F18BF43F002037E
:101F2000AA0548BF43F004036F0548BF43F0080308
:101F30002E0548BF43F01003E80448BF43F02003D8
:101F4000A90448BF43F040036A0448BF43F080033C
:101F50002046238506B0BDE8F08100BFD409020009
:101F600018000020024B002918BF0B46C3627047BF
:101F70001800002001637047024A034903481BF020
:101F800072BE00BF00000020671E00001800002085
:101F900070470000024B1A780AB100221A7070478D
:101FA000A402002010B5042104461AF0D7FE2046F2
:101FB00010BD08B516F054FBBDE8084017F0D0B8C6
:101FC0000846114615F05EB910B5134C207810BBC9
:101FD00015F0DFFFF8B9012015F0DBFF0246D0B99C
:101FE000014612F03EF810B10C4B01221A7001208C
:101FF00018F0C8FF01232370094B1B785BB1094B14
:10200000186808B100F083F9074B186818B1BDE8EB
:102010001040FFF7DFB910BDA40200209902002094
:1020200098020020A00200209C020020054B1B68A3
:102030000A46196810B48C6801461846234610BC3D
:10204000184700BF1C00002038B5064C236833B980
:102050001C201AF07DFE054600F0F4F9256020688A
:1020600038BD00BFA8020020014B1868704700BFB0
:10207000A802002038B5064C236833B940201AF076
:1020800067FE0546FFF727F82560206838BD00BFCA
:102090009C02002010B50446FFF7ECFF2146002209
:1020A000BDE81040FFF730B908B5FFF7E3FFBDE822
:1020B0000840FFF739B8000070B5044660B3174E0A
:1020C0003368984228D1FFF771FE58B1306890F814
:1020D000283043F00203BDE8704080F82830132117
:1020E000FFF743BC2369356853B195F8283043F0B6
:1020F000040385F828302846BDE87040FFF744BC4B
:1021000035B12846FFF785FE3C2128461AF026FE09
:1021100000233360012070BD0020FCE7880200200E
:1021200038B5064B1C68054624B12046FFF737FC3E
:10213000854200D00024204638BD00BF8802002020
:10214000094B37B51C6805461CB90024204603B06E
:1021500030BD21466846FFF724FC29466846FEF755
:102160004CFD0028F1D0F1E788020020014B1868EF
:10217000704700BF2400002010B50C460DF0EAFDAA
:1021800004B1206030F002030CBF0120002010BD1C
:1021900030B5044687B00D461422002101A81DF079
:1021A000DDFD0223208C8DF8043001A9029514F086
:1021B00071FBB0FA80F0400907B030BD00207047D5
:1021C00008B500680AF00AFDB0FA80F0400908BDC1
:1021D00038B5144D2B780446DBB916F023FA124BB0
:1021E000124A1A61124A5A61124A9A621A8922F4F0
:1021F0006F6222F00F0242F003021A81204603228E
:10220000DA721A73FFF7DCFF15F028FD0A4816F0A2
:1022100073FF0A4C2378012013B918F0B3FEF9E7D5
:10222000287038BD9802002078010020951F00001A
:10223000C91F00002D200000B31F0000A4020020D1
:1022400010B50446006818B1A168091A1AF086FD95
:10225000204610BD10B50446FFF7F2FF204610BD22
:1022600010B5084C0849094822461BF0FCFC0848F8
:10227000084900232246C0E90033BDE810408360CE
:102280001BF0F1BC00000020911F00002000002086
:102290008C0200205522000010B50446006818B1D9
:1022A000A168091A1AF05AFD204610BD7FB5D0E981
:1022B00006560446AE4207D055F8040B0028F9D064
:1022C00003689B689847F5E7A3690193E369029364
:1022D000236A03930023C4E90633236201A8FFF7AE
:1022E000DBFF04B070BD10B50446FFF7DFFF04F15B
:1022F0001800FFF7D1FF204610BD704770477047A8
:1023000010B5042104461AF029FD204610BD0146EF
:10231000162251F80C0B03681B691847024A03493F
:1023200003481BF0A0BC00BF00000020FB220000FF
:10233000280000207047704770477047004870477A
:1023400040E201007047704710B5042104461AF0BE
:1023500005FD204610BD2DE9F0410378012B86B024
:1023600005460C4620D1836801A8596800F0CCFED0
:1023700000232360FFF778FED0E90278B84510D03B
:1023800057F8046BB37D002BF8D1B38A002BF5D13D
:1023900001A9304600F04EFF0028EFD0AB88B38291
:1023A000266006B0BDE8F0810A68002AF9D0022B49
:1023B0001DD1836801A8196800F0A6FE00236360A0
:1023C0002368D3E90678B845EBD057F8046BB37EA1
:1023D000002BF8D1338B002BF5D101A9301D00F073
:1023E00029FF0028EFD0EB8833836660D9E7032B01
:1023F000D7D14B68002BD4D0836801A8196800F0AE
:1024000083FE6368D3E90D67B742CAD056F8044B20
:10241000A37E002BF8D1238B002BF5D101A9201D21
:1024200000F008FF0028EFD0AB882383B9E7000055
:1024300008460149FFF7ACBE40E201000846012111
:10244000FFF7BCBE027822F00F020270054A42601C
:102450000022C0E90222026182614FF6FF7282828D
:10246000704700BF2C0000202DE9F843D0E9025945
:102470000E46174600244D45A84610D0D8F8000057
:102480003146043500F0D6FE0028F4D0BC4203D11A
:10249000D8F80000BDE8F8830134A4B2EBE70020CF
:1024A000F8E70378DA0744BF43F00203037070478C
:1024B00008B5084611460DF085F930F0020303D047
:1024C000C31F5842584108BD0120FCE7808A4FF6DF
:1024D000FF73C01A18BF012070472DE9F0478CB078
:1024E00000AF14460646381D1D46FFF7F5F9391DA5
:1024F00030460CF07FFD2378032B4FD8DFE803F044
:10250000022002206368DB8843B14FF6FF739E42CE
:1025100004D02B68391D9B682846984717F0D8FDD2
:102520006A8CE969606816F0DCF9044617F0D8FD9A
:10253000002C18BF112420463037BD46BDE8F08777
:102540006468B5F82090E688B145E84602D20D24CB
:10255000C546F0E709F10703DB08A8EBC3039D4676
:10256000216832466846EA461DF0D0FBE46864B153
:10257000E288B3189945EADB0AEB060021681DF0F2
:10258000C5FBE3881E44B6B2F0E72B683246D3F8A9
:102590000C9051463B1D2846C847D9E70E24CAE790
:1025A000037821B1416062F3820303707047024AED
:1025B000426061F38203F8E72C00002010B50C465E
:1025C000FFF758FD21460022BDE81040FEF79CBEF3
:1025D0002DE9F04391B0054605A80C46FFF77CF9BC
:1025E000FFF742FD2B780646122B1BD8DFE813F0CD
:1025F000130034001A00E8001A001A001A001A002A
:102600001A00E20002013501D500AB0068009C0011
:102610001B01F60026016B681A2B05D023B10020A0
:10262000FFF738FD002413E0288905A90CF0E2FC2F
:1026300004460028F6D1B28A70684FF6FF739A42BA
:1026400004BF2B89B382036805AA9B68314698476B
:10265000204611B0BDE8F0836868162806D89C4A69
:1026600001238340134201D0FFF794FC2B8DB28AE3
:102670009A4204BF4FF6FF73B382B36933B12A8D18
:10268000998C914204BF4FF6FF729A8405F10807B6
:102690000FCF05AC0FC40FCF0FC497E8070084E835
:1026A00007007068036805AADC686B683146A047BC
:1026B00033781A07B6D500213046FFF77FFFB1E720
:1026C000D0E90267B742ADD056F8043BD3E90648DB
:1026D0004445F7D02368EA881B8B9A4222D1A88808
:1026E00005A90CF087FC0028ECD12068FEF774FFE8
:1026F0009DF8141011F0010105D110F4606F02D0A3
:10270000A888FFF739FD21686A7AC86AD0F800C046
:10271000C2F3C003C2F3400202EB4303DCF818909B
:1027200005AAC8470434D3E7A88805A90CF062FCC1
:10273000044600287FF476AF70682989036805AAEB
:102740001B69984784E7D0E90227002497420DD0FF
:1027500052F8041BD1E9063C9C45F7D053F8041B02
:102760006E89088B864208BF0C46F5E7002C3FF4C3
:1027700059AF2B7B6A68DB0702D5002A3FF452AFC2
:10278000E06A036821461B699847E06A036805AA66
:102790005E696B682146B04744E7816900293FF4D0
:1027A00041AF8A8C6B899A427FF43CAF2846FFF791
:1027B0002BF937E721462846FEF7FEFC044647E79B
:1027C000288905A90CF016FC044600287FF42AAFDE
:1027D000706803689B6A05A9984739E7A88805A926
:1027E0000CF008FC002870D10DF11F0014F0F3FC70
:1027F00001242DE7288905A90CF0FCFB04460028DC
:10280000F6D17068036805A91B6A9847B169002969
:102810003FF408AF8A8C2B899A427FF403AF284695
:10282000FFF7F2F814E7A88805A90CF0E3FB0446CB
:102830000028DDD1706803685B6ACCE7288905A9A8
:102840000CF0D8FB04460028D2D17068AA7A03683D
:1028500005A9DE6AEB7AB047FAE614220021684641
:102860001DF07CFA2B79032B11D18DF80030FFF786
:102870007DFC184B0190984204D1706803685B6935
:1028800098470190A889694614F004F8CAE6042B19
:102890000CD1A88905A90CF0ADFB0028A8D170685F
:1028A000AA68036805A9DB699847BBE6022B7FF499
:1028B000B9AEA88905A90CF09DFB002898D17068D5
:1028C000036805A99B699847ACE60224C0E600BFEF
:1028D0000018480040E201001FB50846ADF8063078
:1028E0000021BDF818300391ADF8083001A9BDF8FA
:1028F0001C30ADF80420ADF80A300DF071F905B0C8
:102900005DF804FB30B58DB00446154606A86A464E
:10291000FDF782FE06A901A800F004FC2A4601A9E1
:102920002046FFF7A1FD044606A8FDF785FD2046D9
:102930000DB030BD2DE9F84FD0E9008993466FF016
:102940006043A9EB0802B3EBA20F07468A464FEAA1
:10295000A20402D11E481BF091F9012C224638BF77
:102960000122A418A1EB08052ED27CB39C4228BFFB
:102970001C46A0001AF0ECF90646DBF80030735153
:10298000002D04DD2A46414630461DF0CDF9A9EB65
:102990000A090435B9F1000F354404DD4A465146B1
:1029A00028461DF0B3F94D44B8F1000F05D0B968C1
:1029B0004046A1EB08011AF0D1F906EB8404C7E9FF
:1029C0000065BC60BDE8F88F1C46D2E72646D4E718
:1029D0003709020010B50A46D0E90114A14204D01B
:1029E000126841F8042B416010BDFFF7A3FFFBE71D
:1029F00073B5044644200E461AF0AAF9314605463E
:102A000000F04CF904F1080001A90195FFF7E2FF7D
:102A10002046FFF746FD019802B070BD10B58CB09E
:102A20006A46044606A8FDF7F7FD06A901A800F0CE
:102A300079FB01A92046FFF7DBFF044606A8FDF756
:102A4000FBFC20460CB010BD2DE9F84FD0E9008901
:102A500093466FF04043A9EB0802B3EB620F0746C1
:102A60008A464FEA620402D11E481BF007F9012C86
:102A7000224638BF0122A418A1EB08052ED27CB350
:102A80009C4228BF1C4660001AF062F90646BBF85B
:102A900000307353002D04DD2A46414630461DF0B8
:102AA00043F9A9EB0A090235B9F1000F354404DDF9
:102AB0004A46514628461DF029F94D44B8F1000F09
:102AC00005D0B9684046A1EB08011AF047F906EBBA
:102AD0004404C7E90065BC60BDE8F88F1C46D2E736
:102AE0002646D4E7370902000A4638B5958A4FF6DC
:102AF000FF7300219D42C0E900110446816002D0AD
:102B00001432FFF7A1FF204638BD42680B4604315E
:102B10008A4210B5044604D01846521A1DF004F932
:102B200003466268043A6260184610BD2DE9F84F0A
:102B30008146FFF7B9FA0FF0E9FF0AF065F80AF0ED
:102B4000F3F8D9F808604FF0000AD9F80C309E422B
:102B50005ED03468A37D022B0DD1204600F090F9A1
:102B6000442120461AF0FAF8314609F10800FFF72F
:102B7000CCFF0646E9E7D4F81880E36998453AD0D7
:102B8000474657F8045BAB7E022B11D12B682846D1
:102B90005B689847E269BA4204D0D21B3946404686
:102BA0001DF0C2F8E369043BE3614746B846E4E739
:102BB000D5F834B0AB6B9B451AD0D84658F8040B07
:102BC000837E022B11D103685B689847AA6B42454C
:102BD00005D0A2EB0802414658461DF0A5F8AB6BA4
:102BE000043BAB63D846C346E4E7A0F818A0FAE775
:102BF000A5F818A0DAE7A37D1BB1A4F814A0043649
:102C0000A3E7204600F07CF80028F6D1BDE8F88F55
:102C10000120FBE737B50478A10705460CD5FFF77F
:102C200055FC48B960F300042C702846FFF77EFF7E
:102C3000044638B9002402E014F00104F5D020461F
:102C400003B030BD0D4B0E4A1A600022CDE90022C0
:102C5000C3F804D00FF030FB0028EBD12B789A0793
:102C600007D560F341032B704FF6FF7101200AF086
:102C70004DF82B7843F001032B70E0E7780100203A
:102C800057230000024A034903481AF0ECBF00BF73
:102C900000000020352300002C00002070B50D46F8
:102CA000044606460FCD0FC62B6833600021C4E9E9
:102CB0000611A182A1752162202204F124001DF0D9
:102CC0004DF8204600F0B5FAA062204670BD38B538
:102CD000046B05467CB123681C3433B154F8100CE6
:102CE0000028F8D01AF038F8F5E7286B08B11AF088
:102CF00033F800232B63002385F8243038BD00000F
:102D00002DE9F04F044687B0FFF7E1FFD4E9063222
:102D10000027934206D053F8041B897E0029F8D17E
:102D20000137F6E7002F00F09080534BDFF84CB1ED
:102D30007D1C9D429ABF1C2068434FF0FF301AF063
:102D400009F84FF01C0A01370AFB05F24FF00001A9
:102D5000B8BF002206461DF001F8E369A56900939B
:102D60004FF00009009BAB426ED02A68917E00298B
:102D700068D1D2E90D328846934207D053F8041B3C
:102D8000897E0029F8D108F10108F5E7B8F1000FB4
:102D900041D008F101031A01B3F1006F34BF1046AE
:102DA0004FF0FF30019219F0D5FFB8F1FF3F019AC3
:102DB0004FF00001B8BF002207461CF0CFFF2B6880
:102DC0009A6BD3F8348001920023019A90451FD06A
:102DD000D8F80000817E0591B9B91A010292043039
:102DE00007EB0312CDE9032300F023FA029B039AB9
:102DF000F850D8F80000049BB0F828C0059982F874
:102E000004C0C2E902B05171013308F10408DCE7E3
:102E10000AFB0963DF602868043000F00AFA0AFB45
:102E200009F806EB08072B6846F80800BB6028681D
:102E3000C7F804B0FEF7D0FB00233882BB747B6177
:102E400009F1010904358DE726632646012506F8B8
:102E5000245F30460FF0B6FD30B12046FFF737FF54
:102E6000002007B0BDE8F08F30460FF083FD00284A
:102E7000F3D12846F5E700BF24499204DB24000083
:102E800070B50446FFF723FFD4E90656AE4207D0DB
:102E900055F8040B0028F9D003685B689847F5E7FC
:102EA000A06918B1216A091A19F058FF204670BDAF
:102EB0002DE9F843D0E906590E46174600244D4542
:102EC000A84611D0D8F8000031460430043500F08F
:102ED000B1F90028F3D0BC4203D1D8F80000BDE816
:102EE000F8830134A4B2EAE70020F8E72DE9F84FAF
:102EF000D0E9008993466FF06043A9EB0802B3EB79
:102F0000A20F07468A464FEAA20402D11E481AF0D1
:102F1000B5FE012C224638BF0122A418A1EB0805FA
:102F20002ED27CB39C4228BF1C46A00019F010FF93
:102F30000646DBF800307351002D04DD2A46414679
:102F400030461CF0F1FEA9EB0A090435B9F1000F77
:102F5000354404DD4A46514628461CF0D7FE4D4410
:102F6000B8F1000F05D0B9684046A1EB080119F08F
:102F7000F5FE06EB8404C7E90065BC60BDE8F88F88
:102F80001C46D2E72646D4E73709020010B50A46A8
:102F9000D0E90114A14204D0126841F8042B416029
:102FA00010BDFFF7A3FFFBE7F7B58B7E0191044649
:102FB000D4E9062508465BB1002311461E468D4222
:102FC00006D051F8047BB842F9D186760123F6E7A2
:102FD0009542114609D00968884202F10402F7D1EE
:102FE0002146FEF7FBFA03B0F0BD23B901A904F1B5
:102FF0001800FFF7CBFF21460198FEF7EFFAFFF725
:1030000033F8FFF74EFAEEE72DE9F341044640208E
:103010000E461746984619F09BFE4346BAB2314613
:1030200000940546FEF7B4FA002231462046FFF729
:103030003FFF20462946FFF7B7FF284602B0BDE80C
:10304000F08130B58DB00446154606A86A46FDF7F6
:10305000E3FA06A901A800F065F82A4601A920466E
:10306000FFF726FF044606A8FDF7E6F920460DB057
:1030700030BD70B58CB00446154606A86A461E469B
:10308000FDF7CAFA06A901A800F04CF833462A4613
:1030900001A92046FFF7B8FF044606A8FDF7CCF9C2
:1030A00020460CB070BD00207047000070B505468A
:1030B0000E4619B912B112481AF0DDFD941B0F2CFF
:1030C0000CD9002C02DA0F481AF0D8FD601C01D58B
:1030D0001AF0CEFD19F03CFEAC602860012C286887
:1030E00006D1337803702B686C6000221A5570BDCE
:1030F000002CF8D0224631461CF008FEF3E700BF52
:103100009D050200E504020038B514220D46002199
:1031100004461CF023FE1DB12946204614F00AF98E
:10312000204638BD70B50D4686B0142200210446F5
:103130001CF014FE6B68042B09D110222868227041
:1031400000211DF04DF96080204606B070BD082BAF
:1031500008D1202328682370102200211DF040F997
:103160006060F1E7102B0CD12B68621C03F1100199
:1031700053F8040B42F8040B8B42F9D180232370DF
:10318000E2E7242BE0D12868102201A91DF0ACF859
:1031900006460198102201A901301DF0A5F8090486
:1031A00041EA1041050401980E44102201A90130A2
:1031B0001DF09AF82D18019846EB0106102201A97E
:1031C0000130CDE902561DF08FF805460198102216
:1031D000002101301DF088F802AB01EB0541CDE97B
:1031E000040103CBC4F80900C4F80D1003CBC4F8E4
:1031F0000100C4F80510C1E738B5142204460D4695
:1032000000211CF0ABFD102323706580204638BDE3
:10321000007870470378202B05D0802B05D0102B29
:1032200005D10230704704307047013070470020EC
:10323000704770472DE9FF41057806460C46002D82
:1032400060D00A78002A5DD0AA4234D02E4B6F4657
:1032500003F1100EB84618685968BC46ACE8030084
:10326000083373456746F6D1802D15D12046FFF708
:10327000D1FF102A01460CBF0222042203A81CF031
:1032800045FD3046FFF7C6FF102241461CF02EFDDB
:10329000B0FA80F040091BE0802A33D13046FFF7B6
:1032A000B9FF102D01460CBF0222042203A81CF016
:1032B0002DFD2046E6E7102A0DD1FFF7ABFF0246B1
:1032C0000846FFF7A7FF138800881B1A5842584189
:1032D00004B0BDE8F081202A08D1FFF79BFF024629
:1032E0000846FFF797FF13680068EEE7802A09D1C8
:1032F000FFF790FF05460846FFF78CFF10220146B6
:103300002846C3E70020E3E7640A020030B58BB02B
:1033100004460846694614F02DF804F108032360BA
:10332000054648B11CF03FFF2A1820462946FFF702
:10333000BDFE20460BB030BD0122F6E710B50446B5
:10334000FFF7E4FF204610BD10B5C0E9001283600E
:10335000044617F08DFFE060204610BD70471FB592
:103360004A1C08461AD10291002403AB00944FF086
:1033700000422146204618F057F8039BA34211DB78
:10338000029B00934FF0004223462146204618F04E
:103390004BF8431E5842584104B010BD02A916F024
:1033A000BEF9E1E70120F7E707B54160C06830B139
:1033B0000021009101234FF0004218F08BF803B078
:1033C0005DF804FB0048704740430200CB78027868
:1033D000534003704B884278534043700A688378A7
:1033E00083EA122383700A68C3785340C370CB7991
:1033F000027953400371CB884279534043714A6844
:10340000837983EA122383714A68C3795340C37175
:10341000CB7A027A53400372427A4B89534043720B
:103420008A68837A83EA122383728A68C37A534054
:10343000C372CB7B027B53400373CB89427B5340E7
:103440004373CA68837B83EA12238373CA68C37B8E
:103450005340C373704700000449431E0F3013F8F4
:10346000012F8A5C1A708342F9D17047A00A0200CA
:103470001FB502788DF8002042798DF80120827AFC
:103480008DF80220C27B8DF8032002798DF804208C
:10349000427A8DF80520827B8DF80620C2788DF85F
:1034A0000720027A8DF80820427B8DF80920827867
:1034B0008DF80A20C2798DF80B20027B8DF80C2044
:1034C0004278C37A8DF80D2082798DF80E208DF820
:1034D0000F3010236A46194600F0EAF905B05DF88E
:1034E00004FBF8B5064608780C4600F0F0F90546EE
:1034F000607800F0ECF9A27863785340E2785340AA
:103500005D40454035706078277800F0E0F9054669
:10351000A07800F0DCF9A3785F40E3785F407D405D
:1035200045407570A0786578277800F0D0F96F4035
:103530000546E07800F0CBF9E3785F407D404540F8
:10354000B570207800F0C3F9637825785D40A378E2
:103550005D404540E07800F0BAF9EDB24540F570C5
:10356000F8BD0000F0B5264E07460C460FCE8DB0D4
:1035700001AD0FC50FCE0FC596E8070085E807001F
:103580003846002F38D0002C38D0381F214602464C
:1035900010344B780D781B0443EA0563CD782B4338
:1035A0008D78043143EA05238C4242F8043FF0D180
:1035B000144C04218A07036916D1C3F30742A55CA2
:1035C0001A0EA25C42EA0562C3F30725DBB2655D11
:1035D000E35C42EA054242EA032221F0030330336E
:1035E0006B4453F82C3C534050F8042F01315340A6
:1035F0002C290361DED101200DB0F0BD2046FBE790
:10360000740A0200A00A020070B5144688B005468C
:10361000002849D0002949D0002A49D010230A4661
:103620006846194600F044F921466846FFF7CEFE89
:10363000103401F1A0066846FFF70EFF6846FFF759
:1036400017FF694604A8FFF74CFF01A905A8FFF77B
:1036500048FF02A906A8FFF744FF03A907A8FFF740
:1036600040FF102319460DEB0302684600F020F9D5
:10367000214668461034FFF7A9FEA642DBD1FFF7CA
:10368000EBFE6846FFF7F4FE31466846FFF79EFE04
:10369000102319466A46284600F00AF968461022A7
:1036A000002100F012F9012008B070BD0846FBE7C8
:1036B0001046F9E710B50A460F3012F9103B002BFF
:1036C000B4BF8723002312F8014D83EA44039142DB
:1036D00000F8013902D01378DB09F4E710BD08B512
:1036E00020B15822002100F0F0F8012008BD10B5EB
:1036F000044688B11022002100F0E7F8102204F1FE
:103700003000002100F0E1F80023636400224FF450
:103710008033C4E91423012010BD70B50D46164650
:10372000044610B311B35822002100F0CEF8294608
:10373000A6643046FFF716FF10220021204600F055
:10374000C4F804F11005A26C21462046FFF75CFF87
:1037500021462846FFF7AEFF294604F12000FFF777
:10376000A9FF2046FFF7C3FF012070BD0846FCE714
:103770002DE9F0410D4616460446002861D012B9E5
:103780000120BDE8F08100295BD0D0E9143253EA72
:10379000020156D0013BD0F8448042F1FF32C0E92B
:1037A0001432B8F1000F2AD0C8F1100708F1300028
:1037B000BE42204408D22A463346314600F078F80B
:1037C000626C32446264DBE73B462A46394600F0CD
:1037D0006FF8103E0023636446443D44631E04F1C9
:1037E0000F0113F8012F93F830008B4282EA000298
:1037F0001A70F6D1A26C21462046FFF705FF04F1AE
:103800000F07102E0AD8002EBAD033462A4631466A
:1038100004F1300000F04CF86664B1E7631E691EE5
:1038200013F8012F11F8010FBB4282EA00021A704F
:10383000F6D1A26C21462046FFF7E6FE1035103E79
:10384000DFE700209DE770B50C460546E8B169B397
:103850004A6C102A1AD11031631E013904F10F008D
:1038600013F8012F93F83060724011F8016F9842FD
:1038700082EA06021A70F3D1A26C21462846FFF7AD
:10388000C3FE2046FFF72BFF012070BD02F1300080
:103890000021C2F11002204400F017F8636C2344A9
:1038A000802283F8302004F12001D5E70846ECE7B8
:1038B00038B50D46AB4211461C4604D81A461CF0DA
:1038C00025FA204638BD0024FBE71CF047BAC3099F
:1038D00003EB430303EBC30383EA4000C0B270472A
:1038E00010B50446236803B910BDA3F110005B684E
:1038F000236003B9646014F0E1FFF3E7002003F0F4
:103900008BB905F028BE00002DE9F843194D05F1EB
:103910003809AC6B0CB9BDE8F88316F0D9FBAB6B7A
:103920005B68AB63A4F110070BB9C5F83C9016F0C7
:10393000D7FB54F8100C14F0F0FB064654F8100CAA
:10394000023014F0EAFB04218046384615F074F882
:103950002288424505D106F44053B3F5805F00D874
:103960001AB9384614F0AAFFD3E73146384602F0B8
:1039700093FECEE7B0020020F8B5184D05F12407FC
:103980006C6A04B9F8BD16F0A3FB6B6A5B686B62E6
:10399000A4F1100603B9AF6216F0A2FB54F8101C94
:1039A0002389087803F00703022B04F1080200F0D2
:1039B0000F000ED0042B07D0012B01D101F0C8F865
:1039C000304614F07BFFDBE71146304602F000FC86
:1039D000D6E7314607F0F8F8F2E700BFB002002062
:1039E00008B5012005F0A1FD28B1BDE80840024856
:1039F000332115F01BBE08BD080300202DE9F0415E
:103A00001021054614F032FF0446C8B183680582D0
:103A10001E880368043326F0030603604079B6B2BB
:103A2000301A04382D1AA046002D09DD0021A8B255
:103A300014F0E8FE074630B9204614F03FFF3C463C
:103A40002046BDE8F081C8F80C00AD1B8046EBE7CE
:103A50000346084631B1587900F0C000A0F1400398
:103A60005842584170470346084639B15879800991
:103A700003D0431E5842584170470220704700004F
:103A8000032814D8DFE800F0020B020B0A4A0023D7
:103A900012F8010B68B90133062BF9D170474B1EA0
:103AA000053113F8010F20B98B42FAD1704700207D
:103AB00070470120704700BF24030020052970B51E
:103AC0000546164616D90C4B1B6813B10C2420462C
:103AD00070BD07F0E1FA04460028F7D12EB1074B7C
:103AE0002A681A60AA889A80F1E701F035F900285F
:103AF000F5D0EBE71224EAE7B40300202A03002004
:103B000010B5074B0C46014606480622002C08BF9C
:103B100018461CF0EBF8B0FA80F0400910BD00BF69
:103B2000240300202A030020034A044B00280CBF72
:103B300010461846704700BF240300202A030020C7
:103B400038B508F083FF0C4B05461C7A08F084FF5B
:103B50008DB9022C0BD0042C05D0012C0BD1BDE863
:103B6000384001F0DBB8BDE8384001F083BFBDE864
:103B7000384007F01BB838BDB002002010B5104B1C
:103B800000781B7A022B144600F00F000FD0042B94
:103B900005D0012B10D1BDE8104001F061B808F04C
:103BA0004FFF01462046BDE8104002F0E5BABDE8EF
:103BB0001040114606F0B6BD4FF0FF3010BD00BFFB
:103BC000B002002038B5034615460C4631B9084B03
:103BD000084A094840F2145119F024FB8A8B498B9A
:103BE000204614F003FF637E2B70207F38BD00BF9A
:103BF000A00B0200430C0200A60B020010B508F057
:103C000037FB002008F008FC0B4B0C4C18700C4BD9
:103C10007F221A7004F048FF4FF0FF31204615F064
:103C2000D7FA30B9074B084A084840F2635119F0F7
:103C3000F9FA43689847EFE721030020C402002007
:103C40002303002037110200370C0200A60B0200EC
:103C5000014B1872704700BFB0020020014B187A68
:103C6000704700BFB00200200146014815F0EABAD3
:103C7000C402002000234361054B9A6A00F1100141
:103C800014301160986203F11800FFF7EDBF00BF18
:103C9000B0020020F8B50B880778427803F0800462
:103CA000C3F3C01603F00703042B054607F00F0704
:103CB00003D1BDE8F84002F021BBA4B1082F08D819
:103CC000DFE807F00E050E050E230E1111000C2A79
:103CD00009D0012B30D0022B30D04FF0FF3529E036
:103CE000911F1F29F5D8012B11D0022BF5D1901C63
:103CF000FFF784FE044618B10146284608F028FA6A
:103D00003146204606F010FE0FE0222AE0E7901C24
:103D1000FFF774FE044618B10146284608F018FA69
:103D200032462146384600F079FE054614B1204659
:103D3000FFF7A0FF2846F8BD0024F1E70024DFE7E5
:103D400038B50446094D16F0C3F900236361EB6BE7
:103D500004F110021A601434EC6316F0C1F905F195
:103D60002C00BDE83840FFF77FBF00BFB002002045
:103D70000146014815F0BCBAC40200206FF44000AF
:103D800040F2FF3170470000014BD3E9000170475A
:103D9000B002002038B516F09BF908F073FB07F06D
:103DA000C9FC07F095F906F089F916F099F900F0C9
:103DB000C1FF194B194C00251D70194B28461D7069
:103DC00008F02AFB174B1870174B7F2204F13800BC
:103DD0001A70FFF785FD04F12400FFF781FD40F222
:103DE000033363822523A3734FF0FF33C4F80930F4
:103DF0001F23637302F09EFD05F05CFA07F0A0FC40
:103E00000A4B25721D609D8007F008FE06F092F8AF
:103E1000BDE8384008F02CBA22030020B002002090
:103E20002003002021030020230300202A03002078
:103E3000032938B504460D4606DD164B164A40F2F6
:103E4000A761164819F0EEF9C9B2002005F0C4FCCC
:103E5000A0421CD8012DA4EB000005D1C0F3CF0077
:103E60001B2838BF1B2038BD022D02D1C0F38F00A4
:103E7000F6E7032D02D1C0F38F10F1E715B9C0F3B7
:103E80000F10EDE7064B044A40F2CA61D9E71B2048
:103E9000E9E700BF0B0C02001A0C0200A60B02009F
:103EA000E41F020005F0F2B905F0FEB913B5334C7A
:103EB00000230622694620460093CDF803301BF00C
:103EC00015FFA0B900902060A080CDF80300062265
:103ED000694620461BF00AFF48B9684607F02EFEE7
:103EE00028B9DDF801302360BDF80530A380244CEB
:103EF00006F0CCF804210A23E3730022FF230846CE
:103F0000238216F083FA2246002342F8383FE26308
:103F1000224604F1140142F8243FA262194AE261E8
:103F2000194A2263194A6264194AA3612362E3624F
:103F300063632364A364E36463656061226504F1E1
:103F40005800144A15F03CFB05F0B4F907F0F8FBF3
:103F500000F00AFF07F0E0F802F042FD05F0D0FFA4
:103F600044F2EF120023C4E9002305F0D3FC05F06E
:103F7000C5FC05F01FFC02B010BD00BF24030020EB
:103F8000B00200207939000009390000033900002F
:103F9000FD380000E139000008F03EBA044A92F909
:103FA0000010814202D0107008F028BA704700BF9C
:103FB0002303002010B5044600F0CEFE08B1012016
:103FC00010BD07F069F80028F9D1084B1B68002BD9
:103FD000F5D1E307F4D4064B1B681BB9B0FA80F0A7
:103FE0004009EDE7D3F8BC300130F6E7B403002018
:103FF000BC03002010B504464C30FFF735FE00200E
:10400000FFF726FE16F064F8638923F0300363811E
:1040100016F066F8014B00221A6010BDA8030020BC
:1040200047F611229042034601D914F055BB0248CD
:104030005843800D704700BFDF18020038B5074BAA
:104040001C7883890C441B07C0E90544054604D548
:10405000034814F041FB0444EC6138BD7C080020A7
:104060000088130038B50121104B83660446406672
:1040700080F85810C07905F0AFFBA3895A070FD517
:1040800000F5FB700A4BA5691B78EB1AE36500236A
:1040900084F85A301E30FFF7C3FF0544256638BD4B
:1040A000DB0748BF00F55570ECE700BFB5400000E6
:1040B0007C08002038B5C468344B05461C6016F0F7
:1040C00007F8638913F0300F06D0314B314A4FF4B3
:1040D0009071314819F0A6F823F0300343F0100333
:1040E000638115F0FDFF638903F4C063002B48D1A1
:1040F0002A4A2B49A07908F095F920B1294B2A4A80
:1041000040F26641E5E70121084608F01BF894F902
:104110000900FFF743FF254BA97818786B6818440E
:1041200008F08EFB68BB08F04DF9FF23237205F001
:10413000E1FED0B108F09AFCA389DA0618D59B07F6
:1041400016D00021084608F053F9022218482146EB
:1041500008F0F8FB0546A0B9E3787BB107F0CEFC88
:104160000120FFF775FD284638BD08F08FFCE3E716
:104170001048214608F03CF90022E7E707F0C0FCB0
:10418000EEE72046FFF736FF0125ECE7A803002005
:10419000580C0200B30D0200750C02005555550075
:1041A000D6BE898EDE0C0200F00D02007C080020D5
:1041B000B9410000F53F000070B50C461146A26BF6
:1041C00002B1127CA3895E0726D5638913F0020F22
:1041D0000CBF2123A1230C250022AE1CE6716689A9
:1041E000F60748BF43F040030B70236A0360A38CBB
:1041F0008380A189490744BFD4F83210C0F8061063
:1042000000F1060344BFE18E99801AB1A06B002132
:1042100014F0ECFB284670BDDD0709D413F0020F43
:1042200014BF062302231F2A04D8951DEDB2D4E73C
:104230002023F8E7034B044A044840F2F71118F032
:10424000F1FF00BFE60C0200D50D0200750C020064
:1042500038B513460A6C0C464AB1127C1F2A06D99F
:104260000D4B0E4A0E4840F29A3118F0DBFF61897F
:1042700011F0010F0CBF042144211970236A03605F
:10428000A38C8380951DEDB222B1831D0021206C8B
:1042900014F0ACFB284638BDFB0C02008F0D020069
:1042A000750C0200F8B5064600680F46154608B1C1
:1042B00014F004FB0021284614F0D8FA044630B16B
:1042C000038A2B441F2B04DD14F0F8FA0024346019
:1042D000F8BD2A46394614F004FB0028F7D02046E2
:1042E000F2E7000008B504F0C7FB074A48B153895C
:1042F00013F0800004D05378002B0CBF1046002030
:1043000008BD1046FCE700BF3003002008B5074B8E
:104310007822002118461BF021FD07228270044AF2
:10432000C0E914201222828108BD00BF30030020A2
:104330003546000010B50446583007F0BBF9A378A5
:104340005A070BD413F0020F14BF26232523A371A1
:1043500004F14C00BDE81040FFF786BC2723F6E7C8
:1043600038B5438913F4C06F044623D013F40075A5
:1043700012D0C36B33B1806B14F0A0FAE36BA3636C
:104380000023E36315F0A4FE638923F400736381C3
:10439000BDE8384015F0A4BE5B050BD5006C14F0E9
:1043A0008DFA636CC4E9103515F092FE638923F42D
:1043B0008063ECE738BD38B500F12C05417904463F
:1043C00000F120020123284605F04CFDE0B115F074
:1043D0007FFE638943F00103638115F081FEA389A9
:1043E0005A0723D56179002304F13202284605F0EB
:1043F00039FD90B115F06CFE638943F002036381CF
:10440000BDE8384015F06CBE2379D907DFD415F02C
:104410005FFE638923F00103DEE76379DB07E9D4FC
:1044200015F056FE638923F00203E8E738BD00006B
:1044300010B50378044683B305F082FE04F15800FA
:1044400007F038F915F044FEFFF708FC012809D100
:1044500008F018F80020FFF7FBFB104B00221A6051
:1044600006F06AFB15F03CFE04F14C00FFF780FCFF
:10447000A06C18B113F0BEFD0023A36415F028FE54
:10448000638923F03003638115F02AFE0023237033
:104490002046BDE81040FFF763BF10BDA803002011
:1044A0000379012B10B504460ED94389DB050BD5E2
:1044B000FFF781FF15F00CFE638923F4807363819D
:1044C000BDE8104015F00CBE10BD00002DE9F0470E
:1044D0000378044633B9524B524A41F2D321524831
:1044E00018F0A0FE05F02CFE04F158062046FFF758
:1044F00037FF04F14C08304607F0DCF84046FFF780
:1045000037FCA07841072DD410F0020F14BF2622EB
:104510002522A379454F934228D106F00DFBA378BD
:10452000DA0721D413F0020F14BF26232723A37127
:104530002069FFF775FD656997F800A00544C4E997
:104540000555814614F0C4F82D1AB5EB0A0507D5B8
:10455000626913464B44991AE942FBD4C4E9053316
:10456000002515E02722D4E72523E0E75A1CD2B224
:10457000A2F125050121A940084206BF0233A3711B
:10458000A27114F0A5F83B7801330344A36101251F
:10459000A3891B0711D5D4E906329B1A002B0CDB2B
:1045A0002346A26C00203C2102F062FA0023A3649F
:1045B0002046BDE8F047FFF73BBF2046FFF770FFFE
:1045C0002046FFF74FFD05BB237823B9144B184A4B
:1045D00041F2A12183E794F85930A3B9A38913F0DC
:1045E000080F40F24711304618BF002107F016F8B7
:1045F00020B12046BDE8F047FFF79CBE3B78E26D56
:104600001344C4E90533BDE8F087304607F034F8B9
:104610000028F8D04046BDE8F047FFF725BB00BFB3
:10462000100D02007F0D0200750C02007C080020B6
:10463000630D02008068FFF749BF000010B5084C09
:10464000237863B12379012B09D915F041FD6389E2
:1046500043F480736381BDE8104015F041BD10BD87
:1046600030030020FFF766BE38B50A4C206880B1E1
:104670004C30FFF7F9FA0020FFF7EAFA256815F049
:1046800027FD6B8923F030036B8115F029FD002392
:10469000236038BDA80300200F292DE9F843044604
:1046A00001D0122053E03B4D2B78002B70D10279C2
:1046B0000388478890F80E80042AF2D8DFE802F0D9
:1046C000634961035600102616F008090CD1BB425D
:1046D000E7D8203B9BB243F6E0729342E1D8A7F1C2
:1046E00020039BB29342DCD86379032BD9D8A379FA
:1046F000012BD6D8284B93F90000284B93F90030B2
:10470000C01AFFF749FC68726379012B06D9D4F807
:104710000700E862224BB4F80B209A80637B13F009
:10472000F80FBED1002BBCD0B8F1030FB9D8B9F146
:10473000000F2AD140F27122574362792A71A2797F
:104740006A7185F80380AB702F61AE810020BDE8EF
:10475000F883D0F80700124BE8624FF00008B4F875
:104760000B209A801D2647464346ADE7D0F8070048
:10477000E8620B4AB4F80B1091804FF00008152640
:10478000A2E71226A0E713269EE740F6A667D4E725
:104790000C20DCE73003002021030020220300204E
:1047A0005C030020034B93F90030037001230B706E
:1047B00000207047210300200129F8B501D0122004
:1047C000F8BD0578FFF78EFD0446002800F08580CF
:1047D000012D7CD10378002B69D115F079FC638918
:1047E00023F00B03638115F07BFC3D492079FFF733
:1047F00047F90028E3D0A389DE075AD42279D507E8
:1048000061D5638943F001036381354B19682162E7
:104810009B88A384A38958070BD5E36AC4F8323078
:10482000238EE3866379D90742BF638943F002038D
:104830006381012A02D92046FFF7BDFD01232370C1
:104840000023A4F8763007F05BF8A37880EA1040E4
:10485000DA07A4F8740038D413F0020F14BF26232B
:104860002723A37105F080FC054605F01DF80746D7
:1048700013F02EFF42F210730646B7FBF3F003FB72
:104880001070FFF7CDFB0644A6612046FFF7EAFB58
:10489000E06D431B002B04DA236EE5651B1A2B44E5
:1048A00023661049002204F1580006F08FFE002014
:1048B00086E7A06C0028A1D113F08AFBA064002831
:1048C0009CD107207CE7084BA0E72523C9E7002DF2
:1048D0007FF475AFFFF7ACFDE9E7422070E700BF5A
:1048E0002A0300203D400000240300202029F8B5C1
:1048F00001D01220F8BD07781F2FFAD8461CFFF709
:10490000F1FC0446002833D0838903F01203002B06
:10491000EFD00578BFB215B3436C63B115F0D8FB87
:10492000638923F48063638115F0DAFB606C13F014
:10493000C5FF002363643A46314604F14400FFF7A3
:10494000B1FC636C0BB90720D4E715F0C1FB638998
:1049500043F48063638115F0C3FB0020CAE73A4645
:1049600031464030FFF79EFC236C002BF5D1EAE77F
:104970004220BFE72029F8B501D01220F8BD077802
:104980001F2FFAD8461CFFF7ADFC0446002843D081
:104990008389D9061AD55A0713D415F099FB638970
:1049A00023F04003638115F09BFB2578BFB285B9E6
:1049B0003A46314604F13800FFF774FCA36B4BBB59
:1049C0001EE004F059F80028E7D0D6E79B07E4D5AD
:1049D000D3E7E36B63B115F07BFB638923F40073CA
:1049E000638115F07DFBE06B13F068FF0023E36348
:1049F0003A46314604F13C00FFF754FCE36B0BB937
:104A00000720BBE715F064FB638943F400736381FF
:104A100015F066FB0020B1E74220AFE72DE9F84F23
:104A2000474E07460D4641B93068FFF7E3FA4FF0AD
:104A3000FF340020FFF70CF96AE012B9002333605D
:104A4000F5E7032801D00528F8D1D6F800802C68B6
:104A5000062204F1080108F120001BF047F9834603
:104A600020B14FF0FF3400233360E2E798F8039061
:104A700014F802AB032F0CBF09F0010909F0020979
:104A8000CAF3801A05F036FA48B9B9F1000F29D0F7
:104A90005A465146204606F0DBFF18BBE1E7514677
:104AA0002046FEF7D5FF002835D007F0C1F943B204
:104AB000002B88F8083012DB2A8B42F480622A83AC
:104AC000B9F1000F0ED0362024241E4A10FB0344F7
:104AD0004343144412F803A04FF0010BD8E7B9F197
:104AE000000FBED12B8B032F43F040032B831FD12C
:104AF0001548414607F07CFC14480022414607F067
:104B000021FF04460028AED12B8B43F010032B83EA
:104B10002046BDE8F88F5146204604F0CDFF00281E
:104B2000B3D04378002BB0D1C378002BADD098E739
:104B3000052F96D15146204600F0F4FC91E700BFC6
:104B4000A8030020D8050020F53F000051420000D6
:104B50002DE9F8433E4C23780F469146002B75D043
:104B600013881D060CD415F0B3FA638923F03003C3
:104B7000638115F0B5FABDE8F8433548FFF7A6BCE8
:104B800005285FD1A189628901F0100002F00802B6
:104B90000243E8D05806E6D5B846490718F8025B44
:104BA00003F48066C5F3801514D5002E48D094F91F
:104BB0000830284A3620242110FB031143431144B6
:104BC000D55C6379AB42CED1234806221BF08EF828
:104BD0000028C8D106B3D7F80230C4F826301F4BDE
:104BE000B8F804209A8094F90800414605F026F9A7
:104BF00094F908303621242211FB0323154A981812
:104C00009B58C7F802308388A8F8043094F908301C
:104C10004B43D55C0235EDB2A38983F01003C3F397
:104C200000134A462946384601F060FD00289AD014
:104C300063891A070AD4BDE8F8430548FFF7F8BBB3
:104C40004146BEE703288ED1DB068CD5BDE8F8834C
:104C500030030020D80500205C030020560300200C
:104C600008B50C4A0346032B106807D183899907BE
:104C70000ED4FFF7BFF94FF0FF3008E0052BF8D155
:104C80008389DA07F5D583F01000C0F3001008BD62
:104C90000120FCE7A8030020044B1A7822B1D87841
:104CA000B0FA80F0400970470120704730030020BF
:104CB00038B50B4DAA6C044632B90A4B0A4A0B4868
:104CC00041F20E4118F0AEFA2B46002101F0D0FE61
:104CD0000023AB642046BDE8384004F04FBC00BF61
:104CE00030030020230D0200460D0200750C020067
:104CF00010B50379012B02D80024204610BD43894A
:104D0000DB07F9D500F1200401212046FEF7A0FEC3
:104D10000028F2D1F0E726307047000008B507F010
:104D2000B1FB034B1868BDE80840FFF763B900BF4B
:104D3000A803002010B5074C2046FFF779FBA06BB5
:104D400013F0BCFD206C13F0B9FDBDE81040FFF777
:104D5000DDBA00BF30030020024B1878003818BFBE
:104D60000120704730030020FFF7D0BA47F6112228
:104D70009042034601D913F0AFBC02485843800D5E
:104D8000704700BFDF180200F8B5054610460E4612
:104D90001446FFF7EBFF074613F0A4FC231ADBB21F
:104DA00028681F2B08BF013738442860307808BFB7
:104DB00000230344DBB21E2B83BF1F3B33702B68E1
:104DC000337084BF01332B60F8BD000008B507F0D5
:104DD00059FB0020FEF73CFF014B00221A6008BD82
:104DE000B803002010B50446FFF7F0FF2CB104F122
:104DF000A400BDE81040FEF737BF10BD02786FF386
:104E000086120270FFF7EEBF027842F04002027095
:104E1000FFF7E8BFFFF7E6BF037843F0400310B5A4
:104E20000446037000F5987007F0A0FA04F584704A
:104E300007F0B6FAE279D4F8F800013ABDE810407C
:104E400018BF0122002107F0B5BAC279D0F8F800E6
:104E5000013A18BF0122002107F0ACBA03786FF3C2
:104E60008613037007F0AEBA38B50D4690F82410DB
:104E7000044611B9837F03F00301208BFEF7D8FFAE
:104E80002378617B5B0644BF043880B2A94228BF07
:104E90002946884228BF084680B238BD90F90030C4
:104EA000002B10B504460BDA04F0D1FA20B106222B
:104EB0000321204603F0B4FC23786FF3C71323705B
:104EC000A378D9060FD5B4F84E10CA0718D500211B
:104ED000204602F08FFF0021204604F05EFAA378FE
:104EE0006FF30413A370E3785B0708D50021204615
:104EF00004F060FB18B9E37860F38203E37010BD3F
:104F000011F04001E8D00621204602F073FF94F82A
:104F10003D10E1E7F8B504460D46174606F0D4F813
:104F2000D0F801302360B0F80530A380D0F8073006
:104F3000C4F80630B0F80B306381E96D064604F121
:104F40000C0013F0D3F82B6E23742B6E1B0A6374C2
:104F5000B5F86230A37495F84030E374B5F8781072
:104F600004F1140013F0BEF8B5F8701004F1160047
:104F700013F0B8F8B5F8981004F1180013F0B2F86F
:104F800004F11A00B5F8721013F0ACF8D5F825301A
:104F9000E36195F8293084F8203095F83F2095F8A2
:104FA000343043EA421384F8213033783B702220B6
:104FB000F8BD00001E2A08B505D9094B094A0A4860
:104FC000732118F02FF90B781A44D2B21E2A83BF2E
:104FD0001F3A0A7003680A7084BF0133036008BD7A
:104FE000070E0200C10F0200330E02001FB5D0F8F9
:104FF0008420C36F1344134A127804469B1A029309
:1050000090F8812090F880308DF807300DF107017D
:1050100002A8FFF7CFFF636F33B1E26F1344029A28
:105020009A1A002AB8BF029303A806F071FB28B1B0
:10503000DDE90232D31A002BB8BF0292029804B005
:1050400010BD00BF7C0800202DE9F04F90F9013021
:10505000002B8DB0044609DA2378002543F00403C1
:1050600023702E464FF0010800272BE0D0E92C6A70
:10507000002E40F0D080077817F0040702D1BAF173
:10508000000FE9D094F8F020002F40F01F81DAF8EB
:1050900004300193022AAAF1100640F28180E179DE
:1050A000012903D0032A7BD0022979D1504602F08E
:1050B000CDFC054600286FD1237843F0040323700C
:1050C0004FF0010823785B070AD50CAB029300234D
:1050D0008DF82030ADF82230ADF8243008AD02AEA6
:1050E00094F838300BB148F008080FB148F01008B8
:1050F00094F839300BB148F0040894F9013085F880
:105100000180002B80F2F780DFF8BC824FF00009AD
:105110006B7803F00303032B40F03D8133681B7869
:10512000062B40F00081237843F0400323700123D5
:1051300084F8F13004F5987007F018F904F58470DC
:1051400007F02EF9E279012A14BF00220122D4F8D7
:10515000F400002107F02EF9B8F1000F01D1DFF8BB
:105160006C822146404607F043F999484A46314649
:1051700007F0E8FB68B9237867F3410323705B0706
:1051800007D594F90130002B03DAA37843F001032B
:10519000A3700DB0BDE8F08F019B3BBB00230193D2
:1051A000D4F8B4205268C4F8B4201AB904F1B40297
:1051B000C4F8B8209AF80920554602F00302032AE1
:1051C00035F8089B20D1314620465FFA89FB03F071
:1051D0004AFB9AF80980AAF80CB0DDF804A0C4F8DC
:1051E000B0600027BAF1000F36D17AE0019802F0E2
:1051F0002DFC0028D4D1E279012ACFD0304602F02C
:1052000032FC0028CAD0CBE749462046FFF72CFEE7
:105210005FFA80FBDDE7778BB6F8109096F81CB04C
:1052200006F11805002F4ED196F8198008F00308F2
:1052300094F8F020022AD5D9BAF1000F51D0504687
:1052400002F004FC40B9E379012B4AD0D4F8B00055
:1052500002F009FC002844D02046FFF7C7FE07EB08
:105260000B034B45B8BFA9EB07098246607BA17FC2
:10527000A78BB6BFA9EB0B091FFA80F91FFA89F9B2
:10528000484528BF484601F00301C0B2019104F02F
:10529000A3FA01998146584604F09EFAE379012B5E
:1052A00008BFA38B07F5E1774F44384404BF96331A
:1052B000C018FFF75BFD074613F00AFA0744A7EB97
:1052C0000A07FF0FFEE64FF00108B1E70025022AAA
:1052D000A9462F46AB464FF0010883D9BAF1000F1B
:1052E00005D107EB0B034B45BFF6BEAEB4E7504606
:1052F00002F0ACFBAEE7E379022B0FD177B994F85B
:105300003A305BB994F83C30D80607D4336840464D
:10531000197802F0BAFC00283FF4F6AE4FF000080E
:105320004FF00209F4E6052B3FD123786FF3861383
:1053300023700823A4F8F03007F044F8254A264BE0
:10534000B8F1000F0CBF904698460AE723786FF338
:10535000861323700623A4F8F03007F033F800E733
:10536000237843F040032370012384F8F13004F5DF
:10537000987006F0FBFF04F5847007F011F8E279ED
:10538000D4F8F400511E4A424A41002107F012F8B5
:10539000124A134BD4E723785A067FF5E2AEE2793E
:1053A000012384F8F1309A42CEE60B2BF3D1E37956
:1053B000012BCBD0022BD3D00A4B0B4A0B4840F227
:1053C0008F5117F02FFF00BF154E00004B4E00000D
:1053D000C53B0000194E0000094E00005D4E000064
:1053E000FD4D0000E41F0200D20F0200AB0E0200D0
:1053F000F8B5C468444B05461C6034B9434B444A75
:1054000040F2DA51434817F00DFFA3792BB920463B
:10541000FFF7E8FC01252846F8BD06F071FB0420E3
:10542000FEF716FCD4E9171294F835003A4F06F04F
:10543000F9FF07F02BFBA07FC0F3810100F0030010
:1054400006F080FE354B93F90000FEF7A7FDE679E4
:10545000012E06D0022E2AD0314B2D4A40F2556142
:10546000D0E76B683878A978184407F0E9F9054661
:10547000A8B923785A0617D504F5987006F076FF78
:1054800004F5847006F08CFFD4F8F4003246294607
:1054900006F090FF2046FFF7D7FD054668B320468B
:1054A000FFF7A0FC012528E006F08CFFF2E7237847
:1054B0005B0626D504F5987006F058FF04F5847055
:1054C00006F06EFFD4F8F8000122002106F072FF0A
:1054D0006B683878A978184407F0F2F90546002877
:1054E000DDD1237843F010032370D4E923323D3318
:1054F00003EB4202014606F07FFE13F0E9F8E06696
:1055000089E706F05FFFE3E7B8030020150F02000C
:10551000E50F0200AB0E02007C08002021030020F2
:10552000E41F02000B4B70B51C6805460E460CB913
:10553000204670BD0622294604F19D001AF0D6FBD4
:1055400020B994F89C307340DB07F1D5D4F8BC4007
:10555000EDE700BFAC03002038B590F82030C27FE3
:1055600003F003035B00C2F3021543EAD213827F08
:10557000C2F301110139012404FA01F10D4205D0F1
:105580009209013A04FA02F213420DD190F8202058
:1055900065F3840263F3471280F82020092100227A
:1055A00002F0B2FB002038BD4FF0FF30FBE7F8B54A
:1055B00040F2E2444443204616460F46FFF7D6FB2E
:1055C000054613F08FF8241AE4B21F2C05BF002300
:1055D0000135347033703D60F8BDC06ECB6EC01ABB
:1055E000C00F7047034B1B680BB913F071B8586EAE
:1055F000704700BFB8030020012805D10348837914
:10560000002B08BF0020704700207047D8030020FF
:10561000044B186820B1D0F8BC201A6002B95B6056
:10562000704700BFBC03002003789B062DE9F041C2
:1056300004460D460AD590F83720418E00F1250327
:10564000BDE8F041B0F8500006F097B990F8350089
:10565000012604F125070DB9BDE8F08194F8363034
:1056600094F834000344D8B2252884BF2538C0B24A
:10567000C0F3C702224484F8360092F8252000F0D7
:10568000070306FA03F3134209D194F83730B0FB4D
:10569000F3F103FB1101C9B2384606F03BF9013DB5
:1056A000ADB2D8E7F8B50446FFF7F8FB94F84230FE
:1056B00063B16378980606D5E379022B09D10023FC
:1056C000A4F8983005E0204602F0EAFA63789906DB
:1056D000F2D421688C4AB4F850500A40092A05F1E6
:1056E000010308BFB4F898209BB204BF9B189BB27B
:1056F0005D1BADB235B9854B854A864840F6B6117B
:1057000017F090FD012DA4F8503004F17C0604F14F
:10571000800740F0C980E36FD4F884201344E36726
:1057200094F8812039463046FFF744FCA3789A0765
:1057300061D5B4F85020B4F858319A425BD1E3797E
:10574000B4F85201012B15D0022B03D1B4F84E301E
:105750005B060FD4B4F8703083420BD1B4F89820B4
:10576000B4F854319A4205D1B4F87220B4F85631E5
:105770009A4203D0A37843F01003A370B4F85631D3
:10578000A4F87230B4F85431A4F8983094F84E313B
:1057900084F8403040F2E2425343C4F88C30B4F80D
:1057A0005031A4F87830A4F8700004F1810204F1BB
:1057B0008401FFF7FCFEB4F840315BB1B4F84C0152
:1057C00040F2712358431E30FFF7D0FA0023606780
:1057D000A4F84031B4F8503133B140F2E2425A43B8
:1057E00039463046FFF7D0FAE36FC4F89430A37817
:1057F0006FF34103A370A37898061DD5238EB4F8E8
:1058000050209B1A1BB2002B16DC04F12A063046EE
:1058100006F0A8F8D4F82A30C4F8253094F82E30D1
:1058200084F82930A37884F837006FF34513A37008
:105830000121204602F0DEFAA378590623D5B4F8F8
:105840005020638C9A421ED1E37F9A0707D0A27F33
:1058500003F0030161F3051261F30102A27713F073
:105860000C0F07D0A27FC3F3810363F3871263F3A6
:105870008302A277638823F4886343F480636380A0
:10588000204602F0D1FA29462046FFF7CDFE637884
:1058900084F835009B0612D5A36EE26F9B1A002B8D
:1058A0000DDC4FF0FF30F8BDB4F8702040F2E24359
:1058B0005A436A4339463046FFF766FA36E7E379DA
:1058C000022B1FD194F83F20D4F88810E06F06F027
:1058D00063F8B4F8703040F271225343963B98421B
:1058E000DFD2D4F88C301030C4F890001844FFF7A1
:1058F0003DFAA330084B1A78E36F9B1A03446366A2
:105900000020D0E7A320F5E7090062001C0F020089
:1059100083100200AB0E02007C080020012370B54A
:105920008371037804466FF3000303700E4612F090
:10593000CFFEE379E066022BC4F8940009D0E57944
:10594000012D56D0022D6DD0394B3A4A40F65131D7
:1059500046E0B368F268B4F87850C4F88830B1799A
:1059600040F2E243222003FB052503F035FFB37824
:10597000242B05EB000239D896F90530022B29DCDF
:10598000002B29DD02F6C412B368E3672146002329
:1059900001F8803F04F17C00FFF7F6F994F840002D
:1059A000E56F40F2E2435843C4F88C0000F59C5088
:1059B0000830FFF7DBF9013505446566204605F040
:1059C000D1FD0028BBD02046FFF76CFE0028F5D0A3
:1059D000002026E0032B06D0154B164A40F6033173
:1059E000154817F01FFC02F6A662CDE702F2E2426C
:1059F000CAE7124B1A6822B9114B124A4FF41A71B6
:105A0000EEE7002631461E602046334601F030F8AE
:105A1000204603F0B3FD32460321204602F074F91C
:105A2000012070BD31462046FFF742F9F8E700BF7C
:105A3000E41F020035100200AB0E0200B00300208C
:105A4000300F02001810020010B5044669B1037847
:105A500043F020030370C36D83EA134343860021A0
:105A6000FFF7E2FD84F8350010BD80F83610012103
:105A7000F6E70000014B1868FFF7B4B9B80300203F
:105A8000012370B5C371022380F840300023A0F8D1
:105A90007830042380F83F3004460E46154603F064
:105AA00003FF0C23B0FBF3F202FB13001F4B9A7BA6
:105AB00084F837200530D3F809205B7BC4F8252013
:105AC00084F8293084F8340005F01AFFE06503F00B
:105AD000EBFE174BC4F8E43020F07F40206673786B
